:020000040800F2
:10800000F84D002071820008C9930008B992000859
:10801000C5930008A1830008A59700080000000090
:10802000000000000000000000000000B181000816
:10803000A5830008000000000D820008E9930008F5
:108040008B8200088B8200088B8200088B820008DC
:108050008B8200088B8200088B8200088B820008CC
:108060008B8200088B8200088B8200088B820008BC
:108070008B8200088B8200088B8200088B820008AC
:108080008B8200088B8200088B82000800000000B1
:108090000000000000000000000000008B820008CB
:1080A0008B8200088B820008C59400088B82000830
:1080B0008B8200088B8200088B8200088B8200086C
:1080C0008B8200088B8200088B8200088B8200085C
:1080D0008B8200088B8200088B8200080000000061
:1080E0008B8200088B8200088B8200080000000051
:1080F0000000000000000000000000008B8200086B
:10810000000000008B8200088B8200088B82000830
:10811000000000000000000000000000000000005F
:108120008B8200088B8200088B8200088B820008FB
:108130008B8200080000000000000000000000002A
:108140000000000000000000000000008B8200081A
:108150008B8200088B8200088B8200088B820008CB
:108160008B8200088B8200080000000000000000E5
:1081700000000000000000000000000000000000FF
:10818000000000008B8200080000000000000000DA
:108190008B8200088B820008DFF810D000F0EEF828
:1081A0000048004705980008AFF30080F84D002014
:1081B0002C4B19680868B0E8F04F80F30988BFF3CA
:1081C0006F8F4FF0000080F31188704700000000AF
:1081D00008480068006880F308884FF0000080F3CA
:1081E000148862B661B6BFF34F8FBFF36F8F00DFA5
:1081F00000BF00BF08ED00E0DFF80C00016841F4AB
:1082000070010160704700BF88ED00E0EFF3098066
:10821000BFF36F8F134B1A681EF0100F08BF20EDCD
:10822000108A20E9F04F106009B44FF0500080F33D
:108230001188BFF34F8FBFF36F8F02F0DBFB4FF05E
:10824000000080F3118809BC19680868B0E8F04F95
:108250001EF0100F08BFB0EC108A80F30988BFF33E
:108260006F8F704714000020EFF305807047000007
:108270000648804706480047FEE7FEE7FEE7FEE7C0
:10828000FEE7FEE7FEE7FEE7FEE7FEE7B194000843
:10829000998100082DE9F05F0546002092469B4633
:1082A00088460646814640241BE02846414647460C
:1082B000224600F053F853465A46C01A914110D353
:1082C00011461846224600F03AF82D1A67EB0108CD
:1082D0004F4622460120002100F031F817EB00093B
:1082E0004E41201EA4F10104DFDC484631462A46F7
:1082F0004346BDE8F09F40EA01039B0703D009E035
:1083000008C9121F08C0042AFAD203E011F8013B81
:1083100000F8013B521EF9D27047D2B201E000F8DA
:10832000012B491EFBD270470022F6E710B5134619
:108330000A4604461946FFF7F0FF204610BD202AE2
:1083400004DB203A00FA02F1002070479140C2F1AC
:10835000200320FA03F3194390407047202A04DBDE
:10836000203A21FA02F00021704721FA02F3D040AE
:10837000C2F120029140084319467047064C074D50
:1083800006E0E06840F0010394E8070098471034E5
:10839000AC42F6D3FFF704FF44B8000864B8000805
:1083A00000BFFEE7704772B600BFFEE7F8B50246B1
:1083B0000B460025002400200021C7E0012606FA14
:1083C00001F51E6806EA0504AC4274D11E7906F078
:1083D0000306012E04D01E7906F00306022E13D1E7
:1083E00090684F000326BE40B0434F00DE68BE4099
:1083F00030439060506801268E40B0431E79C6F32A
:1084000000168E40304350601E7906F00306032E9E
:1084100009D0D0684F000326BE40B0434F009E688D
:10842000BE403043D0601E7906F00306022E13D101
:10843000CF0802F1200656F827004E07F70E0F2648
:10844000BE40B0434F07FF0E1E69BE403043CF0809
:1084500002F1200646F8270010684F000326BE40B0
:10846000B0431E7906F003064F00BE403043106053
:108470005E6806F44036002E67D000BF00260096E6
:10848000344E366846F48046324F3E603E4636688B
:1084900006F48046009600BF00BF2F4E8F0856F8A6
:1084A00027008E07370F0F26BE40B0432B4EB24237
:1084B00002D1002615E048E0294EB24201D1012642
:1084C0000FE0284EB24201D102260AE0264EB24207
:1084D00001D1032605E0254EB24201D1042600E079
:1084E00007268F073F0FBE4030431B4E8F0846F8CC
:1084F00027001F4E3068A0435E6806F4801606B160
:1085000020431B4E3060361D3068A0435E6806F481
:10851000001606B12043164E361D3060144E361F2D
:108520003068A0435E6806F4003606B12043104E62
:10853000361F3060361F3068A0435E6806F4803610
:1085400006B120430A4E083E3060491C1029FFF452
:1085500035AFF8BD44380240083801400000024001
:108560000004024000080240000C024000100240DB
:10857000083C014010B5426921EA020302EA010405
:1085800043EA0443836110BD0AB1816101E00B0439
:1085900083617047014800687047000004000020B4
:1085A0000348006803490978084401490860704796
:1085B000040000200C00002010B50D48006840F4B5
:1085C00000700B4908600846006840F4806008604D
:1085D0000846006840F480700860032000F0D2F87C
:1085E0000F2000F007F800F055F8002010BD000043
:1085F000003C0240F0B587B004460026002700BFCB
:10860000002000901E48006840F480201C4908604B
:108610000846006800F48020009000BF00BF01A958
:1086200002A800F085F900F0BBF906461548B6FB34
:10863000F0F0471E14481549086040F2E73113482E
:10864000C1604760002101618160816100F060FCD0
:10865000054695B90D4800F08FFC05466DB91A2006
:1086600000F042F8102C07D2002221461A2000F018
:108670004BF80748046000E00125284607B0F0BD2C
:108680004438024040420F0000480140D80000201A
:108690000800002008B500BF0020009011480068C5
:1086A00040F480400F4908600846006800F48040AC
:1086B000009000BF00BF00BF00200090081F0068AE
:1086C00040F08050091F08600846006800F08050A4
:1086D000009000BF00BF00220F21901E00F014F890
:1086E00008BD00004438024001460846002809DB66
:1086F00000F01F0301229A4043099B0003F1E0238D
:10870000C3F8002100BF70472DE9F05F80460D4699
:108710001646002701F048F8074639462A463346F0
:1087200001F00700C0F1070ABAF1040F02D94FF0B7
:10873000040A01E0C0F1070AD14600F1040ABAF1C7
:10874000070F02D24FF0000A01E0A0F1030AD4465D
:108750004FF0010A0AFA09FAAAF1010A0AEA020A22
:108760000AFA0CFA4FF0010B0BFA0CFBABF1010B00
:108770000BEA030B4AEA0B042146404601F01CF8C1
:10878000BDE8F09F00BF00F00702064B19684FF6E6
:10879000FF031940044B0B4343EA0221014B1960CC
:1087A00000BF70470CED00E00000FA0570B504460C
:1087B0000D460CB9012070BD5848006800F0070054
:1087C000A84209D255490D700846006800F007001C
:1087D000A84201D00120EEE7207800F00200022834
:1087E0001DD1207800F00400042805D14C48006811
:1087F00040F4E0504A490860207800F0080008285A
:1088000005D14748006840F4604045490860444845
:10881000006820F0F000A168084341490860207812
:1088200000F00100A8B36068012807D13C4808386F
:108830000068C0F34040B8B90120BCE76068022876
:1088400002D06068032807D1354808380068C0F3B3
:10885000406048B90120AEE7314808380068C0F3ED
:10886000400008B90120A6E72D48006820F0030069
:10887000616808432A490860FFF78CFE064609E054
:10888000FFF788FE801B41F28831884202D903201D
:1088900091E707E02248006800F00C006168B0EB47
:1088A000810FEDD11D48006800F00700A84209D9EA
:1088B0001A490D700846006800F00700A84201D070
:1088C000012078E7207800F00400042807D114483C
:1088D000006820F4E050E1680843114908602078FE
:1088E00000F00800082808D10D48006820F4604016
:1088F000216940EAC1000A49086000F061F80849AE
:108900000968C1F30311074A515CC8400649086071
:1089100006480068FFF76EFE00204CE7003C02406E
:108920000838024020B8000810000020080000208D
:108930000F2202600D4A126802F0030242600B4AE5
:10894000126802F0F0028260084A126802F4E052F3
:10895000C260064A126802F46042D2080261044A08
:10896000126802F007020A607047000008380240EF
:10897000003C0240014800687047000010000020E1
:1089800000B5FFF7F7FF04490968C1F38221034AE4
:10899000515CC84000BD00000838024030B80008F3
:1089A00000B5FFF7E7FF04490968C1F34231034A04
:1089B000515CC84000BD00000838024030B80008D3
:1089C0002DE9F047002400250026A146254800682F
:1089D00000F00C0020B1042805D008283AD105E0A9
:1089E000DFF8849039E0DFF8849036E01D48001FFE
:1089F000006800F03F041B48001F006800F480007E
:108A000078B11A481749091F0968C1F38811A0FBFA
:108A100001700146224600233846FFF73BFC05461D
:108A20000EE011480F49091F0968C1F38811A0FB26
:108A300001700146224600233846FFF72BFC05460D
:108A40000848001F0068C0F30140401C4600B5FB09
:108A5000F6F902E0DFF8109000BF00BF4846BDE81D
:108A6000F0870000083802400024F40040787D01BF
:108A7000F8B504460CB90120F8BD207800F00100DB
:108A8000002874D0F948006800F00C0004280DD0CC
:108A9000F648006800F00C00082813D1F348001FC6
:108AA000006800F48000B0F5800F0BD1EF48083863
:108AB0000068C0F34040002859D06068002856D1B3
:108AC0000120D9E700BF6068B0F5803F08D1E748D2
:108AD0000838006840F48030E449083908601EE036
:108AE0006068B0F5A02F0DD1E0480838006840F468
:108AF0008020DE49083908600846006840F480306C
:108B000008600CE0D9480838006820F48030D74964
:108B1000083908600846006820F48020086000BF1B
:108B2000606890B1FFF736FD054606E0FFF732FDBD
:108B3000401B642801D903209EE7CC480838006810
:108B4000C0F340400028F1D011E0FFF723FD0546B7
:108B500006E0FFF71FFD401B642801D903208BE7C7
:108B6000C24808380068C0F340400028F1D120789E
:108B700000F0020002285FD1BC48006800F00C0041
:108B800058B1BA48006800F00C0008281CD1B7485A
:108B9000001F006800F48000B0B9B44808380068CD
:108BA000C0F3400020B1E068012801D0012063E754
:108BB000AE480838006820F0F800216940EAC1009A
:108BC000AA490839086037E0E06800B30120A849E5
:108BD0000860FFF7DFFC054606E0FFF7DBFC401B03
:108BE000022801D9032047E7A04808380068C0F3ED
:108BF00040000028F1D09D480838006820F0F800B7
:108C0000216940EAC10099490839086014E0002050
:108C100097490860FFF7BEFC054606E0FFF7BAFC7F
:108C2000401B022801D9032026E790480838006835
:108C3000C0F340000028F1D1207800F00800082897
:108C40002CD16069A8B101208A490860FFF7A2FC15
:108C5000054606E0FFF79EFC401B022801D90320D1
:108C60000AE782486C300068C0F340000028F1D069
:108C700014E000207F490860FFF78CFC054606E001
:108C8000FFF788FC401B022801D90320F4E677484F
:108C90006C300068C0F340000028F1D1207800F06B
:108CA0000400042870D1002770483830006800F0B4
:108CB000805090B900BF002000906C4838300068A8
:108CC00040F080506949383108600846006800F07B
:108CD0008050009000BF00BF01276748006800F483
:108CE0008070B0B96448006840F4807062490860E0
:108CF000FFF750FC054606E0FFF74CFC401B02283E
:108D000001D90320B8E65C48006800F480700028B0
:108D1000F2D000BFA068012808D15448683000682C
:108D200040F001005149683108601DE0A068052845
:108D30000DD14E486830006840F004004B4968315E
:108D400008600846006840F0010008600CE04748F1
:108D50006830006820F00100444968310860084626
:108D6000006820F00400086000BFA068A8B1FFF709
:108D700011FC054609E0FFF70DFC401B41F288316C
:108D8000884202D9032077E626E038486830006838
:108D9000C0F340000028EED013E0FFF7FBFB0546D0
:108DA00008E0FFF7F7FB401B41F28831884201D908
:108DB000032061E62D4868300068C0F340000028B9
:108DC000EFD1012F07D129483830006820F08050BA
:108DD00026493831086000BFA069002845D02348E3
:108DE000006800F00C0008285DD0A069022845D179
:108DF00000201F490866FFF7CDFB054606E0FFF798
:108E0000C9FB401B022801D9032035E61748083862
:108E10000068C0F340600028F1D1D4E9070108439D
:108E2000616A40EA81110122A06AC2EB500041EA66
:108E300000412C20005D41EA00600C49091F0860D8
:108E400001200B490866FFF7A5FB054606E0FFF782
:108E5000A1FB401B022801D903200DE60348083876
:108E60000068C0F340600028F1D049E008380240B3
:108E700000004742800E4742007000400020214918
:108E80000866FFF787FB054606E0FFF783FB401BFC
:108E9000022801D90320EFE51B480068C0F34060B9
:108EA0000028F2D12CE0A069012800D1E4E51648A1
:108EB000001D0668A069012820D006F48001E06941
:108EC00081421BD106F03F01206A814216D147F64C
:108ED000C0703040616AB0EB811F0FD106F44031A1
:108EE0000122A06AC2EB5000B1EB004F06D106F0A0
:108EF00070612C20005DB1EB006F01D00120BBE55B
:108F00000020B9E500004742003802407047704732
:108F100010B504460CB9012010BD94F83D0028B9E5
:108F2000002084F83C00204600F025F8022084F858
:108F30003D00211D206800F0CDFA012084F8460094
:108F400000BF84F83E0001213F200155402001551B
:108F50004120015500BF00BF012084F8420043209A
:108F60000155442001554520015500BF012084F8DA
:108F70003D000020D0E77047014691F83D000128F0
:108F800001D001207047022081F83D000868C068C8
:108F900040F001000B68D860164B0868984213D067
:108FA0000868B0F1804F0FD0134B086898420BD07F
:108FB000124B0868984207D0114B0868984203D0BA
:108FC000104B086898420CD10868806800F00702CE
:108FD000062A0CD00868006840F001000B68186091
:108FE00005E00868006840F001000B681860002088
:108FF000C8E70000000001400004004000080040F5
:10900000000C004000400140704710B50446206845
:109010000069C0F34000D8B12068C068C0F34000C8
:10902000B0B16FF00200216808610120207720684C
:10903000806900F0030018B12046FFF7E5FF05E066
:10904000204600F0ADF8204600F0ABF80020207775
:1090500020680069C0F38000D8B12068C068C0F300
:109060008000B0B16FF00400216808610220207711
:109070002068806900F4407018B12046FFF7C4FFF3
:1090800005E0204600F08CF8204600F08AF8002029
:10909000207720680069C0F3C000D8B12068C0689C
:1090A000C0F3C000B0B16FF008002168086104206F
:1090B00020772068C06900F0030018B12046FFF750
:1090C000A3FF05E0204600F06BF8204600F069F8A9
:1090D0000020207720680069C0F30010D8B1206814
:1090E000C068C0F30010B0B16FF0100021680861D3
:1090F000082020772068C06900F4407018B120462D
:10910000FFF782FF05E0204600F04AF8204600F015
:1091100048F8002020772068006900F0010058B16D
:109120002068C06800F0010030B16FF001002168D4
:109130000861204600F036F820680069C0F3C010CE
:1091400058B12068C068C0F3C01030B16FF0800023
:10915000216808612046FFF7D9FE20680069C0F346
:10916000801058B12068C068C0F3801030B16FF033
:10917000400021680861204600F020F8206800695E
:10918000C0F3401058B12068C068C0F3401030B13F
:109190006FF02000216808612046FFF7B8FE10BD7F
:1091A0007047704710B5044603492068884201D1D2
:1091B000FFF7F6F910BD000000480140704710B5F8
:1091C00004460CB9012010BDA06900B100E000BF49
:1091D00094F83D0028B9002084F83C00204600F0B7
:1091E00027F8242084F83D002068C06820F400504F
:1091F0002168C860204600F0BFF92068006920F4AB
:109200009040216808612068406920F02A002168A8
:1092100048612068C06840F400502168C8600020A0
:109220002064202084F83D0084F83E000020CAE736
:1092300010B586B00446142101A8FFF775F81B4944
:109240002068884230D100BF002000901848006894
:1092500040F01000164908600846006800F0100051
:10926000009000BF00BF00BF0020009010481438DD
:10927000006840F001000E49143908600846006893
:1092800000F00100009000BF00BF4FF4C0600190EB
:1092900002200290002003900320049007200590F4
:1092A00001A90448FFF782F806B010BD0010014084
:1092B000443802400000024000BFFEE710B5044AF7
:1092C0000021044800F004FB0349086010BD0000C1
:1092D000FCB70008CD9300080000002000B587B05F
:1092E000142102A8FFF720F800BF002001902448B5
:1092F000006840F00400224908600846006800F059
:109300000400019000BF00BF00BF0020019008468C
:10931000006840F0800008600846006800F08000A7
:10932000019000BF00BF00BF002001900846006808
:1093300040F0010008600846006800F0010001905C
:1093400000BF00BF00224FF400510E48FFF71CF988
:109350004FF40050029001200390002004900590EB
:1093600002A90848FFF722F801200290002003908C
:109370000120049002A90448FFF718F807B000BDC7
:1093800030380240000802400000024010B50B488F
:109390000B4908604FF4E1304860002108488160C3
:1093A000C16001610C21416100218161C161FFF750
:1093B00006FF08B1FEF7F7FF10BD000000100140E6
:1093C0009400002000BFFEE700BFFEE700BF4FF49F
:1093D00000510448FFF7CEF84FF4FA7000F023FA7A
:1093E000F5E700000008024010B54FF0E0200069EA
:1093F00001F0AEFF012801D001F0F8FB10BD000024
:1094000000B593B0302107A8FEF78EFF142102A803
:10941000FEF78AFF00BF002001902348006840F05B
:109420008050214908600846006800F08050019093
:1094300000BF00BF00BF002001901C48006840F43E
:1094400040401A4908600846006800F44040019016
:1094500000BF00BF012007900004089002200D907B
:1094600041050E910C210F91602110910221119163
:109470000421129107A8FFF7FBFA08B1FEF793FF4A
:109480000F20029002200390002004904FF480509F
:10949000059000200690032102A8FFF787F908B184
:1094A000FEF781FF13B000BD40380240007000405D
:1094B0000348006840F470000149086070470000EC
:1094C00088ED00E010B50248FFF79FFD10BD0000D9
:1094D000D800002010B50268204B98420BD0B0F1A4
:1094E000804F08D01E4B984205D01E4B984202D0A8
:1094F0001D4B984203D122F070024B681A43174B60
:10950000984214D0B0F1804F11D0154B98420ED034
:10951000144B98420BD0144B984208D0134B9842EE
:1095200005D0134B984202D0124B984203D122F43B
:109530004072CB681A4322F080034C6943EA04026C
:1095400002608B68C3620B688362044B984201D14E
:109550000B6903630123436110BD0000000001405B
:109560000004004000080040000C004000400140A2
:1095700000440140004801402DE9F84F04462068AE
:10958000006920F44050E1680843216808612169BE
:10959000A068084361690843E169084300902068B6
:1095A000C06849F20C618843009908432168C8608B
:1095B0002068406920F44070A1690843216848612F
:1095C00076492068884203D075492068884203D1D3
:1095D000FFF7E6F9814602E0FFF7D2F98146E0693C
:1095E000B0F5004F6CD102206168A0FB015003462A
:1095F0001920A9FB007001462A463846FEF74AFEAC
:109600006421B0FBF1F04FEA001A02206168A0FB70
:1096100001510B461920A9FB00712A463846FEF776
:1096200039FE834602206168A0FB015003461920E1
:10963000A9FB00712A463846FEF72CFE6421B0FBD8
:10964000F1F000EBC00101EB0010ABEB8000322128
:1096500001EBC0006421B0FBF1F000F0F8000AEB70
:10966000400A02206168A0FB015003461920A9FBB3
:10967000007001462A463846FEF70CFE834602205B
:109680006168A0FB015003461920A9FB00712A461E
:109690003846FEF7FFFD6421B0FBF1F000EBC0019E
:1096A00001EB0010ABEB8000322101EBC000642124
:1096B000B0FBF1F000F007005044216888606AE0D8
:1096C00004206168A0FB015003461920A9FB00702B
:1096D00001462A463846FEF7DDFD824604206168D1
:1096E000A0FB015003461920A9FB007001462A4641
:1096F0003846FEF7CFFD6421B0FBF1F000EBC0016E
:1097000001EB0010AAEB8000322101EB0010642174
:10971000B0FBF1F000F0F00A04206168A0FB0170DA
:1097200003461920A9FB00513A462846FEF7B2FD30
:109730006421B0FBF1F00AEB001A04206168A0FB81
:1097400001510B461920A9FB00712A463846FEF745
:10975000A1FD834604206168A0FB01500346192047
:10976000A9FB007001462A463846FEF793FD6421A6
:10977000B0FBF1F000EBC00101EB0010ABEB80009F
:10978000322101EB00106421B0FBF1F000F00F007A
:10979000504421688860BDE8F88F00000010014047
:1097A0000014014000BFFEE702480068C0F3022039
:1097B000704700000CED00E010B5002804DB0A073C
:1097C000130E054A135406E00A07140E034A00F06C
:1097D0000F031B1FD45410BD00E400E018ED00E09F
:1097E000EFF30580704702E008C8121F08C1002A85
:1097F000FAD170477047002001E001C1121F002A12
:10980000FBD1704762B6FEF7D7FEFFF7F9FDFFF711
:1098100065FDFFF7BBFD00F015F8FFF74FFD00F009
:1098200027F800BFFEE770B50546FFF7D9FF10B176
:109830006FF0050404E0002415B1284600F0FAFF9B
:10984000204670BD10B5FFF7CBFF10B16FF00504D7
:1098500009E00648006820B9012004490860002496
:1098600001E04FF0FF34204610BD000064000020EE
:1098700070B5FFF7B5FF10B16FF005041FE0114898
:109880000068012819D100BF801F0021002804DBD7
:109890000A07130E0C4A135406E00A07150E0B4A6A
:1098A00000F00F031B1FD55400BF00BF0220054965
:1098B000086001F03BF8002401E04FF0FF3420463F
:1098C00070BD00006400002000E400E018ED00E03E
:1098D0002DE9FF4780468946144600200390FFF794
:1098E0007FFF00284ED1B8F1000F4BD080261825FD
:1098F0008246471E44B3206808B1D4F800A0A0698E
:1099000000B1A5692DB1382D03D8207900F00100F0
:1099100018B1002004B0BDE8F087606908B1606943
:109920008608A06840B1E0685C2805D3206918B1BA
:10993000606908B1012708E0A06830B9E06820B983
:10994000206910B9002700E00027012F0CD1216900
:10995000A0684B463246CDE9005102905146404640
:1099600001F098FC03900DE067B903A8B2B24B4632
:109970005146CDE90050404601F05AFC012801D083
:10998000002003900398C5E72DE9F04105460E46F7
:109990001648076816480068001D00F0C3FD681CE3
:1099A00038B936B112480168091D124800F010FE9E
:1099B0001AE07C190E4800684460BC4207D20C488B
:1099C0000168091D0C48006800F0E8FD0CE008483B
:1099D0000168091D0948006800F0E0FD08480068BA
:1099E000844201D206480460BDE8F08128000020CE
:1099F00014000020100600201C0000201800002089
:109A00004400002010B5044600F0EEFD2448006834
:109A1000401C234908602348006840B9214804607D
:109A20000846006801280DD100F0FCF90AE01E4844
:109A3000006838B91B480068C06AE16A884201D8EA
:109A40001848046019480068401C18490860084616
:109A5000006860641649E06A0968884202D91449BE
:109A6000E06A0860E16A01EB8101124A02EB8100C1
:109A7000211D00F0ADFD00F0E1FD0B48006868B16C
:109A800008480068C06AE16A884207D24FF08050F7
:109A900009490860BFF34F8FBFF36F8F10BD0000FF
:109AA000240000201400002030000020400000208E
:109AB0002C0000206001002004ED00E008B500F05B
:109AC00093FD12480068E8B9114800F057FD1148AD
:109AD00000F054FD0E48104908600E480F49086018
:109AE00000200F4B0F4A102100900A2001F098F837
:109AF000064908600846006820B10BA103480068C9
:109B000000F05CFE00F09AFD08BD00005800002047
:109B100024060020380600205000002054000020B9
:109B20004C0600209C060020546D7251000000007D
:109B300010B516E000F058FD0C48C068C468201D40
:109B400000F0F0FC0A480068401E09490860094816
:109B50000068401E0749086000F070FD204600F0D4
:109B60005FF8044800680028E4D110BDFC0500201F
:109B7000240000202000002070B504460D46206C13
:109B800070B1216CE0680144E160D4E902108842C0
:109B900001D32168E1602846226CE168FEF7ABFB47
:109BA00070BD2DE9F04104460F4615464FF0000800
:109BB000A66B206C48B9206800282CD1A06801F061
:109BC0007FFC80460020A06025E07DB93946226CEC
:109BD0006068FEF790FB216C606808446060D4E91F
:109BE0000101884217D32068606014E03946226C76
:109BF000E068FEF780FB216CE068411AE1602168B3
:109C0000E068884203D2216CA068411AE160022D0D
:109C100001D106B1761E701CA0634046BDE8F081FC
:109C200010B5044694F8590030B9206B00F024FDBB
:109C3000204600F021FD1AE094F85900012803D1D4
:109C4000204600F019FD12E094F85900022801D1D5
:109C5000012000E0002050B900BF502080F311889F
:109C6000BFF34F8FBFF36F8F00BF00BFFEE710BD84
:109C70000146084A126812680AB9012200E000226F
:109C80000A600A6822B9034A1268D268106800E0C4
:109C9000002070475000002030B54FF47053174833
:109CA00000F007042CB1C01D20F00700134C041B6A
:109CB0001B1B0246124C22600024114D6C60D01810
:109CC000083820F007000F4C206000240D4D2D684F
:109CD0006C600C4D2D682C601146441A4C60094C88
:109CE00024680C60084D4C682C60084D4C682C6052
:109CF0004FF00044064D2C6030BD0000F40D0020F4
:109D0000680000207000002078000020740000200F
:109D10008400002000BFFFF70BFF06480068012801
:109D2000F9D94FF0805004490860BFF34F8FBFF35B
:109D30006F8FF0E76001002004ED00E02DE9F041B5
:109D400006460D4617469846069C0DB9246000E06D
:109D50002760E66325640121204600F0D1FF84F8E6
:109D60004C80BDE8F0812DE9F05F82460E469046BA
:109D70009B460A9F0C9C4FEA8801A522206BFEF7A8
:109D8000CCFAA8F10100216B01EB800929F0070949
:109D900009F0070008B9012000E0002050B900BF19
:109DA000502080F31188BFF34F8FBFF36F8F00BF38
:109DB00000BFFEE786B1002507E0715D04F13400C5
:109DC0004155705D00B902E06D1C102DF5D300BF48
:109DD00000214320015502E0002084F83400382F90
:109DE00000D33727E762E76400202065201D00F0DC
:109DF000D2FB04F1180000F0CEFB2461C7F138005B
:109E0000A06164620020606584F858005A4651469B
:109E1000484600F071FB20600B9808B10B98046075
:109E2000BDE8F09F10B5002407E004EB84010F4A61
:109E300002EB810000F0A2FB641C382CF5D30C4827
:109E400000F09CFB0B4800F099FB0B4800F096FBE0
:109E50000A4800F093FB0A4800F090FB04480949C7
:109E6000086004480849086010BD00006001002037
:109E7000C0050020D4050020E8050020FC050020D6
:109E800010060020180000201C00002010B501461C
:109E9000164800E0006803688B42FBD30246436823
:109EA00013448B4204D143684C6823444360014609
:109EB0000A464B6813440468A34211D10C4C036852
:109EC0002468A34208D04B680468646823444B604C
:109ED00003681B680B6005E0054B1B680B6001E025
:109EE00003680B60884200D0016010BD680000204C
:109EF000700000202DE9F04104460D4616461F462D
:109F00004FF0000865602461B5420CD8F01BA169D0
:109F1000884202D34FF0010811E0211D0948006872
:109F200000F03CFB0BE0BE4204D2BD4202D34FF036
:109F3000010804E0211D0448006800F02FFB4046A2
:109F4000BDE8F081540000205000002070B50546A7
:109F500000F04AFBA86B08B9012400E0002400F0DF
:109F60006DFB204670BD70B5054600F03DFBA86B4B
:109F7000E96B884201D1012400E0002400F05EFB7F
:109F8000204670BDF8B505460F461A480068C068FF
:109F9000C468201D00F0C6FA94F8280000F0040000
:109FA000E8B1A06941192B463A462046FFF7A2FFC7
:109FB000D8B1002003462A4601460090204601F011
:109FC000DBFB064656B900BF502080F31188BFF373
:109FD0004F8FBFF36F8F00BF00BFFEE705E094F81F
:109FE000280020F0010084F828002046216A8847D4
:109FF000F8BD000050000020F0B587B0A0E0039845
:10A00000002811DA04AE56B900BF502080F3118841
:10A01000BFF34F8FBFF36F8F00BF00BFFEE7D6E9DE
:10A020000020B168904700BF03980028E6DB059C3C
:10A03000606908B9012000E0002010B9201D00F07F
:10A0400071FA02A800F0DEF8054603980A2875D2D6
:10A05000DFE800F009050739416306083A4200BF0E
:10A0600000BF00BF00BF94F8280040F0010084F852
:10A0700028000498A269811803462A462046FFF763
:10A0800039FFF8B12046216A884794F8280000F08B
:10A090000400B8B1002000900498A1694218002380
:10A0A0001946204601F068FB074657B900BF50200B
:10A0B00080F31188BFF34F8FBFF36F8F00BF00BFD6
:10A0C000FEE700BF3BE000BF94F8280020F001004D
:10A0D00084F8280033E000BF94F8280040F0010025
:10A0E00084F828000498A061A06908B1012000E06C
:10A0F000002050B900BF502080F31188BFF34F8F6C
:10A10000BFF36F8F00BF00BFFEE7A06941192B4668
:10A110002A462046FFF7EEFE11E094F8280000F0F2
:10A12000020018B9204600F0A7FA05E094F82800CC
:10A1300020F0010084F8280001E0FFE700BF00BF25
:10A14000002203A90448006800F078FF00287FF48B
:10A1500056AF07B0F0BD000058000020F8B5054626
:10A160000C4600F03FFC684600F04CF806460098AC
:10A1700020BB44B9B54206D801F040FA3146284622
:10A18000FFF700FF1CE03CB10E480068006808B90A
:10A19000012000E000200446A91B22460A4800686E
:10A1A00000F022FB01F02AFA50B94FF08050074925
:10A1B0000860BFF34F8FBFF36F8F01E001F01EFA0D
:10A1C000F8BD0000540000205800002004ED00E01D
:10A1D0000A490968096809B9012100E0002121B193
:10A1E0004FF0FF31064A116006E004490968C9686A
:10A1F000C868034A416811607047000018000020D9
:10A200004400002070B5044601F0B2F80546074846
:10A210000068854204D200F00BF80120206001E0C4
:10A220000020206001480560284670BD60000020C5
:10A230002DE9F84334E025480068C06805682348E4
:10A240000068C068C468201D00F06CF92046216ACF
:10A25000884794F8280000F0040008B3A069461964
:10A26000AE4207D966602461211D1848006800F0DD
:10A2700095F915E0002003462A4601460090204645
:10A2800001F07AFA074657B900BF502080F31188D1
:10A29000BFF34F8FBFF36F8F00BF00BFFEE700BF5C
:10A2A0000A480068006808B9012000E00020002882
:10A2B000C1D00648D0F8008005480068034908600E
:10A2C0000348C0F80080BDE8F8830000500000207B
:10A2D000540000200E480068401C08B9012000E02E
:10A2E000002050B900BF502080F31188BFF34F8F7A
:10A2F000BFF36F8F00BF00BFFEE700BF502080F3A9
:10A300001188BFF34F8FBFF36F8F00BF00BFFEE711
:10A310008800002008B500BF6846FFF7A9FC044686
:10A3200020460099FFF71AFFFFF766FEF4E770B5C5
:10A33000044600F059F994F9455010E0606A08B9F4
:10A34000012000E0002038B904F1240001F00AF9EE
:10A3500018B100F0A9FA00E003E0681E45B2002D34
:10A36000ECDC00BFFF2084F8450000F067F900F046
:10A370003BF994F9445010E0206908B9012000E04D
:10A38000002048B904F1100001F0ECF808B100F029
:10A390008BFA681E45B200E001E0002DECDC00BF46
:10A3A000FF2084F8440000F049F970BD2DE9F04128
:10A3B00004464FF0000800F015FB4948006808B952
:10A3C000FFF76AFC474800682040002870D1D4B1EC
:10A3D000083404F00700B0B104F00700C0F1080031
:10A3E000044404F0070008B9012000E0002050B93F
:10A3F00000BF502080F31188BFF34F8FBFF36F8FE2
:10A4000000BF00BFFEE7002C52D0374800688442EE
:10A410004ED8364E3046056801E02E462D686868F5
:10A42000A04202D228680028F7D12D480068854252
:10A430003ED0306800F10808286830606868001B6A
:10A44000102819D92F1907F0070008B9012000E0DA
:10A45000002050B900BF502080F31188BFF34F8F08
:10A46000BFF36F8F00BF00BFFEE76868001B786016
:10A470006C603846FFF70AFD1B4968680968081ACE
:10A48000194908600846006819490968884203D2DA
:10A490001548006816490860124968680968084349
:10A4A00068600020286013480068401C114908605B
:10A4B00001F0A4F808F0070008B9012000E000202E
:10A4C00050B900BF502080F31188BFF34F8FBFF306
:10A4D0006F8F00BF00BFFEE74046BDE8F08100007F
:10A4E000700000208400002074000020680000201C
:10A4F000780000207C000020001F4FF08073036074
:10A50000001F21F001030360001F054B0360143896
:10A510000260001F6FF002030360203870470000E4
:10A52000D5A2000801460A69D1E901309860D1E955
:10A53000010358605068884201D18868506000204B
:10A5400008611068401E106010687047034B03607C
:10A55000034B0B6080231360704700003C07002012
:10A5600098070020034B0360034B0B604FF480738C
:10A570001360704798090020F409002000F10801D9
:10A5800041604FF0FF31816000F10801C16001615D
:10A5900000210160704700210161704710B502463B
:10A5A0000B685C1C0CB9106907E002F1080000E0C0
:10A5B0004068446824689C42FAD944684C604C68FE
:10A5C000A160886041600A611468641C146010BD59
:10A5D00042684A6093688B60936859609160086133
:10A5E00003685B1C0360704700BF502080F3118834
:10A5F000BFF34F8FBFF36F8F00BF0E480068401C42
:10A600000C49086008460068012812D10A48006811
:10A61000C0B208B9012000E0002050B900BF5020AE
:10A6200080F31188BFF34F8FBFF36F8F00BF00BF60
:10A63000FEE770478800002004ED00E00D48006848
:10A6400050B900BF502080F31188BFF34F8FBFF384
:10A650006F8F00BF00BFFEE706480068401E054937
:10A6600008600846006820B9002080F3118800BF08
:10A6700000BF70478800002070B506463546002EA2
:10A6800044D0083D2C46224960680968084008B15A
:10A69000012000E0002050B900BF502080F3118855
:10A6A000BFF34F8FBFF36F8F00BF00BFFEE720687F
:10A6B00008B9012000E0002050B900BF502080F30D
:10A6C0001188BFF34F8FBFF36F8F00BF00BFFEE74E
:10A6D0000F49606809680840C0B12068B0B90C49EA
:10A6E000606809688843606000F07CF90949606827
:10A6F00009680844074908602046FFF7C7FB064879
:10A700000068401C0449086000F078FF70BD00003C
:10A7100084000020740000208000002000204FF002
:10A72000E02108618861064800684FF47A71B0FB47
:10A73000F1F0401E4FF0E0214861072008617047AA
:10A740001000002070B5FDF78FFD0446102C16D3C5
:10A7500004F1E02090F8F05315480078854201DBC1
:10A76000012000E0002050B900BF502080F3118884
:10A77000BFF34F8FBFF36F8F00BF00BFFEE70D48E1
:10A78000006800F4E0600C490968884201D80120A3
:10A7900000E0002050B900BF502080F31188BFF3C3
:10A7A0004F8FBFF36F8F00BF00BFFEE770BD00008B
:10A7B0008C0000200CED00E09000002002460020FC
:10A7C0000BE0084B53F8303033B9064B43F83010E8
:10A7D00003EBC0035A6002E0401C0828F1D300BF1D
:10A7E00070470000200100202DE9F04105460E468B
:10A7F00017462C46FFF7F8FE94F94400401C10B9A8
:10A80000002084F8440094F94500401C10B9002051
:10A8100084F84500FFF712FFA06B28B93A4631468D
:10A8200004F1240000F062F82046FFF780FDBDE847
:10A83000F081000070B504460025D4B112480068CC
:10A8400008B9012000E0002050B900BF502080F37B
:10A850001188BFF34F8FBFF36F8F00BF00BFFEE7BC
:10A8600000F0C0F800212046FFF78EF800F0C6FE89
:10A8700005463DB94FF0805004490860BFF34F8F43
:10A88000BFF36F8F70BD00004C00002004ED00E0AE
:10A890000349096801600349096841607047000085
:10A8A0003C0000202800002001200149086070477A
:10A8B0003800002070B504460D4654B900BF502042
:10A8C00080F31188BFF34F8FBFF36F8F00BF00BFBE
:10A8D000FEE70548016818312046FFF75FFE0121B9
:10A8E0002846FFF751F870BD1400002070B50546EA
:10A8F0000E46144655B900BF502080F31188BFF3AF
:10A900004F8FBFF36F8F00BF00BFFEE7064801689F
:10A9100018312846FFF75CFE0CB14FF0FF36214698
:10A920003046FFF731F870BD1400002010B586B036
:10A9300000200590049003AA04A905A8FFF706FECD
:10A940000022DDE904101346CDE9002102901EA18A
:10A950001F48039A00F09EFC1E49086008460068E4
:10A9600008B1012400E00024012C02D100F0C8FE4F
:10A970000446012C15D100BF502080F31188BFF38D
:10A980004F8FBFF36F8F00BF4FF0FF301249086049
:10A9900001201249086000201149086000F072F897
:10A9A00010E0601C08B1012000E0002050B900BF99
:10A9B000502080F31188BFF34F8FBFF36F8F00BF1C
:10A9C00000BFFEE706B010BD49444C450000000042
:10A9D000159D0008480000204400002030000020A1
:10A9E0002800002002480068401C014908607047A8
:10A9F0004C0000201E48006818B101201D49086065
:10AA000034E000201B4908601B4801680CE051B984
:10AA100000BF502080F31188BFF34F8FBFF36F8FBB
:10AA200000BF00BFFEE7491E01EB8100134A52F848
:10AA3000200008B9012000E000200028E7D101EB48
:10AA400081020E4B03EB820042685268426000F1C3
:10AA500008024368934202D14268526842604268E9
:10AA6000D268074B1A600448016000BF70470000BD
:10AA70004C000020380000202C0000206001002045
:10AA8000140000201CB5524800685249884201D089
:10AA9000012000E0002050B900BF502080F3118851
:10AAA000BFF34F8FBFF36F8F00BF00BFFEE7484873
:10AAB00000684849491E884201D0012000E000207A
:10AAC00050B900BF502080F31188BFF34F8FBFF300
:10AAD0006F8F00BF00BFFEE73F4908460078019036
:10AAE000FF200A4610700846007800909DF800008C
:10AAF00000F0F0009DF80020904201D1012000E01C
:10AB0000002050B900BF502080F31188BFF34F8F51
:10AB1000BFF36F8F00BF00BFFEE79DF8000000F09D
:10AB200050002E4A107007202D4A106009E02C4872
:10AB30000068401E2A4A10609DF800004006000E82
:10AB400000909DF8000000F080008028EFD024489D
:10AB50000068C0F10700042801D1012000E00020B6
:10AB600050B900BF502080F31188BFF34F8FBFF35F
:10AB70006F8F00BF00BFFEE7194800680002184A47
:10AB800010601046008800F4E0601060124A0198DE
:10AB900010700F482030006840F470000C492031DC
:10ABA00008600846006840F070400860FFF7B6FD96
:10ABB00000200C490860FDF71FFB0B48006840F0BF
:10ABC000404009490860FDF703FB00201CBD000060
:10ABD00000ED00E071C20F4100E400E08C000020B5
:10ABE000900000208800002034EF00E010B500BF86
:10ABF000502080F31188BFF34F8FBFF36F8F00BFDA
:10AC000000F0BCFB18B14FF080500449086000BF51
:10AC1000002080F3118800BF10BD000004ED00E0AB
:10AC20002DE9F84380460E4617461D46DDF8209074
:10AC3000B8F1000F01D0012000E0002050B900BFA2
:10AC4000502080F31188BFF34F8FBFF36F8F00BF89
:10AC500000BFFEE70DB1012000E0002050B900BFA9
:10AC6000502080F31188BFF34F8FBFF36F8F00BF69
:10AC700000BFFEE707B10EB1012000E0002050B98F
:10AC800000BF502080F31188BFF34F8FBFF36F8F49
:10AC900000BF00BFFEE707B90EB9012000E00020A9
:10ACA00050B900BF502080F31188BFF34F8FBFF31E
:10ACB0006F8F00BF00BFFEE7502000900098502823
:10ACC00001D1012000E0002050B900BF502080F3E6
:10ACD0001188BFF34F8FBFF36F8F00BF00BFFEE738
:10ACE00000BF2C464CB1012084F846004B463A4642
:10ACF000314640460094FFF721F82046BDE8F8832E
:10AD000070B505460E462C4654B900BF502080F35E
:10AD10001188BFF34F8FBFF36F8F00BF00BFFEE7F7
:10AD2000FFF762FCD4E90F12206801FB0200A0606B
:10AD30000020A06320686060E06B401E226C2168E8
:10AD400000FB0211E160FF2084F8440084F8450014
:10AD50009EB9206908B9012000E00020A8B904F1DB
:10AD6000100000F0FFFB80B14FF0805009490860EF
:10AD7000BFF34F8FBFF36F8F07E004F11000FFF7B1
:10AD8000FDFB04F12400FFF7F9FBFFF757FC01205E
:10AD900070BD000004ED00E02DE9FF4383B00646DE
:10ADA00088461D464FF00009344654B900BF502074
:10ADB00080F31188BFF34F8FBFF36F8F00BF00BFC9
:10ADC000FEE7B8F1000F01D1206C08B9012000E0C6
:10ADD000002050B900BF502080F31188BFF34F8F7F
:10ADE000BFF36F8F00BF00BFFEE7022D02D1E06B03
:10ADF000012801D1012000E0002050B900BF5020FF
:10AE000080F31188BFF34F8FBFF36F8F00BF00BF78
:10AE1000FEE700F09DFA08B9059808B9012000E0A6
:10AE2000002050B900BF502080F31188BFF34F8F2E
:10AE3000BFF36F8F00BF00BFFEE700BFFFF7D4FB7B
:10AE4000A06BE16B884201D3022D28D12A464146EE
:10AE50002046FEF7A6FE0746606A08B9012000E01A
:10AE6000002068B904F1240000F07CFB88B14FF0A9
:10AE7000805032490860BFF34F8FBFF36F8F08E0F7
:10AE80003FB14FF080502D490860BFF34F8FBFF3A3
:10AE90006F8FFFF7D3FB012007B0BDE8F083059863
:10AEA00018B9FFF7CBFB0020F6E7B9F1000F04D18A
:10AEB00001A8FFF7EDFC4FF00109FFF7BFFBFFF71B
:10AEC00091FDFFF791FB94F94400401C10B900205C
:10AED00084F8440094F94500401C10B9002084F81F
:10AEE0004500FFF7ABFB05A901A800F05BF9F0B93D
:10AEF0002046FFF738F8A0B104F110000599FFF7DC
:10AF0000D9FC2046FFF713FA00F078FB002895D112
:10AF10004FF0805009490860BFF34F8FBFF36F8F28
:10AF20008CE72046FFF703FA00F068FB86E720462F
:10AF3000FFF7FDF900F062FB0020ADE704ED00E053
:10AF40002DE9F84F07468A4690461E463C4654B9BE
:10AF500000BF502080F31188BFF34F8FBFF36F8F76
:10AF600000BF00BFFEE7BAF1000F01D1206C08B9A5
:10AF7000012000E0002050B900BF502080F311886C
:10AF8000BFF34F8FBFF36F8F00BF00BFFEE7022EEE
:10AF900002D1E06B012801D1012000E0002050B96E
:10AFA00000BF502080F31188BFF34F8FBFF36F8F26
:10AFB00000BF00BFFEE7FFF7C5FB00BF5021EFF366
:10AFC000118081F31188BFF34F8FBFF36F8F00BFE4
:10AFD0000546A06BE16B884201D3022E25D194F97E
:10AFE00045B0A06B0090324651462046FEF7D9FD91
:10AFF0000BF1010088B9606A08B9012000E0002067
:10B0000050B904F1240000F0ADFA28B1B8F1000FF6
:10B0100002D00120C8F8000004E00BF1010040B2AA
:10B0200084F845004FF0010901E04FF0000900BF2E
:10B0300085F3118800BF4846BDE8F88F2DE9F74138
:10B0400083B005460E464FF000082C4654B900BFA9
:10B05000502080F31188BFF34F8FBFF36F8F00BF75
:10B0600000BFFEE70EB9206C08B9012000E0002007
:10B0700050B900BF502080F31188BFF34F8FBFF34A
:10B080006F8F00BF00BFFEE700F062F908B90598B6
:10B0900008B9012000E0002050B900BF502080F323
:10B0A0001188BFF34F8FBFF36F8F00BF00BFFEE764
:10B0B00000BFFFF799FAA76BF7B131462046FEF7BC
:10B0C0005BFD781EA063206908B9012000E0002024
:10B0D00060B904F1100000F045FA38B14FF080502B
:10B0E0002F490860BFF34F8FBFF36F8FFFF7A6FAAA
:10B0F000012006B0BDE8F081059818B9FFF79EFA67
:10B100000020F6E7B8F1000F04D101A8FFF7C0FB5B
:10B110004FF00108FFF792FAFFF764FCFFF764FABB
:10B1200094F94400401C10B9002084F8440094F9BC
:10B130004500401C10B9002084F84500FFF77EFA56
:10B1400005A901A800F02EF8F0B92046FEF7FEFE92
:10B15000A0B104F124000599FFF7ACFB2046FFF7EE
:10B16000E6F800F04BFA0028A3D14FF080500C49CC
:10B170000860BFF34F8FBFF36F8F9AE72046FFF74A
:10B18000D6F800F03BFA94E72046FFF7D0F800F03D
:10B1900035FA2046FEF7DAFE00288AD00020A8E71C
:10B1A00004ED00E070B505460C4655B900BF5020CF
:10B1B00080F31188BFF34F8FBFF36F8F00BF00BFC5
:10B1C000FEE754B900BF502080F31188BFF34F8FC2
:10B1D000BFF36F8F00BF00BFFEE7FFF705FA12480D
:10B1E00002686868131A2068401C08B9002617E036
:10B1F0000E4928680968884204D06868904201D8DE
:10B2000001260DE02068984207D92068C01A206006
:10B210002846FFF73DFB002602E0002020600126C3
:10B22000FFF70CFA304670BD280000203C000020DB
:10B230002DE9FF4F85B0804689461746DDE912AB00
:10B24000B800FFF7B3F8064656B15C20FFF7AEF83A
:10B2500004460CB1266304E03046FFF70DFA00E027
:10B2600000248CB1002084F85900CDE900ABCDE971
:10B2700002403A4649464046089BFEF774FD204688
:10B28000FEF7C0FB012501E04FF0FF35284609B06D
:10B29000BDE8F08F2DE9F04F85B00746884691460E
:10B2A0009A46DDE90EB6109C0EB1012000E00020A8
:10B2B00050B900BF502080F31188BFF34F8FBFF308
:10B2C0006F8F00BF00BFFEE70CB1012000E000203F
:10B2D00050B900BF502080F31188BFF34F8FBFF3E8
:10B2E0006F8F00BF00BFFEE75C20039003985C28CF
:10B2F00001D1012000E0002050B900BF502080F3B0
:10B300001188BFF34F8FBFF36F8F00BF00BFFEE701
:10B3100000BFB4B1AEB125462C462E63022085F89D
:10B320005900002004A953464A46CDE900B1CDE9B1
:10B33000025041463846FEF716FD2846FEF762FBEE
:10B3400001E000200490049805B0BDE8F08F0000F3
:10B350000549096809B9012005E00449096809B9E6
:10B36000022000E000207047300000204C00002048
:10B370000149086870470000280000202DE9F041CD
:10B380004FF000084348006800287BD1424800681D
:10B39000451C4148056015BB40480068006808B975
:10B3A000012000E0002050B900BF502080F3118838
:10B3B000BFF34F8FBFF36F8F00BF00BFFEE737486B
:10B3C00007683748006835490860354807603548E0
:10B3D0000068401C33490860FEF7FAFE00BF32489F
:10B3E000006885423BD300BF2C480068006808B95C
:10B3F000012000E0002020B14FF0FF302A49086012
:10B400002CE026480068C068C4686668B54202D26D
:10B410002548066022E0201DFFF784F8A06A18B1D5
:10B4200004F11800FFF77EF82049E06A09688842B5
:10B4300002D91E49E06A0860E16A01EB81011C4AF9
:10B4400002EB8100211DFFF7C3F81A49E06A096881
:10B45000C96A8842C8D34FF00108C5E700BF154844
:10B460000068C06A00EB8000114951F820000128F3
:10B4700001D94FF001081048006808B14FF00108E9
:10B4800005E0FFE70D480068401C0C490860404695
:10B49000BDE8F0814C0000202800002018000020AA
:10B4A0001C0000203C000020440000202C00002054
:10B4B000600100201400002038000020340000202B
:10B4C00070B505462C460026002D43D02248006862
:10B4D000844201D1012000E0002050B900BF50207B
:10B4E00080F31188BFF34F8FBFF36F8F00BF00BF92
:10B4F000FEE7206D50B900BF502080F31188BFF3E4
:10B500004F8FBFF36F8F00BF00BFFEE7206D401E5F
:10B510002065E16CE06A88421CD0206DD0B9201D06
:10B52000FFF700F8E06CE062E06AC0F13800A0616B
:10B530000A49E06A0968884202D90849E06A086055
:10B54000E16A01EB8101064A02EB8100211DFFF750
:10B550003FF80126304670BD140000202C0000206A
:10B560006001002070B50646F068C46854B900BF99
:10B57000502080F31188BFF34F8FBFF36F8F00BF50
:10B5800000BFFEE704F11800FEF7CCFF1548006885
:10B59000A0B9201DFEF7C6FF1349E06A096888427A
:10B5A00002D91149E06A0860E16A01EB81010F4AA2
:10B5B00002EB8100211DFFF70BF804E004F11801F4
:10B5C0000B48FFF705F80B49E06A0968C96A884229
:10B5D00004D9012501200849086000E0002528461B
:10B5E00070BD00004C0000202C00002060010020F5
:10B5F000E8050020140000203800002070B5002469
:10B6000000263648006850B900BF502080F31188EA
:10B61000BFF34F8FBFF36F8F00BF00BFFEE7FEF792
:10B62000E3FF2E480068401E2C4908600846006869
:10B6300000284ED12A48006800284AD023E0294833
:10B64000C068C46804F11800FEF76CFF201DFEF707
:10B6500069FF2549E06A0968884202D92249E06AFF
:10B660000860E16A01EB8101204A02EB8100211DA3
:10B67000FEF7AEFF1E49E06A0968C96A884202D334
:10B6800001201C4908601748006808B9012000E043
:10B6900000200028D3D00CB1FEF79AFD16480568AB
:10B6A00065B100BFFFF76AFE10B1012011490860C3
:10B6B0006D1E002DF6D100200F4908600D4800686E
:10B6C00038B1012630070D490860BFF34F8FBFF333
:10B6D0006F8FFEF7B3FF304670BD00004C000020B6
:10B6E00024000020E80500202C000020600100203C
:10B6F00014000020380000203400002004ED00E099
:10B7000010B586B00024FEF7D9F916480068D0B10C
:10B7100000200590049003AA04A905A8FEF722FFC3
:10B720000222DDE904100023CDE9002102900EA1E0
:10B730000F48039AFFF7AEFD0E49086008460068FF
:10B7400000B1012400BF54B900BF502080F311881C
:10B75000BFF34F8FBFF36F8F00BF00BFFEE72046E0
:10B7600006B010BD58000020546D7220537663005F
:10B7700015A300085C0000202DE9FF4704460D4694
:10B7800016461F46DDF830804FF0000954B900BF5F
:10B79000502080F31188BFF34F8FBFF36F8F00BF2E
:10B7A00000BFFEE71448006810B3009501960294AC
:10B7B000062D15DAFFF7CCFD022808D100234246FA
:10B7C00069460D480068FFF7E7FA814610E000235C
:10B7D0001A46694608480068FFF7DEFA814607E026
:10B7E00000233A46694604480068FFF7A9FB8146F2
:10B7F000484604B0BDE8F0875800002038B800087B
:10B800000000000000000000000000000000000038
:10B81000000200001800000000000000000000000E
:10B8200000000000000000000102030406070809F0
:10B83000000000000102030464656661756C7454C5
:10B8400061736B0064B800080000002094000000E1
:10B85000E6970008F8B8000894000020644D000046
:10B86000F697000800000000000000001000000033
:10B87000010000000024F4000000000000000000AF
:10B8800000000000000000000000000000000000B8
:10B8900000000000000000000000000000000000A8
:10B8A0000000000000000000000000000000000098
:10B8B0000000000000000000000000000000000088
:10B8C0000000000000000000000000000000000078
:10B8D0000000000000000000000000000000000068
:10B8E000000000000000000000000000AAAAAAAAB0
:08B8F000000000000000000050
:0400000508008199D5
:00000001FF
