:020000040800F2
:1000000060040020B10100086D1000085B0F0008BB
:1000100069100008BD020008031400080000000079
:100020000000000000000000000000007310000845
:10003000C1020008000000007110000875100008DF
:10004000CB010008CB010008CB010008CB01000860
:10005000CB010008CB010008CB010008CB01000850
:10006000CB010008CB010008CB010008CB01000840
:10007000CB010008CB010008CB010008CB01000830
:10008000CB010008CB010008CB01000800000000F4
:10009000000000000000000000000000CB0100088C
:1000A000CB010008CB010008CB010008CB01000800
:1000B000CB010008CB010008CB010008CB010008F0
:1000C000CB010008CB010008CB010008CB010008E0
:1000D000CB010008CB010008CB01000800000000A4
:1000E000CB010008CB010008CB0100080000000094
:1000F000000000000000000000000000CB0100082C
:1001000000000000CB010008CB010008CB01000873
:1001100000000000000000000000000000000000DF
:10012000CB010008CB010008CB010008CB0100087F
:10013000CB010008000000000000000000000000EB
:10014000000000000000000000000000CB010008DB
:10015000CB010008CB010008CB010008CB0100084F
:10016000CB010008CB0100080000000000000000E7
:10017000000000000000000000000000000000007F
:1001800000000000CB01000800000000000000009B
:10019000CB010008CB010008DFF810D000F07CF89C
:1001A00000480047AD140008AFF300806004002051
:1001B0000648804706480047FEE7FEE7FEE7FEE701
:1001C000FEE7FEE7FEE7FEE7FEE7FEE73111000887
:1001D000990100082DE9F05F0546002092469B46F4
:1001E00088460646814640241BE02846414647464D
:1001F000224600F041F853465A46C01A914110D3A6
:1002000011461846224600F028F82D1A67EB01081F
:100210004F4622460120002100F01FF817EB00098D
:100220004E41201EA4F10104DFDC484631462A4637
:100230004346BDE8F09FD2B201E000F8012B491E11
:10024000FBD270470022F6E710B513460A46044673
:100250001946FFF7F0FF204610BD202A04DB203AA4
:1002600000FA02F1002070479140C2F1200320FA09
:1002700003F3194390407047202A04DB203A21FA07
:1002800002F00021704721FA02F3D040C2F12002AF
:100290009140084319467047064C074D06E0E06858
:1002A00040F0010394E8070098471034AC42F6D3BD
:1002B000FFF776FFEC1400080C15000800BFFEE7FE
:1002C0007047000000200249086072B670470000C5
:1002D0003C0E474272B600BFFEE70000F8B502468A
:1002E0000B460025002400200021C7E0012606FA65
:1002F00001F51E6806EA0504AC4274D11E7906F0C9
:100300000306012E04D01E7906F00306022E13D137
:1003100090684F000326BE40B0434F00DE68BE40E9
:1003200030439060506801268E40B0431E79C6F37A
:1003300000168E40304350601E7906F00306032EEF
:1003400009D0D0684F000326BE40B0434F009E68DE
:10035000BE403043D0601E7906F00306022E13D152
:10036000CF0802F1200656F827004E07F70E0F2699
:10037000BE40B0434F07FF0E1E69BE403043CF085A
:1003800002F1200646F8270010684F000326BE4001
:10039000B0431E7906F003064F00BE4030431060A4
:1003A0005E6806F44036002E67D000BF0026009637
:1003B000344E366846F48046324F3E603E463668DC
:1003C00006F48046009600BF00BF2F4E8F0856F8F7
:1003D00027008E07370F0F26BE40B0432B4EB24288
:1003E00002D1002615E048E0294EB24201D1012693
:1003F0000FE0284EB24201D102260AE0264EB24258
:1004000001D1032605E0254EB24201D1042600E0C9
:1004100007268F073F0FBE4030431B4E8F0846F81C
:1004200027001F4E3068A0435E6806F4801606B1B0
:1004300020431B4E3060361D3068A0435E6806F4D2
:10044000001606B12043164E361D3060144E361F7E
:100450003068A0435E6806F4003606B12043104EB3
:10046000361F3060361F3068A0435E6806F4803661
:1004700006B120430A4E083E3060491C1029FFF4A3
:1004800035AFF8BD44380240083801400000024052
:100490000004024000080240000C0240001002402C
:1004A000083C014001480068704700000800002037
:1004B0000348006803490978084401490860704707
:1004C000080000201000002010B50D48006840F41E
:1004D00000700B4908600846006840F480600860BE
:1004E0000846006840F480700860032000F092F82D
:1004F0000F2000F007F800F02BF8002010BD0000DE
:10050000003C024070B504460E4800784FF47A7102
:10051000B1FBF0F00C490968B1FBF0F5284600F09A
:100520001BFC08B1012070BD102C07D2002221460F
:10053000501E00F031F80548046001E00120F2E7A8
:100540000020F0E710000020140000200C00002024
:1005500008B500BF002000900E48006840F48040BD
:100560000C4908600846006800F48040009000BF15
:1005700000BF00BF00200090081F006840F08050BE
:10058000091F08600846006800F08050009000BF16
:1005900000BF08BD443802402DE9F05F80460D469B
:1005A0001646002700F038FF074639462A463346EC
:1005B00001F00700C0F1070ABAF1040F02D94FF0A9
:1005C000040A01E0C0F1070AD14600F1040ABAF1B9
:1005D000070F02D24FF0000A01E0A0F1030AD4464F
:1005E0004FF0010A0AFA09FAAAF1010A0AEA020A14
:1005F0000AFA0CFA4FF0010B0BFA0CFBABF1010BF2
:100600000BEA030B4AEA0B042146404600F00CFFBC
:10061000BDE8F09F00BF00F00702064B19684FF6D7
:10062000FF031940044B0B4343EA0221014B1960BD
:1006300000BF70470CED00E00000FA0570B50446FD
:100640000D460CB9012070BD5848006800F0070045
:10065000A84209D255490D700846006800F007000D
:10066000A84201D00120EEE7207800F00200022825
:100670001DD1207800F00400042805D14C48006802
:1006800040F4E0504A490860207800F0080008284B
:1006900005D14748006840F4604045490860444837
:1006A000006820F0F000A168084341490860207804
:1006B00000F00100A8B36068012807D13C48083861
:1006C0000068C0F34040B8B90120BCE76068022868
:1006D00002D06068032807D1354808380068C0F3A5
:1006E000406048B90120AEE7314808380068C0F3DF
:1006F000400008B90120A6E72D48006820F003005B
:10070000616808432A490860FFF7CCFE064609E005
:10071000FFF7C8FE801B41F28831884202D90320CE
:1007200091E707E02248006800F00C006168B0EB38
:10073000810FEDD11D48006800F00700A84209D9DB
:100740001A490D700846006800F00700A84201D061
:10075000012078E7207800F00400042807D114482D
:10076000006820F4E050E1680843114908602078EF
:1007700000F00800082808D10D48006820F4604007
:10078000216940EAC1000A49086000F03FF80849C1
:100790000968C1F30311074A515CC8400649086063
:1007A00006480068FFF7AEFE00204CE7003C024020
:1007B00008380240D4140008140000200C00002067
:1007C00001480068704700001400002000B5FFF7E2
:1007D000F7FF04490968C1F38221034A515CC8400C
:1007E00000BD000008380240E414000800B5FFF71F
:1007F000E7FF04490968C1F34231034A515CC8402C
:1008000000BD000008380240E41400082DE9F0475C
:10081000002400250026A1462548006800F00C00B1
:1008200020B1042805D008283AD105E0DFF88490EB
:1008300039E0DFF8849036E01D48001F006800F0C2
:100840003F041B48001F006800F4800078B11A487C
:100850001749091F0968C1F38811A0FB01700146FF
:10086000224600233846FFF7B5FC05460EE0114846
:100870000F49091F0968C1F38811A0FB01700146E7
:10088000224600233846FFF7A5FC05460848001F0E
:100890000068C0F30140401C4600B5FBF6F902E0D9
:1008A000DFF8109000BF00BF4846BDE8F0870000A9
:1008B000083802400024F40040787D01F8B5044671
:1008C0000CB90120F8BD207800F00100002874D098
:1008D000F948006800F00C0004280DD0F6480068C4
:1008E00000F00C00082813D1F348001F006800F442
:1008F0008000B0F5800F0BD1EF4808380068C0F3D6
:100900004040002859D06068002856D10120D9E71E
:1009100000BF6068B0F5803F08D1E748083800683C
:1009200040F48030E449083908601EE06068B0F5A2
:10093000A02F0DD1E0480838006840F48020DE493F
:10094000083908600846006840F4803008600CE010
:10095000D9480838006820F48030D7490839086041
:100960000846006820F48020086000BF606890B1ED
:10097000FFF798FD054606E0FFF794FD401B64284D
:1009800001D903209EE7CC4808380068C0F34040F6
:100990000028F1D011E0FFF785FD054606E0FFF7DE
:1009A00081FD401B642801D903208BE7C248083829
:1009B0000068C0F340400028F1D1207800F0020028
:1009C00002285FD1BC48006800F00C0058B1BA485A
:1009D000006800F00C0008281CD1B748001F006810
:1009E00000F48000B0B9B44808380068C0F3400093
:1009F00020B1E068012801D0012063E7AE48083843
:100A0000006820F0F800216940EAC100AA490839CD
:100A1000086037E0E06800B30120A8490860FFF7EC
:100A200041FD054606E0FFF73DFD401B022801D9C8
:100A3000032047E7A04808380068C0F340000028BA
:100A4000F1D09D480838006820F0F800216940EA9C
:100A5000C10099490839086014E0002097490860EE
:100A6000FFF720FD054606E0FFF71CFD401B0228AE
:100A700001D9032026E7904808380068C0F34000F9
:100A80000028F1D1207800F0080008282CD16069F6
:100A9000A8B101208A490860FFF704FD054606E079
:100AA000FFF700FD401B022801D903200AE7824816
:100AB0006C300068C0F340000028F1D014E0002042
:100AC0007F490860FFF7EEFC054606E0FFF7EAFC09
:100AD000401B022801D90320F4E677486C300068F7
:100AE000C0F340000028F1D1207800F00400042871
:100AF00070D1002770483830006800F0805090B9FD
:100B000000BF002000906C483830006840F08050F2
:100B10006949383108600846006800F0805000904C
:100B200000BF00BF01276748006800F48070B0B9BB
:100B30006448006840F4807062490860FFF7B2FCC6
:100B4000054606E0FFF7AEFC401B022801D9032052
:100B5000B8E65C48006800F480700028F2D000BF5E
:100B6000A068012808D154486830006840F00100AE
:100B70005149683108601DE0A06805280DD14E4834
:100B80006830006840F004004B496831086008464E
:100B9000006840F0010008600CE0474868300068D9
:100BA00020F001004449683108600846006820F0E0
:100BB0000400086000BFA068A8B1FFF773FC0546F9
:100BC00009E0FFF76FFC401B41F28831884202D9EF
:100BD000032077E626E0384868300068C0F340001C
:100BE0000028EED013E0FFF75DFC054608E0FFF7B4
:100BF00059FC401B41F28831884201D9032061E64B
:100C00002D4868300068C0F340000028EFD1012F64
:100C100007D129483830006820F080502649383103
:100C2000086000BFA069002845D02348006800F094
:100C30000C0008285DD0A069022845D100201F497A
:100C40000866FFF72FFC054606E0FFF72BFC401B6C
:100C5000022801D9032035E6174808380068C0F398
:100C600040600028F1D1D4E907010843616A40EAF5
:100C700081110122A06AC2EB500041EA00412C2000
:100C8000005D41EA00600C49091F086001200B4922
:100C90000866FFF707FC054606E0FFF703FC401B6C
:100CA000022801D903200DE6034808380068C0F384
:100CB00040600028F1D049E0083802400000474277
:100CC000800E474200700040002021490866FFF76F
:100CD000E9FB054606E0FFF7E5FB401B022801D9CA
:100CE0000320EFE51B480068C0F340600028F2D104
:100CF0002CE0A069012800D1E4E51648001D066833
:100D0000A069012820D006F48001E06981421BD14E
:100D100006F03F01206A814216D147F6C07030408C
:100D2000616AB0EB811F0FD106F440310122A06A45
:100D3000C2EB5000B1EB004F06D106F070612C20E1
:100D4000005DB1EB006F01D00120BBE50020B9E5EB
:100D5000000047420038024070B504462546681E30
:100D6000B0F1807F01D301200FE0681E4FF0E02139
:100D700048610F214FF0FF3000F056FB00204FF08C
:100D8000E021886107200861002070BD10B504468D
:100D90000CB9012010BDA06900B100E000BF94F8BB
:100DA0003D0028B9002084F83C00204600F028F8D7
:100DB000242084F83D002068C06820F40050216899
:100DC000C860204600F0BEF92068006920F4904019
:100DD000216808612068406920F02A002168486184
:100DE0002068C06840F400502168C860002020647A
:100DF000202084F83D0084F83E000020CAE700006F
:100E000010B586B00446142101A8FFF71BFA1B4950
:100E10002068884230D100BF002000901848006848
:100E200040F01000164908600846006800F0100005
:100E3000009000BF00BF00BF002000901048143891
:100E4000006840F001000E49143908600846006847
:100E500000F00100009000BF00BF4FF4C06001909F
:100E600002200290002003900320049007200590A8
:100E700001A90448FFF732FA06B010BD0010014086
:100E800044380240000002402DE9F84F04460E4667
:100E9000174699464FF0000A94F83D0020285AD191
:100EA00006B117B90120BDE8F88F00BF94F83C00E7
:100EB000012801D10220F6E7012084F83C0000BFA0
:100EC00000202064212084F83D00FFF7EBFA8246E1
:100ED000A784E784A068B0F5805F04D1206910B9C9
:100EE0000025B04602E035464FF0000800BF002064
:100EF00084F83C0000BF1BE05346002280212046BE
:100F0000CDF8009000F034FA08B10320CBE745B9E2
:100F1000B8F80000C0F308002168486008F1020832
:100F200003E02878216848606D1CE08C401EE08456
:100F3000E08C0028E0D15346002240212046CDF825
:100F4000009000F015FA08B10320ACE7202084F8E7
:100F50003D000020A7E70220A5E700BFFEE7000054
:100F600070B510480668002404E00FA000F04CFAA9
:100F7000601C84B241F288308442F6DB0948006884
:100F800010490840B0F1005F0BD1064845680E4893
:100F900005600449086880F3088800BF0A480068B3
:100FA000804770BD0090010820426F6F746C6F61C4
:100FB0006465722072756E6E696E672021200D0A5D
:100FC000000000000000FE2F0000002008B500BF58
:100FD000002000901548006840F0040013490860A4
:100FE0000846006800F00400009000BF00BF00BF8A
:100FF000002000900846006840F080000860084625
:10100000006800F08000009000BF00BF00BF00201B
:1010100000900846006840F001000860084600683B
:1010200000F00100009000BF00BF08BD3038024052
:1010300010B50B480B4908604FF4E13048600021BF
:1010400008488160C16001610C214161002181611A
:10105000C161FFF79BFE08B1FFF73CF910BD00002E
:10106000001001401C00002000BFFEE700BFFEE7AB
:101070007047704710B5FFF71BFA10BD00B593B06D
:10108000302107A8FFF7DEF8142102A8FFF7DAF8ED
:1010900000BF002001902448006840F080502249A1
:1010A00008600846006800F08050019000BF00BF53
:1010B00000BF002001901D48006840F440401B49DB
:1010C00008600846006800F44040019000BF00BF7F
:1010D0000220079001200A9010200B9002200D9012
:1010E00000210E9108210F9164211091022111918C
:1010F0000421129107A8FFF7E1FB08B1FFF7EAF816
:101100000F20029002200390002004904FF48050A2
:10111000059000200690032102A8FFF78FFA08B17E
:10112000FFF7D8F813B000BD40380240007000400F
:101130000348006840F470000149086070470000EF
:1011400088ED00E02DE9F84F04462068006920F49E
:101150004050E1680843216808612169A06808439C
:1011600061690843E169084300902068C06849F25A
:101170000C618843009908432168C8602068406971
:1011800020F44070A16908432168486176492068CD
:10119000884203D075492068884203D1FFF726FBB7
:1011A000814602E0FFF712FB8146E069B0F5004F8F
:1011B0006CD102206168A0FB015003461920A9FBF5
:1011C000007001462A463846FFF704F86421B0FB58
:1011D000F1F04FEA001A02206168A0FB01510B46B2
:1011E0001920A9FB00712A463846FEF7F3FF834613
:1011F00002206168A0FB015003461920A9FB007181
:101200002A463846FEF7E6FF6421B0FBF1F000EB1A
:10121000C00101EB0010ABEB8000322101EBC000FC
:101220006421B0FBF1F000F0F8000AEB400A022064
:101230006168A0FB015003461920A9FB007001461C
:101240002A463846FEF7C6FF834602206168A0FBA7
:10125000015003461920A9FB00712A463846FEF7C3
:10126000B9FF6421B0FBF1F000EBC00101EB00100D
:10127000ABEB8000322101EBC0006421B0FBF1F048
:1012800000F007005044216888606AE0042061682B
:10129000A0FB015003461920A9FB007001462A4615
:1012A0003846FEF797FF824604206168A0FB015094
:1012B00003461920A9FB007001462A463846FEF76E
:1012C00089FF6421B0FBF1F000EBC00101EB0010DD
:1012D000AAEB8000322101EB00106421B0FBF1F099
:1012E00000F0F00A04206168A0FB01700346192099
:1012F000A9FB00513A462846FEF76CFF6421B0FB7B
:10130000F1F00AEB001A04206168A0FB01510B46C2
:101310001920A9FB00712A463846FEF75BFF834679
:1013200004206168A0FB015003461920A9FB00704E
:1013300001462A463846FEF74DFF6421B0FBF1F026
:1013400000EBC00101EB0010ABEB8000322101EBA0
:1013500000106421B0FBF1F000F00F005044216850
:101360008860BDE8F88F00000010014000140140C3
:101370002DE9F04104460D4617469846069E34E096
:10138000701C88B32EB1FFF78DF8A0EB0800B042B7
:101390002BD900BF00BF21680C3151E8001F21F498
:1013A000D07021680C3141E80002002AF3D100BF5F
:1013B00000BF00BF2168143151E8001F21F0010077
:1013C0002168143141E80002002AF3D100BF202037
:1013D00084F83D0084F83E0000BF002084F83C0003
:1013E00000BF0320BDE8F081FFE7206800682840C7
:1013F000A84201D1012000E00020B842C0D0002066
:10140000F0E700BFFEE70000014A024900F02FB8F4
:10141000911400081800002002480068C0F3022060
:10142000704700000CED00E010B5002804DB0A074F
:10143000130E054A135406E00A07140E034A00F07F
:101440000F031B1FD45410BD00E400E018ED00E0B2
:1014500002E008C8121F08C1002AFAD1704770477D
:10146000002001E001C1121F002AFBD170472DE9C5
:10147000F04116460F460446002503E03946B047C2
:10148000641C6D1C20780028F8D12846BDE8F08146
:1014900013B50C464FF0FF33012269460248FFF7AF
:1014A000F3FC00981CBD00001C0000204FF0004021
:1014B00007490860FFF708F8FFF7E0FDFFF786FD32
:1014C000FFF7B6FDFEF7FEFEFFF74AFD00BFFEE7A1
:1014D00008ED00E00000000000000000010203042D
:1014E0000607080900000000010203040C150008AB
:1014F000000000201C0000005014000828150008FF
:101500001C000020440400006014000800000000DB
:1015100000000000000000001000000001000000BA
:081520000024F40000000000AB
:040000050800019955
:00000001FF
