:020000040800F2
:100000007806002039020008470D0008C10C0008DE
:10001000450D00082F040008DD0D00080000000059
:100020000000000000000000000000004B0D000870
:100030003104000800000000490D00084D0D0008C3
:10004000530200085302000853020008530200083C
:10005000530200085302000853020008530200082C
:10006000530200085302000853020008530200081C
:10007000530200085302000853020008530200080C
:100080005302000853020008530200080000000059
:100090000000000000000000000000005302000803
:1000A00053020008530200085302000853020008DC
:1000B00053020008530200085302000853020008CC
:1000C00053020008530200085302000853020008BC
:1000D0005302000853020008530200080000000009
:1000E00053020008530200085302000800000000F9
:1000F00000000000000000000000000053020008A3
:1001000000000000530200085302000853020008D8
:1001100000000000000000000000000000000000DF
:10012000530200085302000853020008530200085B
:100130005302000800000000000000000000000062
:100140000000000000000000000000005302000852
:10015000530200085302000853020008530200082B
:1001600053020008530200080000000000000000D5
:10017000000000000000000000000000000000007F
:100180000000000053020008000000000000000012
:10019000530200085302000800F002F800F03CF897
:1001A0000AA090E8000C82448344AAF10107DA45D2
:1001B00001D100F031F8AFF2090EBAE80F0013F0E8
:1001C000010F18BFFB1A43F001031847E80C0000A9
:1001D000080D0000103A24BF78C878C1FAD8520739
:1001E00024BF30C830C144BF04680C6070470000B1
:1001F0000023002400250026103A28BF78C1FBD830
:10020000520728BF30C148BF0B6070471FB500F0D0
:100210003BFE1FBD10B510BD00F0CFF81146FFF733
:10022000F5FF00F0EDFD00F0EDF803B4FFF7F2FF8D
:1002300003BC00F0F5F80000094880470948004772
:10024000FEE7FEE7FEE7FEE7FEE7FEE7FEE7FEE786
:10025000FEE7FEE704480549054A064B70470000E3
:10026000CD0D0008990100087800002078060020D4
:10027000780200207802002053EA020C00F0698026
:100280002DE9F04B4FF00006002B1FBFB3FA83F5AA
:1002900003FA05F424FA05F65E4012BF1643B2FADB
:1002A00082F502FA05F4C5F120051EBF22FA05FC0D
:1002B00044EA0C04203556EA044C4FEA144418BFB3
:1002C000641C4FF000084FF00009904271EB030CE2
:1002D00039D3002919BFB1FA81F701FA07F6B0FA4C
:1002E00080F700FA07F6C7F120071EBF20FA07FCC7
:1002F00046EA0C062037B6FBF4FCA7EB0507103FD7
:1003000007F01F0BCBF120060CFA0BFB2CFA06F6BC
:1003100044BFB3460026202FA4BF5E464FF0000B1B
:100320005BEA060C08BF4FF0010B19EB0B09ABFBA6
:10033000027C48EB0608C01B06FB02CC0BFB03CC7F
:1003400071EB0C01C1E70B46024641464846BDE849
:10035000F08B13B54FF000004FF00001AFF30080B9
:10036000BDE81C4070474FF0000200B513469446AC
:100370009646203922BFA0E80C50A0E80C50B1F1FD
:100380002001BFF4F7AF090728BFA0E80C5048BF11
:100390000CC05DF804EB890028BF40F8042B08BFAF
:1003A000704748BF20F8022B11F0804F18BF00F8AB
:1003B000012B7047704770477047754600F02CF866
:1003C000AE4605006946534620F00700854618B042
:1003D00020B5FFF73FFFBDE820404FF000064FF08B
:1003E00000074FF000084FF0000B21F00701AC466A
:1003F000ACE8C009ACE8C009ACE8C009ACE8C00989
:100400008D46704710B50446AFF300802046BDE826
:100410001040FFF70ABF000000487047140000209A
:1004200001491820ABBEFEE7260002007047FEE738
:10043000704710B58188006800F008F908B1032002
:1004400010BD022010BD000070B5044600F010F988
:100450000546601C02D004480078044400F008F906
:10046000401BA042FAD370BD040000202DE9F84FD4
:10047000DFF8B8A10022012403254FF00F090AF18B
:10048000040BAAF1040E00BF0B6804FA02F6334015
:10049000B34273D10F7907F00307012F01D0022F68
:1004A00016D187684FEA420805FA08FC27EA0C07CC
:1004B000D1F80CC00CFA08FC4CEA070CC0F808C0D4
:1004C0004768B7430E79C6F3001696403E43466030
:1004D0000E79F643B6070DD0C768560005FA06FC3C
:1004E00027EA0C07D1F808C00CFA06FC4CEA070C06
:1004F000C0F80CC00E7906F00306022E10D1D60803
:1005000000EB8608D8F8206057074FEAD76C09FA45
:100510000CF7BE430F6907FA0CF73743C8F8207091
:1005200006684FEA420C05FA0CF7BE430F7907F054
:10053000030707FA0CF7374307604E6816F4403F8D
:100540006DD03B4E376847F480473760366822F0FD
:10055000030706F480460096364E07EB060CDCF8DF
:10056000086897073F0F09FA07F826EA0806DFF838
:10057000C880404503D14FF000081EE04FE0DFF88F
:10058000BC80404502D14FF0010816E0DFF8B08092
:10059000404502D14FF002080FE0DFF8A880404547
:1005A00002D14FF0030808E0DFF89C80404502D1FB
:1005B0004FF0040801E04FF0070808FA07F848EA8E
:1005C0000608CCF80888DAF800605746D1F804C06D
:1005D0009E435FEACC2C00D51E433E60DBF80060F2
:1005E0005F46D1F804C09E435FEA8C2C00D51E43C1
:1005F0003E60DEF800607746D1F804C09E435FEAB3
:100600008C3C00D51E433E60084F083F3E68D1F841
:1006100004C09E435FEACC3C00D51E433E60521CA2
:10062000102AFFF431AFBDE8F88F0000083C01400C
:100630004438024000300140000002400004024003
:1006400000080240000C024000100240006908400F
:1006500000D001207047426921EA02030A4043EAC0
:100660000241816170470AB1816170470904FBE76B
:10067000014880687047000004000020024881683B
:100680000278114481607047040000200B4810B5C7
:10069000016841F400710160016841F4806101600A
:1006A000016841F480710160032000F061F80F20BF
:1006B00000F006F800F024F8002010BD003C0240D5
:1006C00070B50D4D04464FF47A712878B1FBF0F007
:1006D0000A490968B1FBF0F000F0DEFA48B9102CC5
:1006E00007D200222146501E00F022F800206C6044
:1006F00070BD012070BD000004000020100000202B
:100700000A4808B5016841F480410160006800F4BE
:10071000804000900548001F016841F08051016051
:10072000006800F08050009008BD0000443802408E
:10073000F0B40E4B1B680C46C3F30223C3F107054C
:10074000042D00D90425191D072901D2002300E03A
:10075000DB1E012606FA05F1491E214099409E4004
:10076000761E16403143F0BC00F039BB0CED00E0C2
:10077000064900F0070208684FF6FF03184040EAF8
:100780000220034A10430860704700000CED00E0AF
:100790000000FA052DE9F0470E46050065D0DFF8A8
:1007A0001481D8F80000F7B200F00700B04207D279
:1007B00088F80070D8F8000000F00700B04254D16B
:1007C00028683D4C810712D5400703D5206840F4C6
:1007D000E05020602878000703D5206840F460408E
:1007E00020602068A96820F0F00008432060287885
:1007F000C0072DD0304968680839012812D0022876
:1008000013D0032811D00968890700292DDA21683F
:1008100021F0030101432160FFF72AFF814641F2E5
:10082000883A0EE009688903EFE709688901ECE777
:10083000FFF71EFFA0EB0901514502D90320BDE8D7
:10084000F0872068696800F00C00B0EB810FEFD1F1
:10085000D8F80010404601F00701B14207D90770EF
:10086000006800F00700B04201D00120E7E72878D7
:10087000400705D52068E96820F4E050084320606F
:100880002878000706D52068296920F4604040EAEE
:10089000C100206000F018F82168084AC1F3031174
:1008A000515CC8400649086006480068FFF708FF29
:1008B0000020C4E7003C024008380240A40E0008B3
:1008C0001000002008000020154810B5006810F046
:1008D0000C02144813D01449042A0FD0082A0ED150
:1008E0000F4C241F2268236802F03F025B0207D5E9
:1008F0002068C0F38810A0FB010106E0084610BD87
:100900002168C1F38811A1FB00010023FFF7B4FCAB
:100910002168C1F30141491C4900B0FBF1F010BD51
:10092000083802400024F40040787D012DE9F84F9A
:1009300004006ED02078DFF84C93C007A9F10405BD
:100940004AD009F104000168C1F38101012908D0EE
:100950000068C0F3810002280AD1D9F800004002E3
:1009600006D52868800337D560680028E1D033E0D9
:100970006068B0F5803F10D0B0F5A02F286810D087
:1009800020F480302860286820F480202860606887
:10099000A8B1FFF76DFE06460DE0286840F48030F0
:1009A000F4E740F480202860F7E700BFFFF760FE1F
:1009B000801B642873D828688003F7D50CE0FFF704
:1009C00057FE064605E000BFFFF752FE801B642875
:1009D000F0D828688003F7D42078DFF8AC8280074D
:1009E0004FF0000A3ED5A748001D016811F00C0F1A
:1009F00008D00068C0F3810002280BD1D9F80000AC
:100A0000400207D42868800716D5E068012800D185
:100A100012E033E1E068B8B10120C8F80000FFF748
:100A200027FE064605E000BFFFF722FE801B0228D6
:100A3000C0D828688007F7D52868216920F0F80019
:100A400040EAC10028600DE0C8F800A0FFF710FEE2
:100A5000064604E0FFF70CFE801B02281FD828681A
:100A60008007F7D42078000722D5864F8748616930
:100A7000703771B101210160FFF7FAFD064604E00D
:100A8000FFF7F6FD801B022809D838688007F7D5E4
:100A90000EE0C0F800A0FFF7EBFD064605E082E09F
:100AA000FFF7E6FD801B02287DD838688007F7D461
:100AB0002078400768D5DFF8CCB100270BF13C0B5C
:100AC000DBF80000C0000BD4DBF8001041F08051CF
:100AD000CBF80010DBF80000012700F080500090F8
:100AE0006B4E3068C00510D4306840F480703060C0
:100AF000FFF7BEFD009005E0FFF7BAFD0099401A30
:100B0000022850D83068C005F6D55E4EA0686C3615
:100B100001280FD00528306810D020F00100306087
:100B2000306820F004003060A068B8B1FFF7A0FD85
:100B300000900FE0306840F00100F4E740F004005E
:100B40003060F7E7FFF794FD0099411A41F28830D1
:100B5000814266D830688007F4D50EE0FFF788FD43
:100B6000009007E0FFF784FD0099411A41F28830B8
:100B7000814256D830688007F4D42FB1DBF80010DA
:100B800021F08051CBF80010A069C8B33D49091D80
:100B90000968C1F3810102294AD00228504607D0D2
:100BA000C8F8600000E03CE0FFF762FD04463BE06F
:100BB0004746C8F86000FFF75BFD064605E000BF4A
:100BC000FFF756FD801B02282BD828688001F7D438
:100BD000D4E907010843A16A2E4A490802EB014102
:100BE000626A41EA8211084394F82C1040EA0161DC
:100BF000C9F8001001203866FFF73AFD044606E008
:100C00003EE000BFFFF734FD001B022809D828682A
:100C10008001F7D534E000BFFFF72AFD001B022852
:100C200002D90320BDE8F88F28688001F4D427E0BA
:100C30000128F7D0D9F80000E26900F48001914260
:100C40001CD1226A00F03F01914217D147F6C071D2
:100C5000626A0140B1EB821F10D1A26A4FF0FF33EC
:100C600000F4403103EB5202B1EB024F06D194F88D
:100C70002C1000F07060B0EB016F01D00120D1E7C3
:100C80000020CFE70438024000004742800E474270
:100C9000007000400000FFFF10B5401EB0F1807FE3
:100CA00001D3012010BD4FF0E02460610F216017D7
:100CB00000F095F80020A06107202061002010BD01
:100CC000FEE7000070B586B014216846FFF74BFBC5
:100CD00019480024016841F004010160016801F035
:100CE00004010591016841F080010160016801F093
:100CF00080010591016841F00101016000680F4E1B
:100D000000F001004FF400550590002229463046BE
:100D1000FFF7A9FC00950125CDE90154694630464D
:100D20000394FFF7A3FBCDE90054694604480295FC
:100D3000FFF79CFB06B070BD30380240000802404F
:100D400000000240FEE7FEE770477047FFF796BCE1
:100D500010B592B030216846FFF705FB14210CA8AE
:100D6000FFF701FB17480024016841F08051016042
:100D7000006800F0805011901348016841F4404130
:100D800001600068069400F4404011900220009039
:100D900001200390102004906846FFF7C7FD08B1BA
:100DA00072B6FEE70F20CDE90C040E940F940021DB
:100DB0000CA81094FFF7EEFC002801D072B6FEE7F5
:100DC00012B010BD40380240007000400248016877
:100DD00041F470010160704788ED00E0FEE709070B
:100DE000090E002804DB00F1E02080F800147047B1
:100DF00000F00F0000F1E02080F8141D70470000A3
:100E00001CB5FFF743FCFFF7A3FFFFF75BFF1A4892
:100E100002250326D0E90210CDE90010DFF85C902E
:100E2000174CDFF860B001274FF000084FF4005A6C
:100E3000207890B1012817D002281AD00328F7D1C2
:100E400001214846FFF702FC0128F1D151465846DE
:100E5000FFF701FC84F80080EAE76846FFF7E9FA4B
:100E60000228E5D12570E3E70A20FFF7EDFA2670A6
:100E7000DEE72770DCE70000940E00080000024067
:100E800000000020000802404FF04070E1EE100A20
:100E900070470000000802400020000000000240EF
:100EA0000100000000000000000000000102030437
:100EB00006070809D40E00080000002014000000F6
:100EC000D4010008E80E00081400002064060000A9
:100ED000F001000800000000010000001000000008
:080EE000000000000024F400F2
:040000050800019955
:00000001FF
