:020000040800F2
:1000000050050020B101000807160008631400081D
:10001000051500088D040008EF1A00080000000014
:10002000000000000000000000000000251600088D
:1000300091040008000000000B160008B11600082B
:10004000CB010008CB010008CB010008CB01000860
:10005000CB010008CB010008CB010008CB01000850
:10006000CB010008CB010008CB010008CB01000840
:10007000CB010008CB010008CB010008CB01000830
:10008000CB010008CB010008CB01000800000000F4
:10009000000000000000000000000000CB0100088C
:1000A000CB010008CB0100087D170008CB01000838
:1000B000CB010008CB010008CB010008CB010008F0
:1000C000CB010008CB010008CB010008CB010008E0
:1000D000CB010008CB010008CB01000800000000A4
:1000E000CB010008CB010008CB0100080000000094
:1000F000000000000000000000000000CB0100082C
:1001000000000000CB010008CB010008CB01000873
:1001100000000000000000000000000000000000DF
:10012000CB010008CB010008CB010008CB0100087F
:10013000CB010008000000000000000000000000EB
:10014000000000000000000000000000CB010008DB
:10015000CB010008CB010008CB010008CB0100084F
:10016000CB010008CB0100080000000000000000E7
:10017000000000000000000000000000000000007F
:1001800000000000CB01000800000000000000009B
:10019000CB010008CB010008DFF810D000F08EF88A
:1001A0000048004701200008AFF300805005002000
:1001B0000648804706480047FEE7FEE7FEE7FEE701
:1001C000FEE7FEE7FEE7FEE7FEE7FEE76917000849
:1001D000990100082DE9F05F0546002092469B46F4
:1001E00088460646814640241BE02846414647464D
:1001F000224600F053F853465A46C01A914110D394
:1002000011461846224600F03AF82D1A67EB01080D
:100210004F4622460120002100F031F817EB00097B
:100220004E41201EA4F10104DFDC484631462A4637
:100230004346BDE8F09F40EA01039B0703D009E075
:1002400008C9121F08C0042AFAD203E011F8013BC2
:1002500000F8013B521EF9D27047D2B201E000F81B
:10026000012B491EFBD270470022F6E710B513465A
:100270000A4604461946FFF7F0FF204610BD202A23
:1002800004DB203A00FA02F1002070479140C2F1ED
:10029000200320FA03F3194390407047202A04DB1F
:1002A000203A21FA02F00021704721FA02F3D040EF
:1002B000C2F120029140084319467047064C074D91
:1002C00006E0E06840F0010394E807009847103426
:1002D000AC42F6D3FFF764FF1C2300083C23000860
:1002E0002DE9F04106460C4617469846B44204D024
:1002F0003A4631462046FFF79EFFA7F1100004441E
:100300003D0912E0204600F071F8012D05D11022C0
:100310004146204601F0EDFB05E0A4F1100110225A
:10032000204601F0E6FB6D1E103C002DEAD1BDE831
:10033000F0812DE9F04105460C4690461E46A54247
:1003400004D0424629462046FFF775FF4FEA1817AA
:100350000AE010223146204601F0CBFB204600F097
:100360006FF826467F1E1034002FF2D1BDE8F081D1
:10037000F8B506461BA000680090102231461A48C6
:10038000FFF759FF184D1035042427E055F8040CE9
:100390002860E11704EB91718910A4EB810199B9F0
:1003A000284601F033F900220421284601F06AF9B9
:1003B00004226946284601F09CFB9DF8000000F0ED
:1003C0006BF88DF8000000E000BFA5F110010422D9
:1003D000284601F08EFB2D1D601CC4B22C2CD5DBF1
:1003E000F8BD000001000000A000002070B5054627
:1003F00010221249284601F07CFB0A241AE0012150
:10040000284601F010F901221021284601F03AF99E
:10041000601E0A4AA03A102303FB00211A46284610
:1004200001F067FB012C03D00121284601F06CF894
:10043000601EC4B2002CE2DC70BD00004001002050
:1004400070B5054610221049284601F052FB0124E0
:1004500017E000221021284601F014F90021284657
:1004600001F0E1F80A2C03D00021284601F04CF8F5
:100470000548102202FB0401284601F03AFB601CEB
:10048000C4B20A2CE5DD70BDA000002000BFFEE76D
:10049000704772B600BFFEE700F0800111B9410657
:1004A000080E03E01B2181EA4001C8B2704700003A
:1004B000F8B502460B460025002400200021C7E0C5
:1004C000012606FA01F51E6806EA0504AC4274D15D
:1004D0001E7906F00306012E04D01E7906F00306ED
:1004E000022E13D190684F000326BE40B0434F0048
:1004F000DE68BE4030439060506801268E40B043B5
:100500001E79C6F300168E40304350601E7906F007
:100510000306032E09D0D0684F000326BE40B04327
:100520004F009E68BE403043D0601E7906F003063F
:10053000022E13D1CF0802F1200656F827004E07ED
:10054000F70E0F26BE40B0434F07FF0E1E69BE4098
:100550003043CF0802F1200646F8270010684F000C
:100560000326BE40B0431E7906F003064F00BE408E
:10057000304310605E6806F44036002E67D000BF3E
:1005800000260096344E366846F48046324F3E6070
:100590003E46366806F48046009600BF00BF2F4EE8
:1005A0008F0856F827008E07370F0F26BE40B0433E
:1005B0002B4EB24202D1002615E048E0294EB2424D
:1005C00001D101260FE0284EB24201D102260AE0F5
:1005D000264EB24201D1032605E0254EB24201D19A
:1005E000042600E007268F073F0FBE4030431B4E16
:1005F0008F0846F827001F4E3068A0435E6806F457
:10060000801606B120431B4E3060361D3068A04373
:100610005E6806F4001606B12043164E361D3060A3
:10062000144E361F3068A0435E6806F4003606B1EB
:100630002043104E361F3060361F3068A0435E687E
:1006400006F4803606B120430A4E083E3060491C4D
:100650001029FFF435AFF8BD443802400838014096
:10066000000002400004024000080240000C02406A
:1006700000100240083C014001480068704700003B
:100680000000002003480068034909780844014934
:1006900008607047000000200800002010B50D48D9
:1006A000006840F400700B4908600846006840F498
:1006B000806008600846006840F48070086003208D
:1006C00000F0CCF80F2000F007F800F055F80020FB
:1006D00010BD0000003C0240F0B587B00446002683
:1006E000002700BF002000901E48006840F48020D2
:1006F0001C4908600846006800F48020009000BF94
:1007000000BF01A902A800F07FF900F0B5F9064684
:100710001548B6FBF0F0471E14481549086040F232
:10072000E7311348C1604760002101618160816148
:1007300000F05AFC054695B90D4800F089FC0546C5
:100740006DB91A2000F03CF8102C07D20022214687
:100750001A2000F045F80748046000E0012528460B
:1007600007B0F0BD4438024040420F00004801404D
:10077000580000200400002008B500BF00200090B1
:100780000E48006840F480400C4908600846006844
:1007900000F48040009000BF00BF00BF0020009028
:1007A000081F006840F08050091F08600846006874
:1007B00000F08050009000BF00BF08BD44380240E8
:1007C00001460846002809DB00F01F0301229A4079
:1007D00043099B0003F1E023C3F8002100BF7047E9
:1007E0002DE9F05F80460D461646002701F0A2F97C
:1007F000074639462A46334601F00700C0F1070A8A
:10080000BAF1040F02D94FF0040A01E0C0F1070A5F
:10081000D14600F1040ABAF1070F02D24FF0000AE4
:1008200001E0A0F1030AD4464FF0010A0AFA09FADE
:10083000AAF1010A0AEA020A0AFA0CFA4FF0010BBD
:100840000BFA0CFBABF1010B0BEA030B4AEA0B04AE
:100850002146404601F076F9BDE8F09F00BF00F068
:100860000702064B19684FF6FF031940044B0B4370
:1008700043EA0221014B196000BF70470CED00E014
:100880000000FA0570B504460D460CB9012070BD94
:100890005848006800F00700A84209D255490D7079
:1008A0000846006800F00700A84201D00120EEE7EA
:1008B000207800F0020002281DD1207800F004000A
:1008C000042805D14C48006840F4E0504A490860CB
:1008D000207800F00800082805D14748006840F457
:1008E0006040454908604448006820F0F000A16875
:1008F000084341490860207800F00100A8B360680F
:10090000012807D13C4808380068C0F34040B8B916
:100910000120BCE76068022802D06068032807D184
:10092000354808380068C0F3406048B90120AEE798
:10093000314808380068C0F3400008B90120A6E734
:100940002D48006820F00300616808432A490860C8
:10095000FFF792FE064609E0FFF78EFE801B41F28C
:100960008831884202D9032091E707E022480068D5
:1009700000F00C006168B0EB810FEDD11D480068FC
:1009800000F00700A84209D91A490D70084600680E
:1009900000F00700A84201D0012078E7207800F09D
:1009A0000400042807D11448006820F4E050E168EE
:1009B000084311490860207800F00800082808D191
:1009C0000D48006820F46040216940EAC1000A49EE
:1009D000086000F061F808490968C1F30311074A8B
:1009E000515CC8400649086006480068FFF774FE7D
:1009F00000204CE7003C0240083802400421000877
:100A00000C000020040000200F2202600D4A126832
:100A100002F0030242600B4A126802F0F0028260A8
:100A2000084A126802F4E052C260064A126802F4F0
:100A30006042D2080261044A126802F007020A60AA
:100A40007047000008380240003C0240014800683E
:100A5000704700000C00002000B5FFF7F7FF0449C5
:100A60000968C1F38221034A515CC84000BD0000FF
:100A7000083802401421000800B5FFF7E7FF0449D9
:100A80000968C1F34231034A515CC84000BD00000F
:100A900008380240142100082DE9F0470024002501
:100AA0000026A1462548006800F00C0020B104286B
:100AB00005D008283AD105E0DFF8849039E0DFF866
:100AC000849036E01D48001F006800F03F041B487A
:100AD000001F006800F4800078B11A481749091F08
:100AE0000968C1F38811A0FB01700146224600236A
:100AF0003846FFF76FFB05460EE011480F49091F06
:100B00000968C1F38811A0FB017001462246002349
:100B10003846FFF75FFB05460848001F0068C0F332
:100B20000140401C4600B5FBF6F902E0DFF81090EA
:100B300000BF00BF4846BDE8F0870000083802400B
:100B40000024F40040787D01F8B504460CB901207A
:100B5000F8BD207800F00100002874D0F948006842
:100B600000F00C0004280DD0F648006800F00C00DE
:100B7000082813D1F348001F006800F48000B0F586
:100B8000800F0BD1EF4808380068C0F340400028C0
:100B900059D06068002856D10120D9E700BF6068AD
:100BA000B0F5803F08D1E7480838006840F480304D
:100BB000E449083908601EE06068B0F5A02F0DD147
:100BC000E0480838006840F48020DE4908390860B1
:100BD0000846006840F4803008600CE0D9480838C6
:100BE000006820F48030D74908390860084600685A
:100BF00020F48020086000BF606890B1FFF73CFDE2
:100C0000054606E0FFF738FD401B642801D90320A4
:100C10009EE7CC4808380068C0F340400028F1D077
:100C200011E0FFF729FD054606E0FFF725FD401B13
:100C3000642801D903208BE7C24808380068C0F354
:100C400040400028F1D1207800F0020002285FD156
:100C5000BC48006800F00C0058B1BA48006800F0C9
:100C60000C0008281CD1B748001F006800F4800061
:100C7000B0B9B44808380068C0F3400020B1E0685B
:100C8000012801D0012063E7AE480838006820F051
:100C9000F800216940EAC100AA490839086037E034
:100CA000E06800B30120A8490860FFF7E5FC0546AD
:100CB00006E0FFF7E1FC401B022801D9032047E7CB
:100CC000A04808380068C0F340000028F1D09D48D3
:100CD0000838006820F0F800216940EAC10099490D
:100CE0000839086014E0002097490860FFF7C4FC49
:100CF000054606E0FFF7C0FC401B022801D903208F
:100D000026E7904808380068C0F340000028F1D179
:100D1000207800F0080008282CD16069A8B10120D3
:100D20008A490860FFF7A8FC054606E0FFF7A4FC27
:100D3000401B022801D903200AE782486C30006872
:100D4000C0F340000028F1D014E000207F49086083
:100D5000FFF792FC054606E0FFF78EFC401B0228D9
:100D600001D90320F4E677486C300068C0F34000F6
:100D70000028F1D1207800F00400042870D1002769
:100D800070483830006800F0805090B900BF0020F3
:100D900000906C483830006840F080506949383124
:100DA00008600846006800F08050009000BF00BF57
:100DB00001276748006800F48070B0B96448006893
:100DC00040F4807062490860FFF756FC054606E073
:100DD000FFF752FC401B022801D90320B8E65C480B
:100DE000006800F480700028F2D000BFA0680128DD
:100DF00008D154486830006840F00100514968311A
:100E000008601DE0A06805280DD14E4868300068D4
:100E100040F004004B49683108600846006840F023
:100E2000010008600CE047486830006820F00100CD
:100E30004449683108600846006820F004000860F2
:100E400000BFA068A8B1FFF717FC054609E0FFF74F
:100E500013FC401B41F28831884202D9032077E617
:100E600026E0384868300068C0F340000028EED023
:100E700013E0FFF701FC054608E0FFF7FDFB401B10
:100E800041F28831884201D9032061E62D4868305B
:100E90000068C0F340000028EFD1012F07D1294896
:100EA0003830006820F0805026493831086000BF93
:100EB000A069002845D02348006800F00C000828ED
:100EC0005DD0A069022845D100201F490866FFF7C0
:100ED000D3FB054606E0FFF7CFFB401B022801D9F4
:100EE000032035E6174808380068C0F34060002842
:100EF000F1D1D4E907010843616A40EA8111012276
:100F0000A06AC2EB500041EA00412C20005D41EA9A
:100F100000600C49091F086001200B490866FFF7B3
:100F2000ABFB054606E0FFF7A7FB401B022801D9F3
:100F300003200DE6034808380068C0F3406000282D
:100F4000F1D049E00838024000004742800E474295
:100F500000700040002021490866FFF78DFB054620
:100F600006E0FFF789FB401B022801D90320EFE5CB
:100F70001B480068C0F340600028F2D12CE0A06953
:100F8000012800D1E4E51648001D0668A069012883
:100F900020D006F48001E06981421BD106F03F01B8
:100FA000206A814216D147F6C0703040616AB0EBCA
:100FB000811F0FD106F440310122A06AC2EB50001C
:100FC000B1EB004F06D106F070612C20005DB1EB53
:100FD000006F01D00120BBE50020B9E500004742C9
:100FE000003802407047704710B504460CB9012024
:100FF00010BD94F83D0028B9002084F83C0020463C
:1010000000F025F8022084F83D00211D206800F042
:10101000BDFB012084F8460000BF84F83E0001219A
:101020003F200155402001554120015500BF00BF20
:10103000012084F8420043200155442001554520F9
:10104000015500BF012084F83D000020D0E7704723
:10105000014691F83D00012801D00120704702208F
:1010600081F83D000868C06840F001000B68D86056
:10107000164B0868984213D00868B0F1804F0FD023
:10108000134B086898420BD0124B0868984207D05F
:10109000114B0868984203D0104B086898420CD155
:1010A0000868806800F00702062A0CD0086800680B
:1010B00040F001000B68186005E00868006840F027
:1010C00001000B6818600020C8E700000000014024
:1010D0000004004000080040000C004000400140B7
:1010E000704710B5044620680069C0F34000D8B1CD
:1010F0002068C068C0F34000B0B16FF00200216802
:101100000861012020772068806900F0030018B191
:101110002046FFF7E5FF05E0204600F0ADF8204649
:1011200000F0ABF80020207720680069C0F3800051
:10113000D8B12068C068C0F38000B0B16FF004007F
:1011400021680861022020772068806900F44070DF
:1011500018B12046FFF7C4FF05E0204600F08CF8E8
:10116000204600F08AF80020207720680069C0F34C
:10117000C000D8B12068C068C0F3C000B0B16FF043
:10118000080021680861042020772068C06900F009
:10119000030018B12046FFF7A3FF05E0204600F04A
:1011A0006BF8204600F069F800202077206800697D
:1011B000C0F30010D8B12068C068C0F30010B0B10F
:1011C0006FF0100021680861082020772068C0694E
:1011D00000F4407018B12046FFF782FF05E020467A
:1011E00000F04AF8204600F048F8002020772068F8
:1011F000006900F0010058B12068C06800F00100EB
:1012000030B16FF0010021680861204600F036F827
:1012100020680069C0F3C01058B12068C068C0F3EE
:10122000C01030B16FF08000216808612046FFF7E0
:10123000D9FE20680069C0F3801058B12068C068EA
:10124000C0F3801030B16FF0400021680861204683
:1012500000F020F820680069C0F3401058B1206801
:10126000C068C0F3401030B16FF020002168086101
:101270002046FFF7B8FE10BD7047704710B5044612
:1012800003492068884201D1FFF7FCF910BD000036
:1012900000480140704710B504460CB9012010BD4C
:1012A000A06900B100E000BF94F83D0028B900201B
:1012B00084F83C00204600F027F8242084F83D0004
:1012C0002068C06820F400502168C860204600F003
:1012D000AFFA2068006920F4904021680861206816
:1012E000406920F02A00216848612068C06840F405
:1012F00000502168C86000202064202084F83D0050
:1013000084F83E000020CAE710B586B004461421D8
:1013100001A8FEF7A9FF1B492068884230D100BF11
:10132000002000901848006840F01000164908603E
:101330000846006800F01000009000BF00BF00BF2A
:101340000020009010481438006840F001000E4959
:10135000143908600846006800F00100009000BFE2
:1013600000BF4FF4C0600190022002900020039063
:10137000032004900720059001A90448FFF798F87E
:1013800006B010BD00100140443802400000024089
:101390002DE9F84F04460E46174699464FF0000ACD
:1013A00094F83D0020285AD106B117B90120BDE8B4
:1013B000F88F00BF94F83C00012801D10220F6E725
:1013C000012084F83C0000BF00202064212084F824
:1013D0003D00FFF751F98246A784E784A068B0F585
:1013E000805F04D1206910B90025B04602E035467F
:1013F0004FF0000800BF002084F83C0000BF1BE055
:101400005346002280212046CDF8009000F026FBB4
:1014100008B10320CBE745B9B8F80000C0F30800D5
:101420002168486008F1020803E0287821684860D4
:101430006D1CE08C401EE084E08C0028E0D1534617
:10144000002240212046CDF8009000F007FB08B1B3
:101450000320ACE7202084F83D000020A7E702200D
:10146000A5E700BFFEE7000008B500BF0020009020
:101470001548006840F004001349086008460068F9
:1014800000F00400009000BF00BF00BF00200090EB
:101490000846006840F0800008600846006800F0D8
:1014A0008000009000BF00BF00BF002000900846F1
:1014B000006840F0010008600846006800F0010084
:1014C000009000BF00BF08BD3038024010B50B4887
:1014D0000B4908604FF4E130486000210848816002
:1014E000C16001610C21416100218161C161FFF78F
:1014F000D2FE08B1FEF7CDFF10BD00000010014084
:101500001400002000BFFEE72DE9F84F044688468E
:101510004FF0000972E0207861784840A178484097
:10152000E17880EA01052178627881EA0200FEF71D
:10153000B3FF2178694048408DF800006178A278B7
:1015400081EA0200FEF7A8FF6178694048408DF803
:101550000100A178E27881EA0200FEF79DFFA17800
:10156000694048408DF80200E178227881EA020063
:10157000FEF792FFE178694048408DF80300B8F12A
:10158000000F34D02178A27881EA0200FEF784FFB0
:101590008246FEF781FF06466178E27881EA020022
:1015A000FEF77AFF8246FEF777FF074686EA0700D6
:1015B000FEF772FF05469DF8000085EA06014840E7
:1015C0008DF800009DF8010085EA070148408DF87C
:1015D00001009DF8020085EA060148408DF80200EE
:1015E0009DF8030085EA070148408DF80300009844
:1015F000206009F1010000F0FF09241DB9F1040F7A
:1016000089DBBDE8F88F00BFFEE7704700B970477F
:1016100001784278027082784270C2788270C1701C
:1016200000BFF4E77047F8B502460C46012126E0FA
:10163000002007E0042303FB0013D35C0DF8003007
:10164000431CD8B20428F5DB14B1C1F1040300E057
:101650000B46DDB200200EE04319DE1703EB967651
:10166000B610A3EB86061DF80660042707FB0017DB
:10167000D655431CD8B20428EEDB4B1CD9B2042942
:10168000D6DBF8BD30B503460AB1074D00E0074D83
:101690002C46002004E01D5C655D1D54451CE8B22D
:1016A0008842F8DB30BD00001C2200081C21000825
:1016B0007047000000B593B0302107A8FEF7D4FDB5
:1016C000142102A8FEF7D0FD00BF0020019024489D
:1016D000006840F08050224908600846006800F029
:1016E0008050019000BF00BF00BF002001901D4846
:1016F000006840F440401B4908600846006800F458
:101700004040019000BF00BF0220079001200A90D6
:1017100010200B9002200D9000210E9108210F91B6
:1017200064211091022111910421129107A8FFF761
:101730000BFA08B1FEF7ADFE0F20029002200390D5
:10174000002004904FF48050059000200690032163
:1017500002A8FFF797F808B1FEF79BFE13B000BD93
:1017600040380240007000400348006840F47000B8
:10177000014908607047000088ED00E010B502489C
:10178000FFF7AFFC10BD00005800002010B5026844
:10179000204B98420BD0B0F1804F08D01E4B98429E
:1017A00005D01E4B984202D01D4B984203D122F027
:1017B00070024B681A43174B984214D0B0F1804F17
:1017C00011D0154B98420ED0144B98420BD0144BAD
:1017D000984208D0134B984205D0134B984202D040
:1017E000124B984203D122F44072CB681A4322F084
:1017F00080034C6943EA040202608B68C3620B6891
:101800008362044B984201D10B6903630123436156
:1018100010BD00000000014000040040000800402E
:10182000000C0040004001400044014000480140DD
:101830002DE9F84F04462068006920F44050E16823
:101840000843216808612169A06808436169084369
:10185000E169084300902068C06849F20C61884340
:10186000009908432168C8602068406920F44070EE
:10187000A16908432168486176492068884203D0FD
:1018800075492068884203D1FFF7F6F8814602E0E7
:10189000FFF7E2F88146E069B0F5004F6CD1022015
:1018A0006168A0FB015003461920A9FB00700146A6
:1018B0002A463846FEF78EFC6421B0FBF1F04FEA71
:1018C000001A02206168A0FB01510B461920A9FBF8
:1018D00000712A463846FEF77DFC83460220616887
:1018E000A0FB015003461920A9FB00712A46384687
:1018F000FEF770FC6421B0FBF1F000EBC00101EBDE
:101900000010ABEB8000322101EBC0006421B0FB82
:10191000F1F000F0F8000AEB400A02206168A0FB39
:10192000015003461920A9FB007001462A4638469B
:10193000FEF750FC834602206168A0FB015003467D
:101940001920A9FB00712A463846FEF743FC6421A2
:10195000B0FBF1F000EBC00101EB0010ABEB80003D
:10196000322101EBC0006421B0FBF1F000F0070070
:101970005044216888606AE004206168A0FB01503F
:1019800003461920A9FB007001462A463846FEF797
:1019900021FC824604206168A0FB01500346192007
:1019A000A9FB007001462A463846FEF713FC642165
:1019B000B0FBF1F000EBC00101EB0010AAEB8000DE
:1019C000322101EB00106421B0FBF1F000F0F00ACD
:1019D00004206168A0FB017003461920A9FB005197
:1019E0003A462846FEF7F6FB6421B0FBF1F00AEB1D
:1019F000001A04206168A0FB01510B461920A9FBC5
:101A000000712A463846FEF7E5FB834604206168EC
:101A1000A0FB015003461920A9FB007001462A468D
:101A20003846FEF7D7FB6421B0FBF1F000EBC001B4
:101A300001EB0010ABEB8000322101EB00106421C0
:101A4000B0FBF1F000F00F00504421688860BDE861
:101A5000F88F000000100140001401402DE9F04112
:101A600004460D4617469846069E34E0701C88B31F
:101A70002EB1FEF701FEA0EB0800B0422BD900BF4B
:101A800000BF21680C3151E8001F21F4D07021689B
:101A90000C3141E80002002AF3D100BF00BF00BFB3
:101AA0002168143151E8001F21F001002168143130
:101AB00041E80002002AF3D100BF202084F83D0055
:101AC00084F83E0000BF002084F83C0000BF0320E3
:101AD000BDE8F081FFE7206800682840A84201D1F6
:101AE000012000E00020B842C0D00020F0E700BF95
:101AF000FEE730B5034603B101B930BD002005E073
:101B00001C5C0D5C6C401C54441CE0B29042F7DB42
:101B100000BFF2E70FB4054B10B503A9044A0298C1
:101B200000F034F810BC5DF814FB0000E51F00085D
:101B30001000002002480068C0F302207047000037
:101B40000CED00E010B5002804DB0A07130E054A6F
:101B5000135406E00A07140E034A00F00F031B1F7C
:101B6000D45410BD00E400E018ED00E002E008C825
:101B7000121F08C1002AFAD170477047002001E007
:101B800001C1121F002AFBD1704700002DE9FF4F51
:101B90008DB00F460546002606E025280BD0DDE96E
:101BA0000F1290476D1C761C28780028F5D111B0D3
:101BB0003046BDE8F08F0024A246A1460122E94943
:101BC00000E0044315F8013F203B02FA03F008420D
:101BD000F7D128782A2810D06FF02F022878A0F1AA
:101BE0003001092914D80AEB8A0102EB410144F0C3
:101BF000020400EB010A6D1CF0E701CF5FEA000A66
:101C000003D544F40054CAF1000A44F002046D1CE8
:101C100028782E2817D115F8010F44F004042A283B
:101C20000ED06FF02F022878A0F1300109290AD8D0
:101C300009EB890102EB410100EB01096D1CF2E7A0
:101C400057F8049B6D1C28786C280FD006DC4C28B4
:101C500017D068280DD06A2814D104E0742810D059
:101C60007A280FD10DE044F400140AE044F4801403
:101C700001E044F440146978814202D104F58014F3
:101C80006D1C6D1C28786E281ED00CDC632830D0AB
:101C900004DC00288BD0582811D19FE0642867D03D
:101CA00069280CD164E073282DD004DC6F2872D031
:101CB000702804D194E075286ED078286DD0DDE9C5
:101CC0000F129047761C4BE1C4F30250022806D055
:101CD000032809D0042801CF09D0066040E101CFD4
:101CE000F117C0E900613BE101CF068038E10670E1
:101CF00036E117F8040B8DF8000000208DF8010084
:101D0000EB46012003E057F804BB4FF0FF306107BA
:101D10004FF0000102D40DE008F101018846494569
:101D20000FDA8045F8DB1BF808100029F4D108E031
:101D300008F1010188468142FADB1BF808100029EE
:101D4000F6D1DDE90F23AAEB08008146214600F019
:101D500031F9304400EB080604E0DDE90F121BF80E
:101D6000010B9047B8F10108F7D221464846F2E04E
:101D70000A21C4F302524FF0000B0891022A04D04A
:101D800001CFC117032A09D00AE0FF1D27F007077A
:101D9000F7E8020108E02CE01EE01FE000B2C117E6
:101DA000042A01D140B2C117021E71F1000206DA05
:101DB0000023D0EB030063EB01012D2202E022059A
:101DC00004D52B228DF82420012203E0E20701D064
:101DD0002022F7E7904653E00A210BE0102109E0AA
:101DE00010214FF0000B44F004044FF00809089153
:101DF00003E008214FF0000B0891C4F30252022ABD
:101E000004D001CF0021032A06D006E0FF1D27F0F1
:101E10000707F7E8020103E080B2042A00D1C0B24C
:101E20004FF0000822072BD52A78702A07D0DDF85A
:101E300020C08CF0100C5CEA0B0C05D00EE04022A8
:101E40008DF82420012208E050EA010306D0302357
:101E50008DF824308DF8252002229046089B83F0CF
:101E6000080353EA0B030BD150EA010201D16207C8
:101E700006D530228DF824204FF00108A9F1010980
:101E80002A78582A04D038A20B9208AA0A920BE0AA
:101E90003AA2F9E75B46089AFEF79CF90B9B9B5C1C
:101EA0000A9A521E0A92137050EA0102F2D10A985D
:101EB000ADEB000000F1200B600702D524F4803464
:101EC00001E04FF00109D94502DDA9EB0B0000E06C
:101ED000002000EB0B0141440890AAEB010AE0034B
:101EE00006D4DDE90F232146504600F063F806448E
:101EF0004FF0000908E009A911F80900DDE90F1207
:101F0000904709F10109761CC145F4DBE0030CD5CB
:101F1000DDE90F232146504600F04CF8064404E06A
:101F2000DDE90F1230209047761C0899481E089072
:101F30000029F5DC08E00A980A990078491C0A9102
:101F4000DDE90F129047761CBBF10001ABF1010BEC
:101F5000F1DC21465046DDE90F2300F019F8064474
:101F60006D1C21E609280100303132333435363713
:101F700038396162636465660000000030313233D5
:101F80003435363738394142434445460000000075
:101F90002DE9F041044600251E461746880404D466
:101FA00005E039462020B0476D1C641EF9D528464F
:101FB000BDE8F0812DE9F041044600251E4690461B
:101FC000C80301D5302700E02027880404D505E0A8
:101FD00041463846B0476D1C641EF9D52846BDE819
:101FE000F081000013B50C464FF0FF330122694623
:101FF0000248FFF7CDF900981CBD00001400002036
:10200000FEF74CFBFFF756FBFFF72EFAFFF75EFAE1
:1020100000F01CF800BFFEE770B505460E46002430
:1020200004E0295D04A0FFF775FD641CB442F8D3F9
:1020300003A0FFF76FFD70BD25303278000000006F
:1020400020486578646174610A00000000B597B0AB
:1020500015A30FCBCDE91523CDE91301142216A149
:1020600005A8FEF7E8F8142218A16846FEF7E3F881
:1020700005A8FEF77DF96B4610220FA913A8FEF7FD
:1020800058F917A0FFF746FD10210FA8FFF7C4FF6E
:102090006B4610220AA90FA8FEF722F90AA914A07C
:1020A000FFF738FD17B000BD313161613232626235
:1020B0003333636334346464313233343536373820
:1020C000396162636465666100000000303130325E
:1020D000303330343035313233343536000000009F
:1020E0004145535F456E6372797074203D20000056
:1020F0004145535F44656372797074203D202573B8
:10210000200D0A000000000000000000010203048E
:10211000060708090000000001020304637C777BC6
:10212000F26B6FC53001672BFED7AB76CA82C97DD3
:10213000FA5947F0ADD4A2AF9CA472C0B7FD932664
:10214000363FF7CC34A5E5F171D8311504C723C368
:102150001896059A071280E2EB27B27509832C1AAC
:102160001B6E5AA0523BD6B329E32F8453D100ED06
:1021700020FCB15B6ACBBE394A4C58CFD0EFAAFBEA
:10218000434D338545F9027F503C9FA851A3408FB2
:10219000929D38F5BCB6DA2110FFF3D2CD0C13ECCA
:1021A0005F974417C4A77E3D645D197360814FDC5F
:1021B000222A908846EEB814DE5E0BDBE0323A0A43
:1021C0004906245CC2D3AC629195E479E7C8376DC7
:1021D0008DD54EA96C56F4EA657AAE08BA78252EEC
:1021E0001CA6B4C6E8DD741F4BBD8B8A703EB56675
:1021F0004803F60E613557B986C11D9EE1F8981166
:1022000069D98E949B1E87E9CE5528DF8CA1890D54
:10221000BFE6426841992D0FB054BB1652096AD5EA
:102220003036A538BF40A39E81F3D7FB7CE33982CB
:102230009B2FFF87348E4344C4DEE9CB547B94321A
:10224000A6C2233DEE4C950B42FAC34E082EA16662
:1022500028D924B2765BA2496D8BD12572F8F66439
:1022600086689816D4A45CCC5D65B6926C704850B4
:10227000FDEDB9DA5E154657A78D9D8490D8AB0069
:102280008CBCD30AF7E45805B8B34506D02C1E8F92
:10229000CA3F0F02C1AFBD0301138A6B3A911141CE
:1022A0004F67DCEA97F2CFCEF0B4E67396AC7422B7
:1022B000E7AD3585E2F937E81C75DF6E47F11A7135
:1022C0001D29C5896FB7620EAA18BE1BFC563E4B6E
:1022D000C6D279209ADBC0FE78CD5AF41FDDA83330
:1022E0008807C731B11210592780EC5F60517FA970
:1022F00019B54A0D2DE57A9F93C99CEFA0E03B4D9F
:10230000AE2AF5B0C8EBBB3C83539961172B047E12
:10231000BA77D626E169146355210C7D3C23000869
:1023200000000020140000006C1B0008502300086F
:10233000140000203C0500007C1B00080000000089
:1023400010000000010000000024F4000000000064
:040000050800019955
:00000001FF
