:020000040800F2
:10000000580E0020B1010008D51B0008811A000815
:10001000D11B0008010800082D2000080000000086
:10002000000000000000000000000000451D000866
:100030000508000800000000D91B0008471D000843
:10004000CB010008CB010008CB010008CB01000860
:10005000CB010008CB010008CB010008CB01000850
:10006000CB010008CB010008CB010008CB01000840
:10007000CB010008CB010008CB010008CB01000830
:10008000CB010008CB010008CB01000800000000F4
:10009000000000000000000000000000CB0100088C
:1000A000CB010008CB010008CB010008CB01000800
:1000B000CB010008CB010008CB010008CB010008F0
:1000C000CB010008CB010008CB010008CB010008E0
:1000D000CB010008CB010008CB01000800000000A4
:1000E000CB010008CB010008CB0100080000000094
:1000F000000000000000000000000000CB0100082C
:1001000000000000CB010008CB010008CB01000873
:1001100000000000000000000000000000000000DF
:10012000CB010008CB010008CB010008CB0100087F
:10013000CB010008000000000000000000000000EB
:10014000000000000000000000000000CB010008DB
:10015000CB010008CB010008CB010008CB0100084F
:10016000CB010008CB0100080000000000000000E7
:10017000000000000000000000000000000000007F
:1001800000000000CB01000800000000000000009B
:10019000CB010008CB010008DFF810D000F08EFA88
:1001A0000048004785370008AFF30080580E002054
:1001B0000648804706480047FEE7FEE7FEE7FEE701
:1001C000FEE7FEE7FEE7FEE7FEE7FEE7ED1D0008BF
:1001D000990100082DE9F05F0546002092469B46F4
:1001E00088460646814640241BE02846414647464D
:1001F000224600F09AF853465A46C01A914110D34D
:1002000011461846224600F081F82D1A67EB0108C6
:100210004F4622460120002100F078F817EB000934
:100220004E41201EA4F10104DFDC484631462A4637
:100230004346BDE8F09F40EA01039B0703D009E075
:1002400008C9121F08C0042AFAD203E011F8013BC2
:1002500000F8013B521EF9D27047D2B201E000F81B
:10026000012B491EFBD270470022F6E710B513465A
:100270000A4604461946FFF7F0FF204610BD30B588
:1002800005462A460B4612F8010B13F8014B08B13C
:10029000A042F8D01CB1002802D06D1CF1E728461E
:1002A00030BD421C10F8011B0029FBD1801A704799
:1002B000034611F8012B00F8012B002AF9D118464A
:1002C000704730B505460020034600E05B1C9342B2
:1002D00005D2EC5CC85C201A01D1002CF6D130BDEF
:1002E00030B50B46014600202022012409E021FA06
:1002F00002F59D4205D303FA02F5491B04FA02F503
:100300002844151EA2F10102F1DC30BD202A04DBD5
:10031000203A00FA02F1002070479140C2F1200318
:1003200020FA03F3194390407047202A04DB203A57
:1003300021FA02F00021704721FA02F3D040C2F105
:10034000200291400843194670472DE9FE4F804630
:1003500081EA0300C00F0C46009021F0004123F019
:100360000045B8EB0200A94105D24046214690461F
:100370001C460B46024623F00040104347D0270D91
:10038000C7F30A00C3F30A510290401A01904028B3
:100390006BDAC3F3130040F4801B0098924620B13F
:1003A0000023D2EB030A63EB0B0B01985946C0F113
:1003B00040025046FFF7AAFF06460D4650465946F2
:1003C000019A00F08DF910EB08006141002487EAE2
:1003D000115284EAE7731A4340D0009A62B3019A3B
:1003E000012A4FEA075215DC001B61EB02014FF0B6
:1003F000004202EA0752CDE90042001C41F580119B
:1004000032462B4600F08DF903B0BDE8F08F404630
:100410002146F9E7001B61EB0201001C41F5801346
:1004200000185B412018A2F5001747EB030140EAD2
:10043000D570B6196D4111E06D084FEA360645EAF0
:10044000C0754FEA0752001B61EB0201001C41F529
:10045000801149084FEA30000019514132462B46BD
:1004600003B0BDE8F04F00F04DB900980122400004
:100470000023D0EB020263EBE073009821464FEAC1
:10048000E074B8EB000061EB0401E9E783F000439E
:100490005BE781F0004158E72DE9FE4F81EA030454
:1004A00004F0004421F0004100944FF0000B23F0D1
:1004B000004350EA01045ED052EA03045BD0C3F368
:1004C0000A54C1F30A552C44A4F2F3340194A0FB5E
:1004D0000254C1F3130141F48011C3F3130343F435
:1004E000801301FB024400FB034E840A970A44EA8E
:1004F000815447EA8357A4FB076802958D0A05FBE0
:1005000007854FEA932C04FB0C542705029D4FEA04
:10051000065847EA1637B5EB08056EEB070C870E51
:10052000920E47EA811742EA8312A7FB0201B6EB5B
:100530000B0164EB00042B0D43EA0C335E1844EB13
:100540001C50DA465146E7FB0201C5F313044FEA9B
:100550000B3343EA14534FEA0432019C43EA060387
:10056000A4F10C040294009CCDE900B400F0D9F889
:1005700003B0BDE8F08F00200146F9E72DE9F04D0A
:1005800081EA030404F0004B21F0004514464FF0CB
:10059000000A23F0004150EA050220D054EA01028B
:1005A0001DD0C5F30A570246C5F31303C1F3130068
:1005B000C1F30A5640F4801543F48013A7EB0608F4
:1005C000101BD64608F2FD3873EB050002D308F184
:1005D000010801E092185B41B8F1000F03DA002036
:1005E0000146BDE8F08D00204FF480110646844698
:1005F0000EE0171B73EB050705D3121B63EB050316
:1006000006434CEA010C49084FEA300092185B415E
:1006100050EA0107EDD152EA030012D082EA040049
:1006200083EA0501084305D0101BAB4106D2012225
:10063000002306E000224FF0004302E06FF00102C9
:1006400053101AEB06004CEB085110EB0A0041EB7B
:100650000B01BDE8F04D00F055B8C1F30A52C1F3EB
:10066000130140F2FF3341F480119A4202DA002074
:100670000146704740F233439A42A2F2334202DC11
:100680005242FFF752BEFFF741BE000030B5041ED4
:1006900071F1000404DB4FF00044404264EB0101BF
:1006A000141E73F1000405DB1C464FF00043524258
:1006B00063EB0403994208BF904230BD064C074DDE
:1006C00006E0E06840F0010394E807009847103422
:1006D000AC42F6D3FFF764FD20390008403900082A
:1006E000202A06DBCB17203A41FA02F043EAE073F6
:1006F00006E041FA02F3D040C2F1200291400843E3
:100700001946704710B5141E73F1000408DA401C36
:1007100041F1000192185B411A4301D120F0010020
:1007200010BD2DE9F04D92469B4611B1B1FA81F210
:1007300002E0B0FA80F220329046FFF7E7FD04466F
:100740000F4640EA0A0041EA0B0153465A46084365
:1007500013D0114653EA010019D0C8F140025046A7
:10076000FFF7E3FD05460E46504659464246FFF761
:10077000CDFD084305D0012004E020463946BDE800
:10078000F08D0020054346EAE0762C4337430A9873
:100790006305E40AA0EB08000022FD0A44EA47547E
:1007A0000A3002D500200146E9E701051019694128
:1007B000DDE9084500196941BDE8F04DA2E710B533
:1007C00002F020FA012002F015FEFF21002002F0C5
:1007D0003DFD0721012002F039FD0721022002F032
:1007E00035FD0721032002F031FDBF21042002F076
:1007F0002DFDBF21052002F029FD02F069FE10BD8C
:1008000000BFFEE7704700003EB5002400F0FAF993
:10081000044648A040F20B114D4B4EA2CDE9010415
:10082000009151A1002002F015FA51A04FF48671F9
:10083000474B48A2CDE9010400914BA1012002F0F1
:1008400009FA52A040F20D11414B42A2CDE9010438
:10085000009145A1022002F0FDF954A04FF48771E8
:100860003B4B3CA2CDE9010400913FA1032002F0E3
:10087000F1F955A040F20F11354B36A2CDE9010434
:10088000009139A1042002F0E5F956A04FF48871D7
:100890002F4B30A2CDE90104009133A1052002F0D5
:1008A000D9F924A04FF48971294B2AA2CDE901047A
:1008B000009154A1002002F0CDF92DA040F21311B7
:1008C000234B24A2CDE9010400914EA1012002F0A6
:1008D000C1F92EA04FF48A711D4B1EA2CDE901046F
:1008E000009148A1022002F0B5F930A040F21511A4
:1008F000174B18A2CDE90104009142A1032002F098
:10090000A9F931A04FF48B71114B12A2CDE901046A
:1009100000913CA1042002F09DF932A040F2171191
:100920000B4B0CA2CDE90104009136A1052002F089
:1009300091F93EBD746869732061737365727420A8
:100940002C207469636B3A5B25645D200000000015
:10095000AC3700082E2E2F436F72652F5372632F12
:100960006D61696E2E6300004D41494E000000002C
:1009700074686973206973206572726F72202C200D
:100980007469636B3A5B25645D2000007468697369
:10099000206973207761726E696E67202C207469FC
:1009A000636B3A5B25645D20000000007468697326
:1009B00020697320696E666F202C207469636B3A1E
:1009C0005B25645D200000007468697320697320F2
:1009D0006465627567202C207469636B3A5B2564DB
:1009E0005D20000074686973206973207665726207
:1009F0006F7365202C207469636B3A5B25645D20FE
:100A000000000000544553540000000072B600BFBF
:100A1000FEE7000070B5044600F0F4F806462546EF
:100A2000681C10B104480078054400BF00F0EAF8E3
:100A3000801BA842FAD370BD08000020F8B502461A
:100A40000B460025002400200021C7E0012606FAFD
:100A500001F51E6806EA0504AC4274D11E7906F061
:100A60000306012E04D01E7906F00306022E13D1D0
:100A700090684F000326BE40B0434F00DE68BE4082
:100A800030439060506801268E40B0431E79C6F313
:100A900000168E40304350601E7906F00306032E88
:100AA00009D0D0684F000326BE40B0434F009E6877
:100AB000BE403043D0601E7906F00306022E13D1EB
:100AC000CF0802F1200656F827004E07F70E0F2632
:100AD000BE40B0434F07FF0E1E69BE403043CF08F3
:100AE00002F1200646F8270010684F000326BE409A
:100AF000B0431E7906F003064F00BE40304310603D
:100B00005E6806F44036002E67D000BF00260096CF
:100B1000344E366846F48046324F3E603E46366874
:100B200006F48046009600BF00BF2F4E8F0856F88F
:100B300027008E07370F0F26BE40B0432B4EB24220
:100B400002D1002615E048E0294EB24201D101262B
:100B50000FE0284EB24201D102260AE0264EB242F0
:100B600001D1032605E0254EB24201D1042600E062
:100B700007268F073F0FBE4030431B4E8F0846F8B5
:100B800027001F4E3068A0435E6806F4801606B149
:100B900020431B4E3060361D3068A0435E6806F46B
:100BA000001606B12043164E361D3060144E361F17
:100BB0003068A0435E6806F4003606B12043104E4C
:100BC000361F3060361F3068A0435E6806F48036FA
:100BD00006B120430A4E083E3060491C1029FFF43C
:100BE00035AFF8BD443802400838014000000240EB
:100BF0000004024000080240000C024000100240C5
:100C0000083C0140014800687047000000000020D7
:100C1000034800680349097808440149086070479F
:100C2000000000200800002010B50D48006840F4C6
:100C300000700B4908600846006840F48060086056
:100C40000846006840F480700860032000F092F8C5
:100C50000F2000F007F800F02BF8002010BD000076
:100C6000003C024070B504460E4800784FF47A719B
:100C7000B1FBF0F00C490968B1FBF0F5284600F033
:100C800068FE08B1012070BD102C07D20022214659
:100C9000501E00F031F80548046001E00120F2E741
:100CA0000020F0E7080000200C00002004000020D5
:100CB00008B500BF002000900E48006840F4804056
:100CC0000C4908600846006800F48040009000BFAE
:100CD00000BF00BF00200090081F006840F0805057
:100CE000091F08600846006800F08050009000BFAF
:100CF00000BF08BD443802402DE9F05F80460D4634
:100D00001646002701F076FA074639462A4633464A
:100D100001F00700C0F1070ABAF1040F02D94FF041
:100D2000040A01E0C0F1070AD14600F1040ABAF151
:100D3000070F02D24FF0000A01E0A0F1030AD446E7
:100D40004FF0010A0AFA09FAAAF1010A0AEA020AAC
:100D50000AFA0CFA4FF0010B0BFA0CFBABF1010B8A
:100D60000BEA030B4AEA0B042146404601F04AFA1B
:100D7000BDE8F09F00BF00F00702064B19684FF670
:100D8000FF031940044B0B4343EA0221014B196056
:100D900000BF70470CED00E00000FA0508B5012027
:100DA0000349086203480068009000BF08BD0000C6
:100DB00000000E4200700040F8B5044600250026F1
:100DC000207800F0010020B9207800F00400042809
:100DD00031D1002060498866FFF714FF054606E020
:100DE000FFF710FF401B022801D90320F8BD5B4824
:100DF0000068C0F3C0600028F2D1D4E9011041EAD4
:100E00008011207B41EA0070544984310860012040
:100E100051498866FFF7F6FE054606E0FFF7F2FE49
:100E2000401B022801D90320E0E74C480068C0F3CA
:100E3000C0600028F2D0207800F0020002287DD1A6
:100E400000BF0020009045484030006840F08050CE
:100E50004249403108600846006800F08050009028
:100E600000BF00BF3E48006840F480703C49086005
:100E7000FFF7C8FE054606E0FFF7C4FE401B022848
:100E800001D90320B2E73648006800F480700028DA
:100E9000F2D032487030006800F440764EB3208AB9
:100EA00000F44070B04224D02C487030006820F428
:100EB000407601202B4908600020086027487030E8
:100EC0000660006800F0010098B1FFF79BFE054640
:100ED00008E0FFF797FE401B41F28831884201D9B4
:100EE000032083E71D4870300068C0F340000028ED
:100EF000EFD000BF208A00F44070B0F5407F0CD1E5
:100F000016480830006820F4F810174A216911408B
:100F1000084312490831086007E0104808300068AB
:100F200020F4F8100D49083108600C487030006852
:100F3000218AC1F30B010843084900E002E0703147
:100F4000086000BF207800F00800082802D1207D4A
:100F500006490860002049E7000047420038024087
:100F600000700040400E4742FFFCFF0FE011474277
:100F700070B504460D460CB9012070BD5848006894
:100F800000F00700A84209D255490D7008460068D4
:100F900000F00700A84201D00120EEE7207800F021
:100FA000020002281DD1207800F00400042805D199
:100FB0004C48006840F4E0504A490860207800F04E
:100FC0000800082805D14748006840F460404549BA
:100FD00008604448006820F0F000A16808434149D7
:100FE0000860207800F00100A8B36068012807D1EC
:100FF0003C4808380068C0F34040B8B90120BCE75D
:101000006068022802D06068032807D13548083894
:101010000068C0F3406048B90120AEE731480838A5
:101020000068C0F3400008B90120A6E72D48006819
:1010300020F00300616808432A490860FFF7E2FDD9
:10104000064609E0FFF7DEFD801B41F28831884249
:1010500002D9032091E707E02248006800F00C0065
:101060006168B0EB810FEDD11D48006800F007000A
:10107000A84209D91A490D700846006800F0070017
:10108000A84201D0012078E7207800F0040004286D
:1010900007D11448006820F4E050E1680843114982
:1010A0000860207800F00800082808D10D48006882
:1010B00020F46040216940EAC1000A49086000F05C
:1010C0003FF808490968C1F30311074A515CC84059
:1010D0000649086006480068FFF7C4FD00204CE799
:1010E000003C024008380240B83700080C000020DD
:1010F0000400002001480068704700000C00002038
:1011000000B5FFF7F7FF04490968C1F38221034ADC
:10111000515CC84000BD000008380240C8370008D4
:1011200000B5FFF7E7FF04490968C1F34231034AFC
:10113000515CC84000BD000008380240C8370008B4
:101140002DE9F047002400250026A1462548006827
:1011500000F00C0020B1042805D008283AD105E0A1
:10116000DFF8849039E0DFF8849036E01D48001FF6
:10117000006800F03F041B48001F006800F4800076
:1011800078B11A481749091F0968C1F38811A0FBF3
:1011900001700146224600233846FFF71BF805463A
:1011A0000EE011480F49091F0968C1F38811A0FB1F
:1011B00001700146224600233846FFF70BF805462A
:1011C0000848001F0068C0F30140401C4600B5FB02
:1011D000F6F902E0DFF8109000BF00BF4846BDE816
:1011E000F0870000083802400024F40040787D01B8
:1011F000F8B504460CB90120F8BD207800F00100D4
:10120000002874D0F948006800F00C0004280DD0C4
:10121000F648006800F00C00082813D1F348001FBE
:10122000006800F48000B0F5800F0BD1EF4808385B
:101230000068C0F34040002859D06068002856D1AB
:101240000120D9E700BF6068B0F5803F08D1E748CA
:101250000838006840F48030E449083908601EE02E
:101260006068B0F5A02F0DD1E0480838006840F460
:101270008020DE49083908600846006840F4803064
:1012800008600CE0D9480838006820F48030D7495D
:10129000083908600846006820F48020086000BF14
:1012A000606890B1FFF7AEFC054606E0FFF7AAFCC8
:1012B000401B642801D903209EE7CC480838006809
:1012C000C0F340400028F1D011E0FFF79BFC054639
:1012D00006E0FFF797FC401B642801D903208BE749
:1012E000C24808380068C0F340400028F1D1207897
:1012F00000F0020002285FD1BC48006800F00C003A
:1013000058B1BA48006800F00C0008281CD1B74852
:10131000001F006800F48000B0B9B44808380068C5
:10132000C0F3400020B1E068012801D0012063E74C
:10133000AE480838006820F0F800216940EAC10092
:10134000AA490839086037E0E06800B30120A849DD
:101350000860FFF757FC054606E0FFF753FC401B0B
:10136000022801D9032047E7A04808380068C0F3E5
:1013700040000028F1D09D480838006820F0F800AF
:10138000216940EAC10099490839086014E0002049
:1013900097490860FFF736FC054606E0FFF732FC88
:1013A000401B022801D9032026E79048083800682E
:1013B000C0F340000028F1D1207800F00800082890
:1013C0002CD16069A8B101208A490860FFF71AFC96
:1013D000054606E0FFF716FC401B022801D9032052
:1013E0000AE782486C300068C0F340000028F1D062
:1013F00014E000207F490860FFF704FC054606E082
:10140000FFF700FC401B022801D90320F4E67748CF
:101410006C300068C0F340000028F1D1207800F063
:101420000400042870D1002770483830006800F0AC
:10143000805090B900BF002000906C4838300068A0
:1014400040F080506949383108600846006800F073
:101450008050009000BF00BF01276748006800F47B
:101460008070B0B96448006840F4807062490860D8
:10147000FFF7C8FB054606E0FFF7C4FB401B022848
:1014800001D90320B8E65C48006800F480700028A9
:10149000F2D000BFA068012808D154486830006825
:1014A00040F001005149683108601DE0A06805283E
:1014B0000DD14E486830006840F004004B49683157
:1014C00008600846006840F0010008600CE04748EA
:1014D0006830006820F0010044496831086008461F
:1014E000006820F00400086000BFA068A8B1FFF702
:1014F00089FB054609E0FFF785FB401B41F2883177
:10150000884202D9032077E626E038486830006830
:10151000C0F340000028EED013E0FFF773FB054650
:1015200008E0FFF76FFB401B41F28831884201D988
:10153000032061E62D4868300068C0F340000028B1
:10154000EFD1012F07D129483830006820F08050B2
:1015500026493831086000BFA069002845D02348DB
:10156000006800F00C0008285DD0A069022845D171
:1015700000201F490866FFF745FB054606E0FFF718
:1015800041FB401B022801D9032035E617480838E3
:101590000068C0F340600028F1D1D4E90701084396
:1015A000616A40EA81110122A06AC2EB500041EA5F
:1015B00000412C20005D41EA00600C49091F0860D1
:1015C00001200B490866FFF71DFB054606E0FFF703
:1015D00019FB401B022801D903200DE603480838F7
:1015E0000068C0F340600028F1D049E008380240AC
:1015F00000004742800E4742007000400020214911
:101600000866FFF7FFFA054606E0FFF7FBFA401B06
:10161000022801D90320EFE51B480068C0F34060B1
:101620000028F2D12CE0A069012800D1E4E5164899
:10163000001D0668A069012820D006F48001E06939
:1016400081421BD106F03F01206A814216D147F644
:10165000C0703040616AB0EB811F0FD106F4403199
:101660000122A06AC2EB5000B1EB004F06D106F098
:1016700070612C20005DB1EB006F01D00120BBE553
:101680000020B9E5000047420038024070B504462A
:1016900001250CB9012070BD607F20B900202077A2
:1016A000204600F045F80220607700BFCA2021687C
:1016B000486253202168486200BF204600F09BFA30
:1016C0000546EDB92068806818490840216888609F
:1016D0002169606808436169084321688968084393
:1016E000216888602168E0680861206801692089B4
:1016F00041EA004021680861204600F0A1FA054651
:101700006DB92068006C20F480202168086420688E
:10171000006CA1690843216808640120607700BF5C
:10172000FF202168486200BF2846B4E7BFFF8FFF53
:1017300010B586B0044618216846FEF795FD0949A4
:10174000206888420CD10220009000020490684674
:10175000FFF732FB08B1FFF759F901200249086091
:1017600006B010BD002800403C0E47422DE9F04174
:1017700005460C4617464FF0000800BF287F012899
:1017800002D10220BDE8F0810120287700BF0220AD
:1017900068774FB9607800F01000102804D16078A5
:1017A00000F0EF000A30607087B9E07800F015FAB9
:1017B0000304607800F011FA43EA0023A07800F0F7
:1017C0000CFA0343207843EA403809E0E07800044B
:1017D000617840EA0120A1780843217840EA413845
:1017E00000BFCA202968486253202968486200BFA8
:1017F000284600F000FA064646B90B4808EA000001
:1018000029684860284600F01BFA06460EB90120F8
:10181000687700BFFF202968486200BF00BF002032
:10182000287700BF3046ADE73FFFFF002DE9F041CC
:1018300004460D4617464FF0000800BF207F0128E0
:1018400002D10220BDE8F0810120207700BF0220F4
:101850006077CFB92068806800F0400000B102E0F6
:101860000020E87000BF287800F0B7F9030468781A
:1018700000F0B3F943EA0023A87800F0AEF903437F
:10188000E87843EA805812E02068806800F0400061
:1018900000B102E00020E87000BF287800046978F9
:1018A00040EA0120A9780843E97840EA815800BF5E
:1018B000CA202168486253202168486200BF204640
:1018C00000F099F90646B6B9124808EA0000216806
:1018D00008602068806820F4802021688860D5E94D
:1018E000030108432168896808432168886020460D
:1018F00000F0A6F906460EB90120607700BFFF2070
:101900002168486200BF00BF0020207700BF30463A
:1019100098E700007F7F7F0070B5044600252068AF
:10192000C06820F0A0002168C860FFF76BF9054689
:1019300007E0FFF767F9401BB0F57A7F01D9032074
:1019400070BD2068C06800F020000028F1D00020A1
:10195000F6E770B504462546681EB0F1807F01D3D6
:1019600001200FE0681E4FF0E02148610F214FF089
:10197000FF3000F047FC00204FF0E0218861072095
:101980000861002070BD10B504460CB9012010BDDF
:10199000A06900B100E000BF94F83D0028B9002024
:1019A00084F83C00204600F027F8242084F83D000D
:1019B0002068C06820F400502168C860204600F00C
:1019C0001FFA2068006920F49040216808612068AF
:1019D000406920F02A00216848612068C06840F40E
:1019E00000502168C86000202064202084F83D0059
:1019F00084F83E000020CAE710B586B004461421E2
:101A000001A8FEF731FC1B492068884230D100BF95
:101A1000002000901848006840F010001649086047
:101A20000846006800F01000009000BF00BF00BF33
:101A30000020009010481438006840F001000E4962
:101A4000143908600846006800F00100009000BFEB
:101A500000BF4FF4C060019002200290002003906C
:101A6000032004900720059001A90448FEF7E6FF33
:101A700006B010BD00100140443802400000024092
:101A800000BFFEE708B500BF0020009015480068C1
:101A900040F00400134908600846006800F00400A4
:101AA000009000BF00BF00BF002000900846006803
:101AB00040F0800008600846006800F08000009058
:101AC00000BF00BF00BF002000900846006840F043
:101AD000010008600846006800F00100009000BFA7
:101AE00000BF08BD3038024000B587B0142102A8FD
:101AF000FEF7BAFB0020019000BF00902348006869
:101B000040F08050214908600846006800F080508D
:101B1000009000BF00BFFFF741F91D481D49086054
:101B2000002048607F211B488160FF21C1600021A7
:101B3000016141618161FFF7A9FD08B1FEF766FF10
:101B400000208DF808008DF809008DF80A00059036
:101B50000690012202A90F48FFF768FE08B1FEF7C0
:101B600055FF01208DF804008DF805008DF8060062
:101B700000208DF80700012201A90648FFF7F6FDB5
:101B800008B1FEF743FF07B000BD00004038024037
:101B9000002800404400002010B50B480B490860A5
:101BA0004FF4E1304860002108488160C160016164
:101BB0000C21416100218161C161FFF7E4FE08B1A0
:101BC000FEF724FF10BD000000100140640000205B
:101BD00000BFFEE700BFFEE770470146002204E0B9
:101BE000501CC2B2A1F10A00C1B20A29F8D21007F2
:101BF00041EA1060704770B5044600260025206851
:101C0000C06800F04000C8B92068C06840F080009B
:101C10002168C860FEF7F6FF064608E0FEF7F2FF0F
:101C2000801BB0F57A7F02D90420607701252068F7
:101C3000C06800F0400008B9012DEFD1284670BD02
:101C400070B5044600252068C06820F08000216837
:101C5000C8602068806800F0200030B92046FFF797
:101C60005BFE10B1042060770125284670BD10B5D9
:101C700000F0DEF910BD00002DE9F04104460D46EC
:101C800016460E4F00BF387808B900F0D1F900BFF2
:101C9000EFF311800746202080F3118800BF00BFBA
:101CA00032462946204600F00BF88046F8B280F311
:101CB000118800BF00BF4046BDE8F081A8000020A9
:101CC0002DE9F047074688461646C24607EB47010E
:101CD0001B4800EBC109D9F8140020B1012811D02C
:101CE000022826D11EE0484600F0DAF90546B54242
:101CF00001D2002405E0344632465146484600F001
:101D000018FA18E0484600F0CBF90546B54201D272
:101D1000284600E03046044622465146484600F038
:101D200008FA08E032465146484600F0C7F9044632
:101D300001E0002400BF00BF2046BDE8F08700009E
:101D4000C0000020704710B5FEF762FF10BD000014
:101D500000B593B0302107A8FEF786FA142102A837
:101D6000FEF782FA00BF002001901E48006840F094
:101D700080501C4908600846006800F080500190BF
:101D800000BF00BF00BF002001901748006840F46A
:101D90004040154908600846006800F44040019042
:101DA00000BF00BF092007904FF480300890012049
:101DB0000C9000200D9007A8FFF71AFA08B1FEF763
:101DC00025FE0F2002900120039000200490059032
:101DD0000690002102A8FFF7CBF808B1FEF716FE27
:101DE00013B000BD40380240007000400348006856
:101DF00040F47000014908607047000088ED00E081
:101E00002DE9F84F04462068006920F44050E1684D
:101E10000843216808612169A06808436169084393
:101E2000E169084300902068C06849F20C6188436A
:101E3000009908432168C8602068406920F4407018
:101E4000A16908432168486176492068884203D027
:101E500075492068884203D1FFF762F9814602E0A4
:101E6000FFF74EF98146E069B0F5004F6CD10220D2
:101E70006168A0FB015003461920A9FB00700146D0
:101E80002A463846FEF7A6F96421B0FBF1F04FEA86
:101E9000001A02206168A0FB01510B461920A9FB22
:101EA00000712A463846FEF795F98346022061689C
:101EB000A0FB015003461920A9FB00712A463846B1
:101EC000FEF788F96421B0FBF1F000EBC00101EBF3
:101ED0000010ABEB8000322101EBC0006421B0FBAD
:101EE000F1F000F0F8000AEB400A02206168A0FB64
:101EF000015003461920A9FB007001462A463846C6
:101F0000FEF768F9834602206168A0FB0150034692
:101F10001920A9FB00712A463846FEF75BF96421B7
:101F2000B0FBF1F000EBC00101EB0010ABEB800067
:101F3000322101EBC0006421B0FBF1F000F007009A
:101F40005044216888606AE004206168A0FB015069
:101F500003461920A9FB007001462A463846FEF7C1
:101F600039F9824604206168A0FB0150034619201C
:101F7000A9FB007001462A463846FEF72BF964217A
:101F8000B0FBF1F000EBC00101EB0010AAEB800008
:101F9000322101EB00106421B0FBF1F000F0F00AF7
:101FA00004206168A0FB017003461920A9FB0051C1
:101FB0003A462846FEF70EF96421B0FBF1F00AEB31
:101FC000001A04206168A0FB01510B461920A9FBEF
:101FD00000712A463846FEF7FDF883460420616802
:101FE000A0FB015003461920A9FB007001462A46B8
:101FF0003846FEF7EFF86421B0FBF1F000EBC001CA
:1020000001EB0010ABEB8000322101EB00106421EA
:10201000B0FBF1F000F00F00504421688860BDE88B
:10202000F88F0000001001400014014000BFFEE7DF
:1020300010B5124C03202061606111A0A06113490A
:10204000E1614FF4806121620021A1626162E1627D
:102050000BA020660E4961661021A1660021216750
:10206000E16661670BA1E01DFEF722F90AA1204697
:10207000FEF71EF92020A07110BD0000A80000206E
:102080005465726D696E616C0000000050010020A3
:102090005005002052545400534547474552000014
:1020A00010B501460A69CB689A4204D88C68641E50
:1020B000E41AA01801E0D41A601E10BD2DE9F05FEB
:1020C0000446894617464FF0000AE56800BFD4F879
:1020D0001080A84503D9A8EB0500461E04E0A5EB37
:1020E0000800401CA1680E1AA068401BB04201D92C
:1020F000304601E0A068401B0646BE4201D2304691
:1021000000E038460646606800EB050B324649465B
:102110005846FEF790F8B244B144BF1B3544A0685E
:10212000A84200D10025E560002FD0D15046BDE87F
:10213000F09F2DE9F047044689461546E668A068F9
:10214000871BAF420AD9606800EB060A2A46494657
:102150005046FEF770F87019E06014E0B846606809
:1021600000EB060A424649465046FEF764F8A5EBE6
:102170000708D4F804A009EB070142465046FEF7D1
:102180005AF8C4F80C80BDE8F08700000FB47CB5A5
:102190000C0009AD01D0611E00E00021CDE9000175
:1021A000064B6A462946089800F012F9002C02D026
:1021B000009A002111707CBC5DF814FBD72A00083E
:1021C0007CB50C001D461646014601D0601E00E09D
:1021D0000020CDE90010064B6A462946304600F043
:1021E000F7F8002C02D0009A002111707CBD00008D
:1021F000D72A000802480068C0F302207047000098
:102200000CED00E010B5002804DB0A07130E054AA8
:10221000135406E00A07140E034A00F00F031B1FB5
:10222000D45410BD00E400E018ED00E002E008C85E
:10223000121F08C1002AFAD170477047002001E040
:1022400001C1121F002AFBD1704700002DE9FF5F7A
:1022500082B00021DDE90430020DDDF840B0034317
:1022600018D044F61050A2F2FF32424315141198D0
:1022700001281FD0A5EB0B00401C5FEA000A4FF0BD
:1022800000064E4FDFF83891B046504615D5CAF1DA
:10229000000413E0119801244AA3012801D16FEA38
:1022A0000B010298119AC0E90031C0E9024206B060
:1022B000BDE8F09FCBF10000DFE704460021404A73
:1022C000491842EB0450CDE9001012E0E00707D0B6
:1022D00032463B4640464946FEF7DEF88046894690
:1022E00032463B4610461946FEF7D6F806460F46DC
:1022F0006410002CEAD1DDE90401DDE90023BAF124
:10230000000F06DAFEF7C8F842464B46FEF7C4F85F
:1023100005E0FEF733F942464B46FEF72FF9044637
:102320000E460022284BFEF7B1F903D84FF0FF30DC
:10233000014607E00022254B20463146FEF705F80E
:10234000FEF78BF9102409E0002C0ADB0A22002397
:10235000FDF740FF039B30321A55641E50EA01021C
:10236000F2D1641C039AC4F111031444119A012A96
:1023700003D0012208430DD10AE0084304D0002015
:102380004FF0110B119072E7A3EB0B056D1E0DE0E2
:102390005B4504DD4FF0000205F1010504E003DABE
:1023A0004FF00002A5F10105002AECD00298119926
:1023B000C0E90231C0E9004579E70000000014409F
:1023C0000000F03F300000000000F0430000E03F5C
:1023D0002DE9FF4F95B09A46884606460025EEE166
:1023E000252877D100242746F94A0121039400E0EB
:1023F000044316F8013F203B01FA03F01042F7D1E5
:1024000030782A2811D06FF02F033078A0F13002F5
:10241000092A16D8039A44F0020402EB820203EB65
:1024200042021044761C0390EFE758F8042B039205
:10243000002A03DA504244F40054039044F00204AA
:10244000761C30782E2816D116F8010F44F00404BB
:102450002A280DD06FF02F023078A0F13003092B1D
:1024600009D807EB870302EB4303C718761CF3E791
:1024700058F8047B761C30786C280FD006DC4C288A
:1024800017D068280DD06A2814D104E0742810D021
:102490007A280FD10DE044F400140AE044F48014CB
:1024A00001E044F440147278824202D104F58014B1
:1024B000761C761C307866280BD013DC582877D031
:1024C00009DC002875D04528F6D04628F4D04728E6
:1024D0001AD193E118E0632835D0642879D06528B3
:1024E00012D18BE1702873D008DC6728F1D06928FD
:1024F0006FD06E280DD06F2806D1ACE073282CD099
:10250000752874D0782853D05246179990476D1C7F
:1025100054E1C4F30250022809D003280DD0D8F8A2
:10252000001004280DD00D6008F1040846E1D8F829
:102530000010EA17C1E90052F6E7D8F800100D8044
:10254000F2E70D70F0E718F8041B8DF8001000207A
:102550008DF80100EB46012003E058F804BB4FF072
:10256000FF3061074FF0000102D40DE009F10101D5
:102570008946B9420FDA8145F8DB1BF809100029BA
:10258000F4D108E009F1010189468142FADB1BF828
:1025900009100029F6D103985346A0EB09072146FC
:1025A0003846179A00F080FA284400EB090507E046
:1025B00044E008E10DE01BF8010B524617999047E3
:1025C000B9F10109F7D2534621463846179AF2E08D
:1025D00039E00A21C4F302524FF0000B0091022AA5
:1025E00006D058F8040BC117032A09D00AE023E0EB
:1025F00008F1070020F00702F2E80201904605E02A
:1026000000B2C117042A01D140B2C117002906DA6D
:102610000A460021404261EB02012D2202E0220520
:1026200004D52B228DF80420012203E0E20701D01B
:102630002022F7E7914657E00A2100E010214FF0F1
:10264000000B00910BE010214FF0000B44F004044C
:102650000827009103E008204FF0000B0090C4F31E
:102660000252022A05D058F8040B0021032A08D090
:1026700008E008F1070020F00702F2E802019046A6
:1026800003E080B2042A00D1C0B24FF00009220753
:102690002AD53278702A07D0DDF800C08CF0100CF3
:1026A0005CEA0B0C05D00EE040228DF804200122DC
:1026B00008E050EA010306D030238DF804308DF88D
:1026C000052002229146009B83F0080353EA0B0386
:1026D0000AD150EA010201D1620705D530228DF8F6
:1026E00004204FF001097F1E3278582A04D039A205
:1026F0000C920CAA02920BE03BA2F9E75B46009A0F
:10270000FDF768FD0C9B9B5C029A521E02921370AF
:1027100050EA0102F2D1029804A9081A00F1200B34
:10272000600702D524F4803400E001275F4502DD14
:10273000A7EB0B0000E0002000EB0B0100900398DA
:102740004944401A0390E00306D453462146179AA1
:10275000039800F0A9F90544002706E001A85246B5
:10276000C05D179990476D1C7F1C4F45F6DBE00359
:102770000CD553462146179A039800F095F9054465
:1027800004E030205246179990476D1C0099481E6E
:1027900000900029F5DC08E0029802995246007882
:1027A000491C0291179990476D1CBBF10001ABF1D8
:1027B000010BF1DC5BE100F065F90544761C307833
:1027C00000287FF40DAE19B02846BDE8F08F000058
:1027D00009280100303132333435363738396162F7
:1027E00063646566000000003031323334353637BB
:1027F000383941424344454600000000600700D498
:10280000062708F1070020F00700F0E802238046C1
:1028100003F0004C5FEA0C0001D097A009E020050E
:1028200001D596A005E0E00701D095A001E0AFF248
:102830004C001390307823F0004365280CD006DC60
:10284000452809D046281DD047287FD13BE066287F
:1028500018D067287AD136E00021112F01DB112032
:1028600000E0781CCDE9000104A90CA8FFF7EEFCFC
:10287000DDE90D010C9A4FF0000B07F101091092F0
:1028800000914EE04FF000400097CDE9011004A9FF
:102890000CA8FFF7DBFCDDE90D020C9B0F994FF054
:1028A000000B91461093009211B9791C00EB0109BD
:1028B000B7EB090003D4C0F1FF3B07F10109A9EB15
:1028C0000700019042E0012F00DA01270021112FBB
:1028D00001DD112000E03846CDE9000104A90CA873
:1028E000FFF7B4FCDDE90D010C9A00914FF0000BED
:1028F000B946109221070FD4009A4A4503DA91464F
:1029000001E0A9F10109B9F1010F05DD109AA9F162
:102910000101515C3029F4D0B84202DA10F1040F01
:1029200003DA0121CDE9011010E0002803DC834423
:10293000A9EB000102E0411C494500DD8946A0EBFE
:102940000B00401C01904FF000400290200705D47E
:102950000198484502DB4FF0FF30019000208DF8D0
:102960004B0002980DF14B07B0F1004F25D002202B
:102970000C902B200D90029800280CDA4042029017
:102980002D200D9007E00A210298FDF7A9FC3031B7
:10299000029007F8011D0C99481E0C900029F2DCEA
:1029A00002980028EFD1791E0D980870307800F059
:1029B000200040F0450007F8020D11A8C01BC01D03
:1029C00002901398007800B1012000EB09010198F2
:1029D00001EBE071029801440398401A401E0390F5
:1029E000E00306D453462146179A039800F05CF89A
:1029F00005441398007818B15246179990476D1CFA
:102A0000E00323D553462146179A039800F04CF86B
:102A100005441BE0BBF1000F07DB0098584504DDBF
:102A20001098179910F80B0001E0179930205246C2
:102A3000904701980BF1010B401E05F10105019033
:102A400004D12E205246179990476D1CB9F1000110
:102A5000A9F10109DEDC05E017F8010B52461799D0
:102A600090476D1C0299481E02900029F4DC5346E1
:102A70002146179A03989EE62D0000002B000000C7
:102A8000200000002DE9F041044600251E461746AF
:102A9000880404D405E039462020B0476D1C641E2C
:102AA000F9D52846BDE8F0812DE9F041044600251E
:102AB0001E469046C80301D5302700E02027880431
:102AC00004D505E041463846B0476D1C641EF9D573
:102AD0002846BDE8F0814A68002A06D00A68531CDF
:102AE0000B6010704868401E4860704770B586B033
:102AF0000546002D1CD126480068002811D14FF44E
:102B0000F070244924A229A3CDE90310CDE90132B4
:102B100000900B462EA238A1002000F09BF800BFC9
:102B2000FEE74FF4F0721B491BA0194B1B68984736
:102B300000240526324890F8F00010B9304606B05F
:102B400070BD00F093FA00241BE004EB44112C4804
:102B50003130084490F82000012810D104EB4412D1
:102B6000274831301044411C1E222846FDF7A9FB9E
:102B700028B904EB441122483130465C03E0601C64
:102B8000C4B2052CE1DB00BF00F0A4FA3046D6E762
:102B9000400000206238000874616720213D202831
:102BA00028766F6964202A29302900002825732996
:102BB0002068617320617373657274206661696C4B
:102BC00065642061742025733A256C642E00000032
:102BD0002E2E5C4D6964646C6577617265735C650B
:102BE0006173796C6F676765725C7372635C656C47
:102BF0006F672E6300000000656C6F6700000000C7
:102C00006005002010B50024114890F8F00001285C
:102C100001D1204610BD00F083FA04460CB12046D5
:102C2000F8E7012000F036FA0020094981F8F300A6
:102C300081F8F400012000F0DDFB052000F084FAAB
:102C400000F0E6FA0120024981F8F0002046E1E7B1
:102C5000600500200FB42DE9F04F8DB005460F46FA
:102C60009846DDF868903846FDF71BFB8246002445
:102C70004FF0020B00200B900C90079008900990E9
:102C80000A90052D1CDDCC480068002811D140F2C7
:102C90003E20CA49CAA2D1A3CDE90310CDE9013231
:102CA00000900B46D6A2E0A10020FFF7D3FF00BFA3
:102CB000FEE740F23E22C149C1A0BF4B1B689847C6
:102CC000DB4890F8F10020B90DB0BDE8F00F5DF8D9
:102CD00014FBD7480078A84204DB3846FFF706FF0C
:102CE000A84200DAF0E7D249491C3846FDF7C7FA96
:102CF00000B9E9E71CA8069000F0B8F9CC4890F8B4
:102D0000F50078B1CB480119CBA2204600F02CFC8D
:102D10000444CA4850F82520C6480119204600F04E
:102D200023FC04440121284600F0A4FC40B1C4481F
:102D300050F82520BF480119204600F015FC044436
:102D40000221284600F096FCE8B1BA4801193A463B
:102D5000204600F009FC0444BAF10F0F0CD8CAF168
:102D60000F01202207A8FDF778FAB248011907AA37
:102D7000204600F0F9FB0444AE480119B1A22046F8
:102D800000F0F2FB04441C21284600F073FC0028EC
:102D900052D0A8480119ACA2204600F0E5FB04443B
:102DA0000421284600F066FCA8B100F0B5F90590B2
:102DB000A04801192046059A00F0D6FB04441821CA
:102DC000284600F057FC30B19A4801199DA22046D0
:102DD00000F0CAFB04440821284600F04BFCA8B1CF
:102DE00000F08CF90590934801192046059A00F0EF
:102DF000BBFB04441021284600F03CFC30B18D4858
:102E0000011990A2204600F0AFFB0444102128468F
:102E100000F030FC48B100F079F9059085480119BF
:102E20002046059A00F0A0FB04448248011987A2BD
:102E3000204600F099FB044420212846189A00F00F
:102E400085FC60B942464021284600F07FFC30B93D
:102E50004A468021284600F087FC002862D0754849
:102E600001197BA2204600F07FFB04442021284664
:102E7000189A00F06BFC08B36E4801192046189AA6
:102E800000F072FB044442464021284600F05EFCFC
:102E900038B1684801196FA2204600F065FB044470
:102EA0000CE04A468021284600F05EFC30B16148C3
:102EB000011964A2204600F057FB04444A468021D1
:102EC000284600F051FCC8B14B4663A205210BA86F
:102ED000FFF75CF9574801190BAA204600F044FBA4
:102EE000044442464021284600F030FC30B15148AD
:102EF000011954A2204600F037FB04444246402109
:102F0000284600F023FC30B14A48011942462046C9
:102F100000F02AFB04444748011950A2204600F063
:102F200023FB0444C4F58061424A1019069B1B9A96
:102F3000FFF746F9064600200690A019B0F5806F0D
:102F400003D8002E01DB344401E04FF48064201DDF
:102F50005844B0F5806F04D94FF48064241FA4EB6B
:102F60000B04334890F8200058B10020314908552F
:102F70002F4920312F48FDF782F910B900F0AAF847
:102F8000A2E62B4890F8F50030B12A48011934A286
:102F9000204600F0E9FA04442648011932A22046EE
:102FA00000F0E2FA04442146224800F0BFF800F0A5
:102FB00091F800BF88E60000400000207A38000841
:102FC0006C6576656C203C3D20454C4F475F4C5608
:102FD0004C5F564552424F53450000002825732947
:102FE0002068617320617373657274206661696C17
:102FF00065642061742025733A256C642E000000FE
:103000002E2E5C4D6964646C6577617265735C65D6
:103010006173796C6F676765725C7372635C656C12
:103020006F672E6300000000656C6F670000000092
:1030300060050020580600201B5B000028000020CF
:1030400010000020200000005B0000005D20000058
:10305000280000003A000000256C640029000000F0
:103060001B5B306D000000000D0A000010B5084821
:1030700090F8F20030B100F062F80120044981F8C4
:10308000F40003E00120024981F8F30010BD0000C4
:103090006005002010B504460D4880F8F24090F815
:1030A000F200A0B10A4890F8F40030B9084890F84E
:1030B000F30010B100F043F809E0054890F8F4007F
:1030C00028B1034890F8F30008B900F03AF810BDB1
:1030D0006005002010B5084890F8F20030B100F00B
:1030E00030F80020044981F8F40003E00020024990
:1030F00081F8F30010BD00006005002000A07047BB
:10310000626172656D6574616C00000000A07047BB
:103110006D61696E0000000000A0704700000000B3
:1031200010B50024FEF7A3FD204610BD70B504467F
:103130000D462A4621460020FEF79EFD70BD72B660
:10314000704762B67047000010B586B00446052C83
:103150001CDD10480068002811D14FF4AD700E49F5
:103160000EA215A3CDE90310CDE9013200900B4664
:103170001AA224A10020FFF76DFD00BFFEE74FF467
:10318000AD72054905A0034B1B6898471F480470A2
:1031900006B010BD40000020363800086C6576652A
:1031A0006C203C3D20454C4F475F4C564C5F56458C
:1031B00052424F534500000028257329206861734F
:1031C00020617373657274206661696C6564206147
:1031D000742025733A256C642E0000002E2E5C4D61
:1031E0006964646C6577617265735C656173796C41
:1031F0006F676765725C7372635C656C6F672E6383
:1032000000000000656C6F67000000006005002092
:1032100010B5002400BF13E004EB44120A49114426
:10322000481C1F21FDF720F8002104EB441206483A
:10323000815404EB4412104480F82010601CC4B286
:10324000052CE9DB10BD00009105002030B585B0EC
:1032500004460D46052C1CDD10480068002811D1DD
:103260004FF4A0700E490FA215A3CDE90310CDE9CC
:10327000013200900B461BA224A10020FFF7EAFCBC
:1032800000BFFEE74FF4A072054906A0034B1B6880
:103290009847204840F8245005B030BD4000002039
:1032A000193800086C6576656C203C3D20454C4F14
:1032B000475F4C564C5F564552424F534500000005
:1032C00028257329206861732061737365727420E7
:1032D0006661696C65642061742025733A256C64AD
:1032E0002E0000002E2E5C4D6964646C657761725F
:1032F00065735C656173796C6F676765725C737227
:10330000635C656C6F672E6300000000656C6F671F
:10331000000000003806002010B586B00446002CDE
:103320001ED0012C1CD011480068002811D140F299
:1033300015100F490FA219A3CDE90310CDE90132F1
:1033400000900B461EA228A10020FFF783FC00BFBF
:10335000FEE740F21512064906A0044B1B68984789
:10336000234880F8F14006B010BD00004000002066
:10337000E537000828656E61626C6564203D3D207C
:1033800066616C736529207C7C2028656E61626CA7
:103390006564203D3D2074727565290028257329D8
:1033A0002068617320617373657274206661696C53
:1033B00065642061742025733A256C642E0000003A
:1033C0002E2E5C4D6964646C6577617265735C6513
:1033D0006173796C6F676765725C7372635C656C4F
:1033E0006F672E6300000000656C6F6700000000CF
:1033F0006005002010B586B00446002C1ED0012CBC
:103400001CD011480068002811D140F221100F494A
:103410000FA219A3CDE90310CDE9013200900B46AC
:103420001EA228A10020FFF715FC00BFFEE740F216
:103430002112064906A0044B1B689847234880F8D0
:10344000F54006B010BD000040000020FD37000828
:1034500028656E61626C6564203D3D2066616C7319
:103460006529207C7C2028656E61626C6564203D46
:103470003D207472756529002825732920686173C1
:1034800020617373657274206661696C6564206184
:10349000742025733A256C642E0000002E2E5C4D9E
:1034A0006964646C6577617265735C656173796C7E
:1034B0006F676765725C7372635C656C6F672E63C0
:1034C00000000000656C6F670000000060050020D0
:1034D0000EB50B4890F8F00000B90EBD0120FFF7C3
:1034E0001BFF08A009A1F622124BCDE90021029092
:1034F00011A21BA10320FFF7ADFB00BFEDE7000009
:1035000060050020322E322E393900004561737972
:103510004C6F676765722056257320697320696E4A
:10352000697469616C697A65207375636365737327
:103530002E000000D03700082E2E5C4D6964646CAC
:103540006577617265735C656173796C6F676765D8
:10355000725C7372635C656C6F672E6300000000C1
:10356000656C6F6700000000F0B585B006460D463B
:1035700014462746002D1AD124480068002810D18F
:103580002C20234923A224A3CDE90310CDE9013245
:1035900000900B4629A234A10020FFF75BFB00BF7F
:1035A000FEE72C221A491BA0184B1B689847002CD9
:1035B00019D11648006880B92D2015492CA216A3F0
:1035C000CDE90310CDE9013200900B461BA226A1E4
:1035D0000020FFF73FFB00BFFEE72D220C4924A08F
:1035E0000A4B1B6898470AE03046761CB0F5806F9E
:1035F00004D214F8010B05F8010B00E002E020787A
:103600000028F1D100BFE01B05B0F0BD4000002054
:10361000B238000864737400282573292068617328
:1036200020617373657274206661696C65642061E2
:10363000742025733A256C642E0000002E2E5C4DFC
:103640006964646C6577617265735C656173796CDC
:103650006F676765725C7372635C656C6F675F75DB
:1036600074696C732E630000656C6F670000000066
:103670007372630030B585B004460D46052C1CDD21
:1036800013480068002811D140F2DF20114912A22E
:1036900018A3CDE90310CDE9013200900B461EA21C
:1036A00027A10020FFF7D6FA00BFFEE740F2DF2295
:1036B000084909A0064B1B689847234850F8240086
:1036C000284010B1012005B030BD0020FBE700000C
:1036D00040000020863800086C6576656C203C3D13
:1036E00020454C4F475F4C564C5F564552424F5316
:1036F00045000000282573292068617320617373D9
:10370000657274206661696C65642061742025733C
:103710003A256C642E0000002E2E5C4D6964646CAA
:103720006577617265735C656173796C6F676765F6
:10373000725C7372635C656C6F672E6300000000DF
:10374000656C6F67000000003806002070B5054604
:103750000E46144634B131462846FFF78BFF08B1B8
:10376000012070BD0020FCE770B505460E461446EA
:1037700034B131462846FFF77DFF08B1012070BD06
:103780000020FCE7FDF750FAFDF719F8FEF7E0FA24
:10379000FEF778F9FEF700FAFEF7A6F905E0FDF767
:1037A00033F84FF4FA70FDF735F9F8E745617379AE
:1037B0006C6F675465737400000000000000000027
:1037C00001020304060708090000000001020304C7
:1037D000656C6F675F737461727400656C6F675FAF
:1037E00073746F7000656C6F675F7365745F6F757E
:1037F000747075745F656E61626C656400656C6F92
:10380000675F7365745F746578745F636F6C6F7204
:103810005F656E61626C656400656C6F675F7365A0
:10382000745F666D7400656C6F675F7365745F6667
:10383000696C74657200656C6F675F7365745F6651
:10384000696C7465725F6C766C00656C6F675F7332
:1038500065745F66696C7465725F7461675F6C76CE
:103860006C00656C6F675F6765745F66696C746533
:10387000725F7461675F6C766C00656C6F675F6F19
:103880007574707574006765745F666D745F656EDE
:1038900061626C656400656C6F675F66696E645F2A
:1038A0006C766C00656C6F675F66696E645F7461EF
:1038B0006700656C6F675F73747263707900656C25
:1038C0006F675F6370796C6E00656C6F675F6D65C5
:1038D0006D63707900000000412F0000442F00004C
:1038E000452F0000492F0000562F0000572F0000E1
:1038F00033313B32326D000033323B32326D0000E7
:1039000033333B32326D000033343B32326D0000D2
:1039100033353B32326D000033363B32326D0000BE
:103920004039000800000020440000002C2200085C
:103930008439000844000020140E00003C220008D6
:103940000000000010000000010000000024F4004E
:10395000D8380008E0380008EC380008E4380008DF
:10396000DC380008E838000810390008F038000892
:103970000039000818390008F8380008083900082C
:043980000000000043
:040000050800019955
:00000001FF
