:020000040800F2
:1000000010500020F90200081B12000877110008A8
:10001000191200082F0600088913000800000000CC
:10002000000000000000000000000000390200088D
:100030003106000800000000950200083D1200088B
:100040001303000813030008130300081303000838
:100050001303000813030008130300081303000828
:100060001303000813030008130300081303000818
:100070001303000813030008130300081303000808
:100080001303000813030008130300080000000016
:100090000000000000000000000000001303000842
:1000A00013030008E51200081303000813030008F7
:1000B00013030008130300081303000813030008C8
:1000C00013030008130300081303000813030008B8
:1000D00013030008130300081303000800000000C6
:1000E00013030008130300081303000800000000B6
:1000F00000000000000000000000000013030008E2
:100100000000000013030008130300081303000895
:1001100000000000000000000000000000000000DF
:100120001303000813030008130300081303000857
:1001300013030008000000000000000000000000A1
:100140000000000000000000000000001303000891
:100150001303000813030008130300081303000827
:100160001303000813030008000000000000000053
:10017000000000000000000000000000000000007F
:100180000000000013030008000000000000000051
:10019000130300081303000800F002F800F03CF815
:1001A0000AA090E8000C82448344AAF10107DA45D2
:1001B00001D100F031F8AFF2090EBAE80F0013F0E8
:1001C000010F18BFFB1A43F001031847C82B0000AA
:1001D000E82B0000103A24BF78C878C1FAD852073B
:1001E00024BF30C830C144BF04680C6070470000B1
:1001F0000023002400250026103A28BF78C1FBD830
:10020000520728BF30C148BF0B6070471FB502F0CE
:1002100097FD1FBD10B510BD00F0D0F91146FFF7D6
:10022000F5FF01F0C2F800F0EEF903B4FFF7F2FFBA
:1002300003BC00F0F5F900002C4B19680868B0E821
:10024000F04F80F30988BFF36F8F4FF0000080F309
:10025000118870470000000008480068006880F3BB
:1002600008884FF0000080F3148862B661B6BFF3CF
:100270004F8FBFF36F8F00DF00BF00BF08ED00E0BE
:10028000DFF80C00016841F470010160704700BFA5
:1002900088ED00E0EFF30980BFF36F8F134B1A680E
:1002A0001EF0100F08BF20ED108A20E9F04F1060FB
:1002B00009B44FF0500080F31188BFF34F8FBFF3A4
:1002C0006F8F01F0C3FF4FF0000080F3118809BC6D
:1002D00019680868B0E8F04F1EF0100F08BFB0ECC6
:1002E000108A80F30988BFF36F8F704714000020D5
:1002F000EFF3058070470000094880470948004730
:10030000FEE7FEE7FEE7FEE7FEE7FEE7FEE7FEE7C5
:10031000FEE7FEE704480549054A064B7047000022
:10032000D512000899010008104A00201050002042
:10033000104C0020104C002053EA020C00F06980A1
:100340002DE9F04B4FF00006002B1FBFB3FA83F5E9
:1003500003FA05F424FA05F65E4012BF1643B2FA1A
:1003600082F502FA05F4C5F120051EBF22FA05FC4C
:1003700044EA0C04203556EA044C4FEA144418BFF2
:10038000641C4FF000084FF00009904271EB030C21
:1003900039D3002919BFB1FA81F701FA07F6B0FA8B
:1003A00080F700FA07F6C7F120071EBF20FA07FC06
:1003B00046EA0C062037B6FBF4FCA7EB0507103F16
:1003C00007F01F0BCBF120060CFA0BFB2CFA06F6FC
:1003D00044BFB3460026202FA4BF5E464FF0000B5B
:1003E0005BEA060C08BF4FF0010B19EB0B09ABFBE6
:1003F000027C48EB0608C01B06FB02CC0BFB03CCBF
:1004000071EB0C01C1E70B46024641464846BDE888
:10041000F08B13B54FF000004FF00001AFF30080F8
:10042000BDE81C407047032A40F2308010F0030CF6
:1004300000F0158011F8013BBCF1020F624498BF37
:1004400011F801CB00F8013B38BF11F8013BA2F1D4
:10045000040298BF00F801CB38BF00F8013B11F04F
:10046000030300F05780083AC0F0088051F8043BBD
:10047000083A51F804CBA0E80810F5E7121D5CBF5C
:1004800051F8043B40F8043BAFF30080D20724BF8F
:1004900011F8013B11F801CB48BF11F8012B24BF23
:1004A00000F8013B00F801CB48BF00F8012B704772
:1004B00002F0FF0343EA032242EA024200F05EB880
:1004C0004FF0000200B5134694469646203922BFED
:1004D000A0E80C50A0E80C50B1F12001BFF4F7AF38
:1004E000090728BFA0E80C5048BF0CC05DF804EB1A
:1004F000890028BF40F8042B08BF704748BF20F888
:10050000022B11F0804F18BF00F8012B7047704785
:100510007047704710B5203AC0F00B80B1E8185012
:10052000203AA0E81850B1E81850A0E81850BFF4DD
:10053000F5AF5FEA027C24BFB1E81850A0E818507C
:1005400044BF18C918C0BDE810405FEA827C24BFD0
:1005500051F8043B40F8043B08BF7047D20728BF5E
:1005600031F8023B48BF11F8012B28BF20F8023BAD
:1005700048BF00F8012B70474FF000020429C0F07B
:10058000128010F0030C3FF49DAFCCF1040CBCF1D1
:10059000020F18BF00F8012BA8BF20F8022BA1EB17
:1005A0000C01FFF78FBF5FEAC17C24BF00F8012B6D
:1005B00000F8012B48BF00F8012B7047754600F08A
:1005C0002BF8AE4605006946534620F007008546E5
:1005D00018B020B5FFF79EFEBDE820404FF00006A2
:1005E0004FF000074FF000084FF0000B21F007011B
:1005F000AC46ACE8C009ACE8C009ACE8C009ACE85E
:10060000C0098D46704710B50446AFF30080204600
:10061000BDE81040FFF709BE00487047B049002010
:1006200001491820ABBEFEE7260002007047FEE736
:10063000704700002DE9F84FDFF8B8A1002201242F
:1006400003254FF00F090AF1040BAAF1040E00BFB5
:100650000B6804FA02F63340B34273D10F7907F006
:100660000307012F01D0022F16D187684FEA4208F5
:1006700005FA08FC27EA0C07D1F80CC00CFA08FCB4
:100680004CEA070CC0F808C04768B7430E79C6F3B8
:10069000001696403E4346600E79F643B6070DD0ED
:1006A000C768560005FA06FC27EA0C07D1F808C00F
:1006B0000CFA06FC4CEA070CC0F80CC00E7906F0E8
:1006C0000306022E10D1D60800EB8608D8F8206069
:1006D00057074FEAD76C09FA0CF7BE430F6907FAC0
:1006E0000CF73743C8F8207006684FEA420C05FA49
:1006F0000CF7BE430F7907F0030707FA0CF73743EF
:1007000007604E6816F4403F6DD03B4E376847F4A3
:1007100080473760366822F0030706F4804600966B
:10072000364E07EB060CDCF8086897073F0F09FA0E
:1007300007F826EA0806DFF8C880404503D14FF0E5
:1007400000081EE04FE0DFF8BC80404502D14FF0CA
:10075000010816E0DFF8B080404502D14FF00208F2
:100760000FE0DFF8A880404502D14FF0030808E011
:10077000DFF89C80404502D14FF0040801E04FF0C3
:10078000070808FA07F848EA0608CCF80888DAF8F3
:1007900000605746D1F804C09E435FEACC2C00D5D8
:1007A0001E433E60DBF800605F46D1F804C09E4304
:1007B0005FEA8C2C00D51E433E60DEF80060774671
:1007C000D1F804C09E435FEA8C3C00D51E433E60D6
:1007D000084F083F3E68D1F804C09E435FEACC3C16
:1007E00000D51E433E60521C102AFFF431AFBDE815
:1007F000F88F0000083C01404438024000300140BE
:10080000000002400004024000080240000C0240C8
:1008100000100240426921EA02030A4043EA024111
:10082000816170470AB1816170470904FBE70000EC
:100830000148806870470000040000200248816879
:100840000278114481607047040000200B4810B505
:10085000016841F400710160016841F48061016048
:10086000016841F480710160032000F099F80F20C5
:1008700000F006F800F04AF8002010BD003C0240ED
:1008800030B505461C4887B00024016841F40031AA
:100890000160006806A900F40030009001A800F093
:1008A0002BF900F049F91549154AB0FBF1F115484B
:1008B000491E026040F2E732C0E90324C0E9011496
:1008C000846100F033FB040012D10E4800F05CFBA1
:1008D00004000DD1192000F035F8102D07D20022A8
:1008E0002946192000F03CF80748056000E0012483
:1008F00007B0204630BD00004438024040420F009F
:100900000044014094000020080000200C4882B000
:10091000016841F480410160006800F4804000906B
:100920000748001F016841F0805101600068002203
:1009300000F0805000900F21901E02B000F010B81F
:1009400044380240002809DB00F01F0201219140D9
:100950004009800000F1E020C0F80011704700005D
:10096000F0B40E4B1B680C46C3F30223C3F107051A
:10097000042D00D90425191D072901D2002300E008
:10098000DB1E012606FA05F1491E214099409E40D2
:10099000761E16403143F0BC00F0F7BC0CED00E0D1
:1009A000064900F0070208684FF6FF03184040EAC6
:1009B0000220034A10430860704700000CED00E07D
:1009C0000000FA052DE9F0470E46050065D0DFF876
:1009D0001481D8F80000F7B200F00700B04207D247
:1009E00088F80070D8F8000000F00700B04254D139
:1009F00028683D4C810712D5400703D5206840F494
:100A0000E05020602878000703D5206840F460405B
:100A100020602068A96820F0F00008432060287852
:100A2000C0072DD0304968680839012812D0022843
:100A300013D0032811D00968890700292DDA21680D
:100A400021F0030101432160FFF7F2FE814641F2EC
:100A5000883A0EE009688903EFE709688901ECE745
:100A6000FFF7E6FEA0EB0901514502D90320BDE8DE
:100A7000F0872068696800F00C00B0EB810FEFD1BF
:100A8000D8F80010404601F00701B14207D90770BD
:100A9000006800F00700B04201D00120E7E72878A5
:100AA000400705D52068E96820F4E050084320603D
:100AB0002878000706D52068296920F4604040EABC
:100AC000C100206000F048F82168084AC1F3031112
:100AD000515CC8400649086006480068FFF7D0FE30
:100AE0000020C4E7003C024008380240702D000896
:100AF00010000020080000200F2202600C4A13683A
:100B000003F003034360136803F0F003836013688A
:100B100003F4E053C36012684FF4E05303EAD202D7
:100B200002610448006800F0070008607047000098
:100B300008380240003C0240044805490068096842
:100B4000044AC1F34231515CC84070471000002094
:100B500008380240802D0008154810B5006810F0D4
:100B60000C02144813D01449042A0FD0082A0ED1BD
:100B70000F4C241F2268236802F03F025B0207D556
:100B80002068C0F38810A0FB010106E0084610BDF4
:100B90002168C1F38811A1FB00010023FFF7CCFB02
:100BA0002168C1F30141491C4900B0FBF1F010BDBF
:100BB000083802400024F40040787D012DE9F84F08
:100BC00004006ED02078DFF84C93C007A9F104052B
:100BD0004AD009F104000168C1F38101012908D05C
:100BE0000068C0F3810002280AD1D9F80000400251
:100BF00006D52868800337D560680028E1D033E047
:100C00006068B0F5803F10D0B0F5A02F286810D0F4
:100C100020F480302860286820F4802028606068F4
:100C2000A8B1FFF705FE06460DE0286840F48030C5
:100C3000F4E740F480202860F7E700BFFFF7F8FDF5
:100C4000801B642873D828688003F7D50CE0FFF771
:100C5000EFFD064605E000BFFFF7EAFD801B6428B4
:100C6000F0D828688003F7D42078DFF8AC828007BA
:100C70004FF0000A3ED5A748001D016811F00C0F87
:100C800008D00068C0F3810002280BD1D9F8000019
:100C9000400207D42868800716D5E068012800D1F3
:100CA00012E033E1E068B8B10120C8F80000FFF7B6
:100CB000BFFD064605E000BFFFF7BAFD801B022816
:100CC000C0D828688007F7D52868216920F0F80087
:100CD00040EAC10028600DE0C8F800A0FFF7A8FDB9
:100CE000064604E0FFF7A4FD801B02281FD82868F1
:100CF0008007F7D42078000722D5864F874861699E
:100D0000703771B101210160FFF792FD064604E0E2
:100D1000FFF78EFD801B022809D838688007F7D5B9
:100D20000EE0C0F800A0FFF783FD064605E082E074
:100D3000FFF77EFD801B02287DD838688007F7D436
:100D40002078400768D5DFF8CCB100270BF13C0BC9
:100D5000DBF80000C0000BD4DBF8001041F080513C
:100D6000CBF80010DBF80000012700F08050009065
:100D70006B4E3068C00510D4306840F4807030602D
:100D8000FFF756FD009005E0FFF752FD0099401A6D
:100D9000022850D83068C005F6D55E4EA0686C3683
:100DA00001280FD00528306810D020F001003060F5
:100DB000306820F004003060A068B8B1FFF738FD5B
:100DC00000900FE0306840F00100F4E740F00400CC
:100DD0003060F7E7FFF72CFD0099411A41F28830A7
:100DE000814266D830688007F4D50EE0FFF720FD19
:100DF000009007E0FFF71CFD0099411A41F288308E
:100E0000814256D830688007F4D42FB1DBF8001047
:100E100021F08051CBF80010A069C8B33D49091DED
:100E20000968C1F3810102294AD00228504607D03F
:100E3000C8F8600000E03CE0FFF7FAFC04463BE045
:100E40004746C8F86000FFF7F3FC064605E000BF20
:100E5000FFF7EEFC801B02282BD828688001F7D40E
:100E6000D4E907010843A16A2E4A490802EB01416F
:100E7000626A41EA8211084394F82C1040EA016149
:100E8000C9F8001001203866FFF7D2FC044606E0DE
:100E90003EE000BFFFF7CCFC001B022809D8286801
:100EA0008001F7D534E000BFFFF7C2FC001B022829
:100EB00002D90320BDE8F88F28688001F4D427E028
:100EC0000128F7D0D9F80000E26900F480019142CE
:100ED0001CD1226A00F03F01914217D147F6C07140
:100EE000626A0140B1EB821F10D1A26A4FF0FF335A
:100EF00000F4403103EB5202B1EB024F06D194F8FB
:100F00002C1000F07060B0EB016F01D00120D1E730
:100F10000020CFE70438024000004742800E4742DD
:100F2000007000400000FFFF7047704710B50400DC
:100F300003D094F83D0010B107E0012010BD00205F
:100F400084F83C00204600F01EF8022084F83D00A2
:100F5000211D206800F0CCF9012084F8460084F8B7
:100F60003E0084F83F0084F8400084F8410084F893
:100F7000420084F8430084F8440084F8450084F873
:100F80003D00002010BD704790F83D10012901D0B0
:100F900001207047022180F83D100168CA6842F0C4
:100FA0000102CA6000680E4988420ED0B0F1804F3D
:100FB0000BD00C49884208D00B49884205D00B4918
:100FC000884202D00A49884204D1816801F00701B1
:100FD000062903D0016841F001010160002070473B
:100FE000000001400004004000080040000C0040E8
:100FF00000400140704770B50446006801694FF039
:101000000005C943890715D4C168C943890711D4AC
:10101000E91E016101202077206880698007204651
:1010200002D0FFF7E7FF04E000F098F8204600F058
:1010300096F8257720680169C943490717D4C16824
:10104000C943490713D46FF00401016102202077DE
:101050002068806910F4407F204602D0FFF7CAFF65
:1010600004E000F07BF8204600F079F8257720684E
:101070000169C943090716D4C168C943090712D4D5
:101080006FF008010161042020772068C0698007A3
:10109000204602D0FFF7AEFF04E000F05FF82046E4
:1010A00000F05DF8257720680169C943C90617D4A7
:1010B000C168C943C90613D46FF01001016108204B
:1010C00020772068C06910F4407F204602D0FFF7E7
:1010D00091FF04E000F042F8204600F040F8257748
:1010E00020680169C943C90708D1C168C943C90754
:1010F00004D1891E0161204600F032F820680169A0
:10110000C943090609D4C168C943090605D46FF06B
:10111000800101612046FFF707FF20680169C9438C
:10112000490609D4C168C943490605D46FF0400196
:101130000161204600F01EF820680169C943890654
:101140000BD4C168C943890607D46FF0200101613F
:101150002046BDE87040FFF7E8BE70BD704770479D
:1011600000680349884201D1FFF768BB704700005F
:10117000004401407047FEE710B5044A00210448CE
:1011800000F060F90349086010BD00004C2D000814
:101190001D1200080000002070B586B014216846BA
:1011A000FFF78EF919480024016841F0040101603D
:1011B000016801F004010591016841F080010160BE
:1011C000016801F080010591016841F001010160B1
:1011D00000680F4E00F001004FF40055059000220A
:1011E00029463046FFF71EFB00950125CDE9015445
:1011F000694630460394FFF71DFACDE9005469466D
:1012000004480295FFF716FA06B070BD3038024068
:101210000008024000000240FEE7FEE7064D4FF4E2
:1012200000544FF4FA7621462846FFF7F3FA304689
:1012300000F0C8F8F7E700000008024010B54FF0D2
:10124000E020006901F0B2FB012803D0BDE81040A6
:1012500001F0B4B810BD000010B592B0302168465E
:10126000FFF72EF914210CA8FFF72AF917480024DC
:10127000016841F080510160006800F080501190D9
:101280001348016841F4404101600068069400F48D
:101290004040119002200090012003901020049003
:1012A0006846FFF78BFC08B172B6FEE70F20CDE968
:1012B0000C040E940F9400210CA81094FFF782FBED
:1012C000002801D072B6FEE712B010BD40380240CF
:1012D000007000400248016841F4700101607047ED
:1012E00088ED00E00148FFF786BE00009400002072
:1012F000F0B502681D4B1E4C9F031E4D1E4E9842BA
:1013000007D0B84205D0A04203D0A84201D0B042D5
:1013100004D122F0700C4A6842EA0C02984210D0C4
:10132000B8420ED0A0420CD0A8420AD0B04208D099
:10133000124CA04205D0124CA04202D0114CA04247
:1013400003D122F44074CA6822434C6922F080021F
:10135000224302608A68C2620A688262984201D1AE
:101360000969016301214161F0BD000000000140F5
:101370000004004000080040000C00400040014014
:101380000044014000480140FEE70907090E00281B
:1013900004DB00F1E02080F80014704700F00F003B
:1013A00000F1E02080F8141D7047FFF74FFAFFF7B7
:1013B00053FFFFF7F1FE00F015F8FFF7DDFE00F038
:1013C00025F8FEE710B50146EFF3058010B16FF088
:1013D000050404E0002411B1084600F079FE20461F
:1013E00010BD0000EFF30580002802D06FF005006B
:1013F00070470548016811B14FF0FF307047012177
:1014000001600020704700006400002010B5EFF379
:101410000580002802D06FF0050010BD0748016864
:10142000012902D04FF0FF3010BD054A0021117094
:101430000221016000F0BAFE002010BD640000200F
:101440001FED00E02DE9F04385B00B464FF000079B
:101450000497EFF3058100294ED100284CD0802459
:101460004FF0180C8946491E52B3166806B1B146B2
:10147000956905B1AC46ACF10105382D03D215795B
:1014800015F0010F03D005B00020BDE8F0835569C9
:1014900005B1AC08D2F80880B8F1000F07D0D668C3
:1014A0005C2E04D3166916B10DB1012109E0B8F123
:1014B000000F06D1D56825B9156915B9002100E0DE
:1014C0000021012901D061B116E0916812690192F1
:1014D0000291CDF800C02246494601F037FA049047
:1014E0000AE004A90191A2B2CDF800C0494601F07A
:1014F000F7F9012800D00497049805B0BDE8F083FF
:101500002DE9F04104460F46134EF5683068001D82
:1015100000F0A0FCB4F1FF3F07D137B13068BDE85F
:10152000F041011D0D4800F0E8BC2C4430684460D7
:10153000AC4206D23068011DB06BBDE8F04100F04E
:10154000C1BC3068011D706B00F0BCFCB06A844205
:1015500000D2B462BDE8F08114000020CC05002068
:1015600070B5044600F0D6FC1C4DA868401CA8606D
:10157000286810B1686938B10CE02C60A8680128AF
:1015800008D100F093F905E02868E16AC06A884252
:1015900000D82C60686A401C68626064E06A29694F
:1015A000884200D928610E4900EB800001EB8000E1
:1015B000211D00F0A2FC00F0CDFC686900280CD0D1
:1015C0002868E16AC06A884207D206494FF0805015
:1015D0000860BFF34F8FBFF36F8F70BD1400002002
:1015E0001C01002004ED00E038B500F093FC0F4C26
:1015F0002068B8B90E4800F057FC0E4800F054FCC3
:101600000B48E0601430206100200B4B009003F188
:10161000500210210A2000F0E7FE206010B107A15F
:1016200000F01CFDBDE8384000F094BC50000020E4
:10163000D0060020E4060020E0050020546D725121
:101640000000000070B50D4C6068002815D00C4EED
:1016500000F060FCF068C568281D00F0FBFBA06886
:10166000401EA0606068401E606000F073FC284669
:1016700000F051F860680028EAD170BD1400002025
:10168000B80500200B46026C002A0CD0C16811443A
:10169000C160D0F808C0614501D30168C160C1686C
:1016A0001846FEF7C0BE70472DE9F04104461646C5
:1016B0000027A56B226C002A10D0C6B1E068FEF7A7
:1016C000B2FEE168206C091AE1602268914202D200
:1016D000A168081AE060022E16D017E02068A8B9A9
:1016E000A06801F0DDF907460020A0600EE0606808
:1016F000FEF799FE216C606808446060A16888422A
:1017000004D32068606001E005B16D1E681CA06311
:101710003846BDE8F08110B5044694F85910002908
:101720000BD0012911D0022914D0502080F3118848
:10173000BFF34F8FBFF36F8FFEE7206B00F020FCED
:101740002046BDE8104000F01BBC2046BDE810401C
:1017500000F016BC10BD00000749CA6811680029D6
:1017600004D00021016019B1002070470121F9E780
:10177000D068006870470000500000204FF470519E
:10178000104810F0070F06D0C01D20F007000D49CB
:10179000411AC1F570510C4A106000235360014496
:1017A000083921F00701183A11604B600B600B1AE1
:1017B000436001604068906050604FF000405061AD
:1017C00070470000B00D002080000020074E4FF051
:1017D0008054074DFFF736FF30680128FAD92C6096
:1017E000BFF34F8FBFF36F8FF4E700001C010020A1
:1017F00004ED00E070B51D46049C002909D022606C
:10180000E06321640121204600F026FE84F84C505C
:1018100070BD2460F4E72DE9F05F82460B9F0A9DBE
:101820000C9C0E4690469B464FEA8801A522206BF1
:10183000FEF73EFE206BA8F1010100EB810020F0D5
:1018400007094FF0000866B100202218315C82F8C9
:101850003410315C11B1401C1028F6D384F8438059
:1018600001E084F83480382D00D33725E562E56443
:10187000C4F85080201D00F022FB04F1180000F095
:101880001EFB2461C5F13800A0616462C4F8548075
:1018900084F858805A465146484600F0C5FA206000
:1018A000002F00D03C60BDE8F09F000070B5002420
:1018B0000F4D04EB840005EB800000F0F5FA641C8A
:1018C000382CF6D30B4800F0EFFA0B4800F0ECFA96
:1018D0000A4800F0E9FA0A4800F0E6FA094800F080
:1018E000E3FA0948034941631431816370BD000084
:1018F0001C0100207C05002090050020A40500208C
:10190000B8050020CC0500201400002010B41449B4
:1019100000E011460A688242FBD34B6803EB010CDE
:10192000844503D140681844486008460C68D0F8E4
:1019300004C00CEB0003A3420CD10A4B1B689A4273
:1019400006D05268624442600A681268026002E08F
:10195000036000E00260814200D0086010BC704764
:10196000800000206800002010B500244160006164
:10197000DFF838C091420BD8D11A8269914201D365
:10198000012410E0011DDCF8100000F09BFA0AE0D1
:101990009A4203D2994201D3012404E0011DDCF8EC
:1019A0000C0000F08FFA204610BD0000500000200F
:1019B00010B5044600F0AEFAA06B20B1002400F090
:1019C000C9FA204610BD0124F9E710B5044600F01D
:1019D000A1FAA06BE16B884201D1012400E0002450
:1019E00000F0B8FA204610BDF8B505460E46174877
:1019F000C068C068C468201D00F02CFA94F8280064
:101A000010F0040F18D0A0692B4641193246204629
:101A1000FFF7AAFFA0B100200346014600902A4626
:101A2000204601F053F958B9502080F31188BFF3D4
:101A30004F8FBFF36F8FFEE720F0010084F828007E
:101A4000216A01B02046BDE8F04008475000002060
:101A500030B587B0414D002202A9286800F05CFE35
:101A6000002875D00298002803DA039A0599049893
:101A700090470298002864DB049C606910B1201D27
:101A800000F0E8F901A800F0B3F8024602980A282D
:101A900057D2DFE800F00505052F364D05052F3636
:101AA00094F8280040F0010084F828000398A16908
:101AB000034601442046FFF757FF002841D0216A22
:101AC0002046884794F8280010F0040F39D00020F1
:101AD00000900398A169002342181946204601F09E
:101AE000F5F870BB502080F31188BFF34F8FBFF320
:101AF0006F8FFEE794F8280020F0010084F828009A
:101B00001FE094F8280040F0010084F828000398B2
:101B1000A06128B1811813462046FFF725FF10E089
:101B2000502080F31188BFF34F8FBFF36F8FFEE714
:101B300094F8280010F0020F0CD020F0010084F877
:101B40002800002202A9286800F0E6FD002889D1BB
:101B500007B030BD204600F013FAF2E75000002035
:101B6000F8B505460C4600F069FB684600F040F801
:101B70000646009810B101F00FF8F8BD44B9B5421F
:101B800006D801F009F831462846FFF72DFFF8BDC9
:101B90000C481CB10169096891B10024A91B2246B7
:101BA000006800F06FFA00F0F7FF0028EFD1064957
:101BB0004FF080500860BFF34F8FBFF36F8FF8BDB9
:101BC0000124EBE75000002004ED00E00749486BDA
:101BD0000068002805D0486BC068C068406888620B
:101BE00070474FF0FF3088627047000014000020FB
:101BF00070B5044600F0E8FE0546074EB068854221
:101C000004D200F00BF80120206001E000202060E9
:101C1000B560284670BD000050000020F8B51C4E8D
:101C2000F0680068002826D00027F068C0680568C2
:101C3000C468201D00F00EF9216A2046884794F8F8
:101C4000280010F0040F12D0A0692844A84206D939
:101C500060602461211DF06800F034F907E0002382
:101C60002A4619462046009701F030F840B1F06846
:101C700000680028D9D1F0683169F1603061F8BDA1
:101C8000502080F31188BFF34F8FBFF36F8FFEE7B3
:101C9000500000200A484068B0F1FF3F07D05020B4
:101CA00080F31188BFF34F8FBFF36F8FFEE7502093
:101CB00080F31188BFF34F8FBFF36F8FFEE70000F3
:101CC0008800002082B001A8FFF746FD0199FFF7C8
:101CD00047FFFFF7BDFEF6E770B5044600F01AF9BE
:101CE00094F94550002D0CDD606A50B104F12400D8
:101CF00000F016FF08B100F01BFA681E45B2002D77
:101D0000F2DC4FF0FF3684F8456000F023F900F074
:101D100001F994F94450002D0CDD206950B104F113
:101D2000100000F0FDFE08B100F002FA681E45B296
:101D3000002DF2DC84F84460BDE8704000F00AB980
:101D40002DE9F0410546002600F078FA344F386856
:101D500008B9FFF713FD7869054251D19DB10835E7
:101D600015F0070F0FD005F00700C0F1080005447B
:101D700015F0070F07D0502080F31188BFF34F8F65
:101D8000BFF36F8FFEE7002D3AD07868854237D8D1
:101D900024490846046801E0214604466068A842D8
:101DA00002D220680028F7D13868844228D0086819
:101DB00000F10806206808606068411B10290FD9EF
:101DC000601910F0070F07D0502080F31188BFF37F
:101DD0004F8FBFF36F8FFEE741606560FFF796FDA1
:101DE00061687868401A7860BA68904200D2B8603A
:101DF00078690843606000202060F868401CF86043
:101E000000F0CAFE16F0070F07D0502080F31188AB
:101E1000BFF34F8FBFF36F8FFEE73046BDE8F08111
:101E20006800002080000020001F4FF080730360D6
:101E3000001F21F001010160001F054901601438F5
:101E40000260001F6FF0020101602038704700003F
:101E5000951C00080169436882689A60836842683B
:101E60005A604A68824201D182684A600022026157
:101E70000868401E0860086870470000034B036054
:101E800003F15C000860802010607047F8060020B5
:101E9000044B036003F15C0008604FF48070106035
:101EA000704700005409002000F1080141604FF024
:101EB000FF328260C1600161002101607047002132
:101EC0000161704710B4D1F800C0BCF1FF3F02D0EF
:101ED00000F1080202E0026904E01A4653681C6837
:101EE0006445FAD953684B6099608A605160086113
:101EF0000168491C016010BC704742684A609368E1
:101F00008B6093685960916008610168491C0160A9
:101F100070470000502080F31188BFF34F8FBFF34C
:101F20006F8F0A494868401C486001280CD1084856
:101F3000006810F0FF0F07D0502080F31188BFF326
:101F40004F8FBFF36F8FFEE77047000088000020BF
:101F500004ED00E009494868002806D0401E4860AA
:101F6000002801D180F311887047502080F3118838
:101F7000BFF34F8FBFF36F8FFEE700008800002094
:101F800070B500282AD0A0F10804154D6068696971
:101F9000084207D1502080F31188BFF34F8FBFF361
:101FA0006F8FFEE722683AB1502080F31188BFF3AB
:101FB0004F8FBFF36F8FFEE78843606000F03EF9FC
:101FC00060686968084468602046FFF79FFC2869DC
:101FD000401C2861BDE8704000F0DEBD70BD00000F
:101FE000680000204FF0E020002101618161054977
:101FF0004FF47A720968B1FBF2F1491E4161072181
:10200000016170471000002010B5FEF771F9114909
:1020100010280ED300F1E02090F8F0030A789042E7
:1020200007D2502080F31188BFF34F8FBFF36F8F1B
:10203000FEE709480068896800F4E060884207D933
:10204000502080F31188BFF34F8FBFF36F8FFEE7EF
:1020500010BD0000880000200CED00E00022084BBD
:1020600053F832C0BCF1000F03D0521C082AF7D33A
:10207000704743F8321003EBC2014860704700001C
:10208000DC00002070B504460D461646FFF742FFFF
:1020900094F94400B0F1FF3F4FF0000001D184F803
:1020A000440094F94510B1F1FF3F01D184F8450097
:1020B000FFF750FFA06B28B93246294604F12400EF
:1020C00000F056F82046BDE87040FFF705BE00005E
:1020D00010B502460020002A12D00F48006B38B11C
:1020E000502080F31188BFF34F8FBFF36F8FFEE74F
:1020F00000F0A4F800211046FFF702FA00F04CFDB2
:10210000002807D105494FF080500860BFF34F8F7A
:10211000BFF36F8F10BD00001400002004ED00E03D
:1021200002490A6A0260C9684160704714000020D1
:1021300001490120C86170471400002010B50C4609
:1021400000280BD0094A126802F11801FFF7BAFE05
:102150002046BDE810400121FFF7D2B9502080F39E
:102160001188BFF34F8FBFF36F8FFEE7140000207D
:1021700070B50D46144600280DD00B49096818317A
:10218000FFF7BBFE0CB14FF0FF3521462846BDE8F6
:102190007040FFF7B5B9502080F31188BFF34F8F1F
:1021A000BFF36F8FFEE700001400002030B587B04A
:1021B00000250695059504AA05A906A8FFF75EFE69
:1021C00006980599019102900023009517A11948DE
:1021D000049A00F0BBFB184CE06208B1012000E05B
:1021E0000020012801D100F03DFD01280AD0B0F106
:1021F000FF3F19D1502080F31188BFF34F8FBFF3F9
:102200006F8FFEE7502080F31188BFF34F8FBFF32D
:102210006F8F4FF0FF30A06201206061E56007B072
:10222000BDE8304000F048B807B030BD49444C45E7
:1022300000000000CD170008140000200248016BC8
:10224000491C01637047000014000020184B186BF4
:10225000002802D00120D86170470020D861186999
:10226000144900EB800251F822203AB9C0B1401E57
:1022700000EB800251F82220002AF7D000EB800208
:1022800001EB82014A6852684A6001F1080C62451C
:1022900001D152684A604968C9681960186170477D
:1022A000502080F31188BFF34F8FBFF36F8FFEE78D
:1022B000140000201C01002010B582B038480168CD
:1022C000384A914207D1502080F31188BFF34F8FD5
:1022D000BFF36F8FFEE700683349884207D1502073
:1022E00080F31188BFF34F8FBFF36F8FFEE72F4945
:1022F00008780190FF200870087800909DF8000091
:102300009DF8002000F0F000904207D0502080F3AC
:102310001188BFF34F8FBFF36F8FFEE79DF800006A
:10232000234C00F0500020700720A0609DF80000B2
:1023300010F0800F0BD0A068401EA0609DF8000038
:10234000400000909DF8000010F0800FF3D1A068CD
:10235000032807D0502080F31188BFF34F8FBFF3BD
:102360006F8FFEE74FF44070A0600198087011482D
:10237000016841F470010160016841F07041016041
:10238000FFF730FE00206060FDF77AFF0A48016821
:1023900041F040410160FDF75FFF02B0002010BD39
:1023A00000ED00E071C20F4170C20F4100E400E097
:1023B0008800002020ED00E034EF00E010B5502050
:1023C00080F31188BFF34F8FBFF36F8F00F002FBD4
:1023D00018B104494FF080500860002080F3118844
:1023E00010BD000004ED00E038B5049D002804D0C5
:1023F0005BB102B189B1C2B120E0502080F31188F5
:10240000BFF34F8FBFF36F8FFEE7502080F311882B
:10241000BFF34F8FBFF36F8FFEE7502080F311881B
:10242000BFF34F8FBFF36F8FFEE739B1502080F3BA
:102430001188BFF34F8FBFF36F8FFEE74FF0500C43
:10244000CDF800C01C46012384F846302B4600948A
:10245000FFF7D0F9204638BD70B504460D46002C74
:1024600025D0FFF757FD226CE16B206801FB0200CD
:10247000A0600020A06320686060E16B226C20688F
:10248000491E01FB0200E0604FF0FF3084F8440079
:1024900084F845009DB104F11000FFF705FD04F13B
:1024A0002400FFF701FDFFF755FD012070BD50200E
:1024B00080F31188BFF34F8FBFF36F8FFEE7206962
:1024C0000028F0D004F1100000F02AFB0028EAD028
:1024D00004494FF080500860BFF34F8FBFF36F8FF8
:1024E000E1E7000004ED00E02DE9FF4782B004467B
:1024F0008A461F460025002C03D0BAF1000F08D0F1
:1025000011E0502080F31188BFF34F8FBFF36F8F1E
:10251000FEE7206C38B1502080F31188BFF34F8F55
:10252000BFF36F8FFEE7022F0AD1E06B012807D0BF
:10253000502080F31188BFF34F8FBFF36F8FFEE7FA
:1025400000F034FA48B9049838B1502080F311886B
:10255000BFF34F8FBFF36F8FFEE700264FF0805819
:10256000DFF8F090FFF7D6FCA06BE16B884205D353
:10257000022F03D0049808B335B329E03A465146F8
:102580002046FFF791F8616A59B104F1240000F088
:10259000C7FA68B1C9F80080BFF34F8FBFF36F8FE0
:1025A00006E028B1C9F80080BFF34F8FBFF36F8FEB
:1025B000FFF7D0FC06B00120BDE8F087FFF7CAFCAA
:1025C00006B00020BDE8F0876846FFF7A9FD0125A9
:1025D000FFF7C0FCFFF732FEFFF79CFC94F94400C4
:1025E000B0F1FF3F01D184F8446094F94500B0F1A7
:1025F000FF3F01D184F84560FFF7ACFC04A96846B1
:1026000000F02EF940B12046FFF766FB00F0C4FA57
:1026100006B00020BDE8F0872046FFF7D6F990B15C
:1026200004F110000499FFF789FD2046FFF754FBE1
:1026300000F0B2FA002895D1C9F80080BFF34F8F9F
:10264000BFF36F8F8EE72046FFF746FB00F0A4FA3A
:1026500088E7000004ED00E02DE9F04704468946D4
:1026600017461E46002C03D0B9F1000F08D011E028
:10267000502080F31188BFF34F8FBFF36F8FFEE7B9
:10268000206C38B1502080F31188BFF34F8FBFF317
:102690006F8FFEE7022E0AD1E06B012807D0502091
:1026A00080F31188BFF34F8FBFF36F8FFEE7FFF703
:1026B000ABFC5020EFF3118880F31188BFF34F8FEC
:1026C000BFF36F8FA06BE16B884206D3022E04D05C
:1026D000002088F31188BDE8F08794F94550A06B7D
:1026E000324649462046FEF7DFFFB5F1FF3F04D0F2
:1026F000681C84F845000120EBE7606A0028FAD0E6
:1027000004F1240000F00CFA0028F4D0002FF2D0DD
:1027100001203860EFE700002DE9F74783B0044659
:102720008A460025002C03D0BAF1000F08D011E032
:10273000502080F31188BFF34F8FBFF36F8FFEE7F8
:10274000206C38B1502080F31188BFF34F8FBFF356
:102750006F8FFEE700F02AF948B9059838B150208C
:1027600080F31188BFF34F8FBFF36F8FFEE7002711
:102770004FF08058DFF8E490FFF7CCFBA66BC6B1B2
:1027800051462046FEF77EFF701EA063206950B1BF
:1027900004F1100000F0C4F928B1C9F80080BFF3BB
:1027A0004F8FBFF36F8FFFF7D5FB06B00120BDE859
:1027B000F087059808B135B109E0FFF7CBFB06B00B
:1027C0000020BDE8F0876846FFF7AAFC0125FFF767
:1027D000C1FBFFF733FDFFF79DFB94F94400B0F117
:1027E000FF3F01D184F8447094F94500B0F1FF3FF8
:1027F00001D184F84570FFF7ADFB05A9684600F0EC
:102800002FF868B12046FFF767FA00F0C5F92046B7
:10281000FFF7CEF80028AFD006B00020BDE8F08763
:102820002046FFF7C5F890B104F124000599FFF7A1
:1028300085FC2046FFF750FA00F0AEF900289BD146
:10284000C9F80080BFF34F8FBFF36F8F94E7204626
:10285000FFF742FA00F0A0F98EE7000004ED00E077
:1028600070B505460C46002D15D0E4B1FFF752FBBC
:10287000DFF868C0DCF80C006B68C11A2268B2F19E
:10288000FF3F18D02E68DCF820C0664515D0834283
:1028900013D801241DE0502080F31188BFF34F8F1F
:1028A000BFF36F8FFEE7502080F31188BFF34F8F87
:1028B000BFF36F8FFEE700240BE08A4206D9501A5F
:1028C00020602846FFF72CFC002402E00020206056
:1028D0000124FFF73FFB204670BD000014000020DC
:1028E0002DE9F04F85B081460F9F0E9E8A46904697
:1028F0009B464FEA8800FFF723FA054628000AD0D6
:102900005C20FFF71DFA04460CB1256304E028465D
:10291000FFF736FB00E000249CB1002084F859004A
:1029200003905B4642465146019700960294484602
:10293000FEF771FF2046FEF713FE05B00120BDE84B
:10294000F08F05B04FF0FF30BDE8F08F70B586B066
:102950000646DDF828C00C9C0B98002816D0ECB178
:102960005C2504952063022084F85900002005AD01
:102970000390CDF800C0019502943046FEF74BFF5E
:102980002046FEF7EDFD059806B070BD502080F39F
:102990001188BFF34F8FBFF36F8FFEE7502080F396
:1029A0001188BFF34F8FBFF36F8FFEE70548416972
:1029B000002903D0006B18B1002070470120704738
:1029C00002207047140000200148C06870470000D2
:1029D000140000202DE9F04100262F4F386B00280D
:1029E00005D0B869401CB8613046BDE8F081F86890
:1029F000451CFD609DB9786B006838B1502080F3AC
:102A00001188BFF34F8FBFF36F8FFEE7786BB96B01
:102A10007963B863386A401C3862FFF7D7F8B86A40
:102A2000DFF8788085420DD3786B006838B1786B19
:102A3000C068C4686068854212D2B86202E04FF094
:102A4000FF30B8623868C06A00EB800058F8200098
:102A5000012800D90126F8690028C5D00126C3E75E
:102A6000201DFFF7F7F9A06A18B104F11800FFF76D
:102A7000F1F9E16A3869814200D9396101EB8100DD
:102A800008EB8000211DFFF738FAE06A3968C96A4F
:102A90008842C9D30126C7E7140000201C0100208A
:102AA00070B504460021002833D01B4D28688442AD
:102AB00007D0502080F31188BFF34F8FBFF36F8F83
:102AC000FEE7206D38B1401E2065E36CE26A9A4251
:102AD0001FD040B11DE0502080F31188BFF34F8F0D
:102AE000BFF36F8FFEE7201DFFF7B4F9E06CE062E3
:102AF000C0F13800A061E06A2969884200D92861E4
:102B0000064900EB800001EB8000211DFFF7F5F97D
:102B10000121084670BD0000140000201C010020A7
:102B200070B5C068C468002C14D004F11800FFF719
:102B300091F9164D286BA8B104F118011448FFF75C
:102B4000DCF9E06A2968C96A88421CD901200121A0
:102B5000E96170BD502080F31188BFF34F8FBFF340
:102B60006F8FFEE7201DFFF775F9E06A296988423B
:102B700000D92861074900EB800001EB8000211D8E
:102B8000FFF7BBF9DDE7002070BD00001400002056
:102B9000A40500201C0100202DE9F0470024002797
:102BA0002D4D286B002807D0FFF7B4F9286B401E85
:102BB0002863286B40B149E0502080F31188BFF3AF
:102BC0004F8FBFF36F8FFEE7A86800283ED0234EDB
:102BD00030684FF0010800B3A6F59169F068C46849
:102BE00004F11800FFF736F9201DFFF733F9E06A0A
:102BF0002969884200D9286100EB800009EB800038
:102C0000211DFFF77AF9E06A2968C96A884201D371
:102C1000C5F81C8030680028E0D10CB1FEF7D6FF63
:102C2000AC694CB1FFF7D6FE08B1C5F81C80641E34
:102C3000002CF7D10020A861E86938B101270849C4
:102C400038070860BFF34F8FBFF36F8FFFF782F92C
:102C50003846BDE8F087000014000020A4050020DD
:102C600004ED00E030B587B00024FEF7BDFC134D45
:102C70002868B0B100200690059004AA05A906A80E
:102C8000FFF706F905990698022200920191029039
:102C900000230BA10C48049AFFF758FE686000B1AE
:102CA000012414B107B0204630BD502080F31188B4
:102CB000BFF34F8FBFF36F8FFEE70000500000207F
:102CC000546D722053766300C51C0008F0B585B0C2
:102CD00084460A9D16461F460022BCF1000F14D000
:102CE000164C206800B300910196CDF808C0062963
:102CF0001BDAFFF75BFE02280FD000231A46694655
:102D00002068FFF7F1FB024615E0502080F31188A0
:102D1000BFF34F8FBFF36F8FFEE700232A4669464C
:102D20002068FFF7E1FB024605E000233A466946CA
:102D3000FFF792FC024605B01046F0BD500000209F
:102D40004FF04070E1EE100A70470000882D000837
:102D50000000000000000000000000000000000073
:102D60000002000018000000000000000000000049
:102D7000000000000000000001020304060708092B
:102D8000000000000102030464656661756C745400
:102D900061736B00B42D0008000000209400000057
:102DA000D4010008482E0008940000207C4F000049
:102DB000F001000800000000010000001000000009
:102DC000000000000024F4000000000000000000EB
:102DD00000000000000000000000000000000000F3
:102DE00000000000000000000000000000000000E3
:102DF00000000000000000000000000000000000D3
:102E000000000000000000000000000000000000C2
:102E100000000000000000000000000000000000B2
:102E200000000000000000000000000000000000A2
:102E30000000000000000000000000000000000092
:082E4000AAAAAAAA00000000E2
:040000050800019955
:00000001FF
