:020000040800F2
:10000000E858002071020008B92B0008BD2900083B
:10001000B52B00082F0D0008F53100080000000086
:10002000000000000000000000000000B101000816
:10003000650F0008000000000D0200081F2D0008D9
:100040008B0200088B0200088B0200088B0200085C
:100050008B0200088B0200088B0200088B0200084C
:100060008B0200088B0200088B0200088B0200083C
:100070008B0200088B0200088B0200088B0200082C
:100080008B0200088B0200084909000800000000EC
:100090000000000000000000000000008B020008CB
:1000A0008B0200088B0200088B0200088B020008FC
:1000B0008B020008FD2D00088B0200088B0200084F
:1000C0008B0200088B0200088B0200088B020008DC
:1000D0008B0200088B0200088B0200080000000061
:1000E0008B0200088B0200088B0200080000000051
:1000F0000000000000000000000000008B0200086B
:10010000000000008B0200088B0200088B02000830
:1001100000000000000000000000000000000000DF
:10012000350D00088B0200088B0200088B020008C6
:100130008B0200080000000000000000000000002A
:100140000000000000000000000000008B0200081A
:100150008B0200088B0200088B0200088B0200084B
:100160008B0200088B020008000000000000000065
:10017000000000000000000000000000000000007F
:10018000000000008B0200080000000000000000DA
:100190008B0200088B020008DFF810D000F000FB93
:1001A0000048004751490008AFF30080E85800209C
:1001B0002C4B19680868B0E8F04F80F30988BFF34A
:1001C0006F8F4FF0000080F311887047000000002F
:1001D00008480068006880F308884FF0000080F34A
:1001E000148862B661B6BFF34F8FBFF36F8F00DF25
:1001F00000BF00BF08ED00E0DFF80C00016841F42B
:1002000070010160704700BF88ED00E0EFF30980E6
:10021000BFF36F8F134B1A681EF0100F08BF20ED4D
:10022000108A20E9F04F106009B44FF0500080F3BD
:100230001188BFF34F8FBFF36F8F05F0B5FC4FF000
:10024000000080F3118809BC19680868B0E8F04F15
:100250001EF0100F08BFB0EC108A80F30988BFF3BE
:100260006F8F704764000020EFF305807047000037
:100270000648804706480047FEE7FEE7FEE7FEE740
:10028000FEE7FEE7FEE7FEE7FEE7FEE7E92D0008F2
:10029000990100082DE9F05F0546002092469B4633
:1002A00088460646814640241BE02846414647468C
:1002B000224600F0ADF853465A46C01A914110D379
:1002C00011461846224600F094F82D1A67EB0108F3
:1002D0004F4622460120002100F08BF817EB000961
:1002E0004E41201EA4F10104DFDC484631462A4677
:1002F0004346BDE8F09F40EA01039B0703D009E0B5
:1003000008C9121F08C0042AFAD203E011F8013B01
:1003100000F8013B521EF9D27047D2B201E000F85A
:10032000012B491EFBD270470022F6E710B5134699
:100330000A4604461946FFF7F0FF204610BD30B5C7
:1003400005462A460B4612F8010B13F8014B08B17B
:10035000A042F8D01CB1002802D06D1CF1E728465D
:1003600030BD421C10F8011B0029FBD1801A7047D8
:10037000034611F8012B00F8012B002AF9D1184689
:10038000704730B505460020034600E05B1C9342F1
:1003900005D2EC5CC85C201A01D1002CF6D130BD2E
:1003A00000F0004230F000400AD0C10D01F560714C
:1003B000C0F3160042EA0151C208400711437047DA
:1003C00000200146704730B50B4601460020202230
:1003D000012409E021FA02F59D4205D303FA02F552
:1003E000491B04FA02F52844151EA2F10102F1DCB2
:1003F00030BD202A04DB203A00FA02F100207047C9
:100400009140C2F1200320FA03F319439040704752
:10041000202A04DB203A21FA02F00021704721FA59
:1004200002F3D040C2F120029140084319467047C0
:100430002DE9FE4F804681EA0300C00F0C46009074
:1004400021F0004123F00045B8EB0200A94105D29C
:100450004046214690461C460B46024623F000408B
:10046000104347D0270DC7F30A00C3F30A51029087
:10047000401A019040286BDAC3F3130040F4801B4C
:100480000098924620B10023D2EB030A63EB0B0BDA
:1004900001985946C0F140025046FFF7AAFF0646B0
:1004A0000D4650465946019A00F08CF910EB0800B1
:1004B0006141002487EA115284EAE7731A4340D06D
:1004C000009A62B3019A012A4FEA075215DC001B19
:1004D00061EB02014FF0004202EA0752CDE900420F
:1004E000001C41F5801132462B4600F08CF903B018
:1004F000BDE8F08F40462146F9E7001B61EB0201A1
:10050000001C41F5801300185B412018A2F500176C
:1005100047EB030140EAD570B6196D4111E06D0853
:100520004FEA360645EAC0754FEA0752001B61EBF9
:100530000201001C41F5801149084FEA3000001902
:10054000514132462B4603B0BDE8F04F00F04CB9A4
:100550000098012240000023D0EB020263EBE0731D
:10056000009821464FEAE074B8EB000061EB04010B
:10057000E9E783F000435BE781F0004158E72DE9AC
:10058000FE4F81EA030404F0004421F0004100948E
:100590004FF0000B23F0004350EA01045ED052EA12
:1005A00003045BD0C3F30A54C1F30A552C44A4F2EC
:1005B000F3340194A0FB0254C1F3130141F4801100
:1005C000C3F3130343F4801301FB024400FB034E07
:1005D000840A970A44EA815447EA8357A4FB0768D0
:1005E00002958D0A05FB07854FEA932C04FB0C54FA
:1005F0002705029D4FEA065847EA1637B5EB08056E
:100600006EEB070C870E920E47EA811742EA8312BF
:10061000A7FB0201B6EB0B0164EB00042B0D43EAD0
:100620000C335E1844EB1C50DA465146E7FB0201DE
:10063000C5F313044FEA0B3343EA14534FEA043271
:10064000019C43EA0603A4F10C040294009CCDE94A
:1006500000B400F0D8F803B0BDE8F08F00200146E8
:10066000F9E72DE9F04D81EA030404F0004B21F095
:10067000004514464FF0000A23F0004150EA0502FD
:1006800020D054EA01021DD0C5F30A570246C5F333
:100690001303C1F31300C1F30A5640F4801543F469
:1006A0008013A7EB0608101BD64608F2FD3873EB43
:1006B000050002D308F1010801E092185B41B8F18E
:1006C000000F03DA00200146BDE8F08D00204FF452
:1006D0008011064684460EE0171B73EB050705D311
:1006E000121B63EB050306434CEA010C49084FEA71
:1006F000300092185B4150EA0107EDD152EA030045
:1007000012D082EA040083EA0501084305D0101BD9
:10071000AB4106D20122002306E000224FF0004345
:1007200002E06FF0010253101AEB06004CEB085187
:1007300010EB0A0041EB0B01BDE8F04D00F054B89E
:10074000C1F30A52C1F3130140F2FF3341F48011A7
:100750009A4202DA00200146704740F233439A423F
:10076000A2F2334202DC5242FFF752BEFFF741BE13
:1007700030B5041E71F1000404DB4FF00044404228
:1007800064EB0101141E73F1000405DB1C464FF0FD
:100790000043524263EB0403994208BF904230BDCC
:1007A000064C074D06E0E06840F0010394E80700BE
:1007B00098471034AC42F6D3FFF7F2FC506D0008B6
:1007C000706D0008202A06DBCB17203A41FA02F0B0
:1007D00043EAE07306E041FA02F3D040C2F120029E
:1007E000914008431946704710B5141E73F1000478
:1007F00008DA401C41F1000192185B411A4301D113
:1008000020F0010010BD2DE9F04D92469B4611B13C
:10081000B1FA81F202E0B0FA80F220329046FFF79E
:10082000E8FD04460F4640EA0A0041EA0B01534640
:100830005A46084313D0114653EA010019D0C8F1B3
:1008400040025046FFF7E4FD05460E465046594625
:100850004246FFF7CEFD084305D0012004E02046C4
:100860003946BDE8F08D0020054346EAE0762C438A
:1008700037430A986305E40AA0EB08000022FD0A4A
:1008800044EA47540A3002D500200146E9E7010551
:1008900010196941DDE9084500196941BDE8F04DCD
:1008A000A2E770B50546AC6B206C00F0500050BB61
:1008B000206C40F4007020642068806800F0405094
:1008C000E8B9207ED8B92068C06A00F4700020B171
:1008D0002068806800F4806088B92068406820F053
:1008E000200021684860206C20F480702064206C17
:1008F00000F4805018B9206C40F0010020642046BC
:1009000000F008FC0BE0206C00F0100018B120464D
:1009100000F01DFC03E0A06BC16C2846884770BD49
:1009200070B50546AC6B40202064606C40F004005C
:100930006064204600F00BFC70BD70B50446A56BEA
:10094000284600F003FC70BD10B5024800F000FC22
:1009500010BD0000E400002055494A6822F44032EE
:100960004A604A6843681A434A600268526822F43F
:10097000807203685A6002685368026943EA02227F
:1009800003685A600268526822F0407203685A6035
:100990000268526883681A4303685A600268926862
:1009A00022F4006203689A6002689268C3681A437E
:1009B00003689A603F4B826A9A4218D00268926834
:1009C00022F0706203689A6002689268836A1A4330
:1009D00003689A600268926822F0405203689A6045
:1009E00002689268C36A1A4303689A600BE002685F
:1009F000926822F0706203689A600268926822F03E
:100A0000405203689A600268926822F0020203680A
:100A10009A6002689368027E43EA420203689A6021
:100A20002022125CA2B10268526842F4006203689C
:100A30005A600268526822F4604203685A60026891
:100A40005368426A521E43EA423203685A6005E024
:100A50000268526822F4006203685A600268D26A2F
:100A600022F470020368DA620268D36A828B521E33
:100A700043EA02520368DA620268926822F4007262
:100A800003689A600268936890F8302043EA422233
:100A900003689A600268926822F4806203689A6030
:100AA00002689368426943EA822203689A60704749
:100AB000002301400100000F3EB53EA03721444B0A
:100AC00044A2CDE900104BA1032003F0A9F90020B6
:100AD000192103464FF47A72CDE9001047A14D4821
:100AE00005F066FD054655B14BA03E21384B39A2B5
:100AF000CDE900103FA1032003F092F909E04EA0D8
:100B00004321334B33A2CDE900103AA1032003F077
:100B100087F950A045212E4B2EA2CDE90105009169
:100B200034A1032003F07CF90020192103464FF47F
:100B30007A72CDE900104BA1504805F039FD04460A
:100B4000012C0AD14EA04C21214B22A2CDE900104C
:100B500028A1032003F064F909E052A051211C4BA5
:100B60001CA2CDE9001023A1032003F059F90022B3
:100B70000421012005F02EF95249086000220421C9
:100B8000012005F027F95049086001224F495048DB
:100B900000F030FC01204F4908704FA062210C4B3F
:100BA0000CA2CDE9001013A1032003F039F90120B4
:100BB0003EBD0000204170704144435F444D415FA1
:100BC000496E697420737461727420210D0A0000EB
:100BD000B46B00082E2E5C436F72655C5372635CCD
:100BE0004144435F444D415F53616D706C696E6772
:100BF0002E6300004E4F5F54414700002053657440
:100C000020444D41204275666665722054617267CA
:100C100065742000912C0008536574444D41546163
:100C2000736B20637265617465205355434345536C
:100C30005321200A00000000536574444D41546163
:100C4000736B20637265617465204641494C2120B5
:100C50000A00000020536574444D3A5B25645D2012
:100C6000210D0A0020414443206461746120636FB8
:100C70006E76657273696F6E20200000510E000859
:100C800044617461436F6E766572415461736B2089
:100C90006372656174652053554343455353212066
:100CA0000A00000044617461436F6E76657254619E
:100CB000736B20637265617465204641494C212045
:100CC0000A000000180000201C0000200C0000207A
:100CD000E400002014000020204144435F444D41C3
:100CE00020737461727420210D0A000010B503F0A6
:100CF0006FF8012003F064FCFF21002003F08CFB5F
:100D00000721012003F088FB0721022003F084FB68
:100D10000721032003F080FBBF21042003F07CFBAC
:100D2000BF21052003F078FB03F0B8FC10BD00BF25
:100D3000FEE7000010B5024800F042FC10BD0000C4
:100D40002C0100200146087810381823B0FBF3F27C
:100D50000848805CC865032A05D908686FF3090054
:100D6000001D886503E008686FF309008865886DD9
:100D700070470000D76B0008014600208A6A8B6923
:100D8000CBB932B1012A0DD0022A03D0032A10D1E7
:100D90000EE000BFCB6A03F08073B3F1807F00D117
:100DA000012007E0CB6AB3F1C07F00D1012001E050
:100DB00000E000BF34E08B69B3F5005F1AD132B1B7
:100DC000012A07D0022A03D0032A11D10AE000BF6A
:100DD00001200EE0CB6A03F08073B3F1807F00D175
:100DE000012006E0CB6AB3F1C07F00D1012000E012
:100DF00000BF15E032B1012A05D0022A04D0032A2F
:100E00000CD103E000BF00BF012008E0CB6A03F073
:100E10008073B3F1807F00D1012000E000BF00BFEC
:100E2000704730B50468246824F4802405682C6079
:100E3000046863608468402C04D10468A26004687C
:100E4000E16003E00468A1600468E26030BD000076
:100E50002DED028B86B000BF00200590002205A971
:100E60002448006805F0F2F90598032820D12248AB
:100E700090ED000AB8EE400ADFED200A20EE200ACD
:100E8000DFED1F0A80EE201A11EE104A2046FFF710
:100E900087FA41EC180B8DED028B1AA092211F4BA3
:100EA0001FA2CDE9001026A1032002F0B9FF20E027
:100EB000254890ED000AB8EE400ADFED100A20EE5A
:100EC000200ADFED0F0A80EE201A11EE104A2046AC
:100ED000FFF766FA41EC180B8DED028B1BA09721F2
:100EE0000E4B0FA2CDE9001015A1032002F098FFD0
:100EF00000BFB1E71C0000200C000020333353403A
:100F000000F07F4520566F6C746167652041203D7D
:100F1000205B252E32665D2000000000C46B0008B7
:100F20002E2E5C436F72655C5372635C4144435F79
:100F3000444D415F53616D706C696E672E630000B4
:100F40004144435F444D41001000002020566F6C27
:100F5000746167652042203D205B252E32665D204E
:100F600000000000704772B600BFFEE77047000047
:100F700038B502460020009000BF92F83C000128DE
:100F800001D1022038BD012082F83C0000BF086872
:100F9000092816D91068C0680C780A3C04EB44058F
:100FA0000724AC40A0431468E0600C780A3C04EBD2
:100FB00044048868A0401468E46820431468E06032
:100FC00013E0106800690C7804EB44050724AC407A
:100FD000A043146820610C7804EB44048868A040A6
:100FE000146824692043146820614868072817D2D0
:100FF0001068406B0C79641E04EB84051F24AC4020
:10100000A04314686063088880B20C79641E04EB06
:101010008404A0401468646B20431468606331E06A
:1010200048680D2817D21068006B0C79E41F04EB98
:1010300084051F24AC40A04314682063088880B254
:101040000C79E41F04EB8404A0401468246B204353
:101050001468206316E01068C06A0C790D3C04EB3C
:1010600084051F24AC40A0431468E062088880B265
:101070000C790D3C04EB8404A0401468E46A20431E
:101080001468E0621E4B1F4C1068A0420AD1086829
:10109000122807D1586820F400005860586840F4BE
:1010A00080005860174C1068A04222D1164C086886
:1010B000A04202D0086811281BD1586820F4800093
:1010C0005860586840F4000058600F4C0868A0420F
:1010D0000FD10E4800680E4CB0FBF4F000EB80001E
:1010E0004000009002E00098401E00900098002808
:1010F000F9D100BF002082F83C0000BF00BF41E7EB
:101100000023014000200140120000102C000020AC
:1011100040420F001CB504460120019000200090C1
:1011200002236A4601A90748006805F011F80098F3
:1011300038B14FF0805004490860BFF34F8FBFF3C0
:101140006F8F1CBD1800002004ED00E07047704751
:101150002DE9F04104460025002620680768206834
:10116000D0F8048007F0020508F0200695B38EB38E
:10117000206C00F0100018B9206C40F4007020645E
:101180002068806800F04050E8B9207ED8B9206817
:10119000C06A00F4700020B12068806800F48060AC
:1011A00088B92068406820F0200021684860206CE1
:1011B00020F480702064206C00F4805018B9206CFA
:1011C00040F0010020642046FFF7A4FF6FF01200FA
:1011D0002168086007F0040508F08006E5B3DEB377
:1011E000206C00F0100018B9206C40F4005020640E
:1011F0002068806800F4401038BB2068806B00F4E1
:10120000401020B12068806800F48060E8B9206850
:10121000406800F48060C0B92068806800F04050E9
:1012200098B9207E88B92068406820F08000216845
:101230004860206C20F480502064206C00F48070A2
:1012400018B9206C40F0010020642046FFF78EFEA4
:101250006FF00C002168086007F0010508F04006F7
:1012600085B17EB12068006800F0010050B1206CAB
:1012700040F480302064204600F050F86FF0010008
:101280002168086007F0200508F080667DB176B11E
:10129000606C40F0020060646FF02000216808601C
:1012A0002046FFF754FF6FF0200021680860BDE87A
:1012B000F081000070B5044600250CB9012070BD16
:1012C0001549A06A884200D000BF206C30B9204682
:1012D00000F026F80020606484F83C00206C00F0E8
:1012E000100088B9206C20F4885040F0020020647F
:1012F0002046FFF731FB00206064206C20F00200E4
:1013000040F00100206400E0012500BF002084F8C7
:101310003C0000BF2846D2E70100000F70470000E4
:1013200010B586B00446142101A8FEF7FDFF2C4934
:101330002068884251D100BF0020009029480068F1
:1013400040F48070274908600846006800F4807007
:10135000009000BF00BF00BF00200090214814385B
:10136000006840F001001F49143908600846006811
:1013700000F00100009000BF00BF02200190032098
:1013800002900020039001A9174800F0F9FA1748CD
:101390001749086000204860002115488160C1603D
:1013A0004FF4806101614900416189008161002140
:1013B000C1610162416200F023FA08B1FFF7D3FD79
:1013C00000BF0B48A063846300BF002205211220E8
:1013D00000F07EFC122000F06BFC06B010BD000097
:1013E00000200140443802400000024010640240E6
:1013F0002C010020F8B504460D461646002000904A
:1014000000BF94F83C00012801D10220F8BD012062
:1014100084F83C0000BF2068806800F00100A0B99B
:101420002068806840F001002168886048480068B2
:101430004849B0FBF1F000EB4000009002E000985A
:10144000401E009000980028F9D12068806800F4C0
:101450008070B0F5807F05D12068806820F48070AE
:10146000216888602068806800F00100002865D04D
:10147000206C40F20161884340F480702064206851
:10148000406800F4806028B1206C20F4005040F4E3
:1014900080502064206C00F48050B0F5805F04D14F
:1014A000606C20F00600606401E00020606400BF12
:1014B000002084F83C0000BF274F2848A16BC86378
:1014C0002748A16B08642748A16BC8646FF022000D
:1014D000216808602068406840F0806021684860AA
:1014E0002068806840F4807021688860226802F17A
:1014F0004C0133462A46A06B00F0F8F9786800F0FA
:101500001F0058B92068806800F04050F0B920688A
:10151000806840F080402168886017E012492068A8
:10152000884213D12068806800F0405070B920686C
:10153000806840F080402168886007E0206C40F0BF
:1015400010002064606C40F00100606400205DE7E2
:101550002C00002040420F0000230140A308000897
:101560003B090008210900080020014010B504468D
:101570000CB9012010BD607920B9002020712046EF
:1015800000F004F8012060710020F3E708B50A4A72
:10159000016891420FD100BF0021009107490968FD
:1015A00041F48051054A11601146096801F48051E7
:1015B000009100BF00BF08BD00300240303802403B
:1015C000F8B50446002000908C4800684FF416518E
:1015D000B0FBF1F7A56D2E6894F85C1008208840E8
:1015E000304098B12068006800F0040070B12068B5
:1015F000006820F004002168086094F85C1008205E
:101600008840A860606D40F00100606594F85C104F
:1016100001208840304068B12068406900F08000B7
:1016200040B194F85C1001208840A860606D40F0E3
:101630000200606594F85C1004208840304068B176
:101640002068006800F0020040B194F85C100420AB
:101650008840A860606D40F00400606594F85C10FC
:1016600010208840304078B32068006800F00800FF
:1016700050B394F85C1010208840A860206800687F
:1016800000F4802080B12068006800F4002028B9B0
:10169000206CC8B12046216C884715E0A06C98B139
:1016A0002046A16C88470FE02068006800F4807035
:1016B00028B92068006820F0080021680860206CC4
:1016C00010B12046216C884794F85C102020884097
:1016D0003040002865D02068006800F01000002825
:1016E0005FD094F85C1020208840A86094F8350002
:1016F000052828D12068006820F0160021680860BD
:101700002068406920F0800021684861206C08B999
:10171000A06C28B12068006820F0080021680860EB
:1017200094F85C103F208840A860012084F83500C0
:1017300000BF002084F8340000BF206D10B12046A7
:10174000216D8847F8BD2068006800F4802080B1D2
:101750002068006800F4002028B9606C10B12046B1
:10176000616C88471DE0E06BD8B12046E16B88478B
:1017700017E02068006800F4807068B9206800688D
:1017800020F0100021680860012084F8350000BFB7
:10179000002084F8340000BFE06B10B12046E16BFC
:1017A0008847606D38B3606D00F00100F0B105202E
:1017B00084F835002068006820F001002168086086
:1017C00000BF0098401C0090B84200D905E0206896
:1017D000006800F001000028F3D100BF012084F868
:1017E000350000BF002084F8340000BFE06C10B169
:1017F0002046E16C884700BFA4E700002C000020D1
:101800002DE9F0410446002500F09EF9074614B981
:101810000120BDE8F081606A00B100BF022084F8B9
:10182000350000BF002084F8340000BF2068006845
:1018300020F00100216808600AE000F085F9C01B73
:10184000052805D920206065032084F83500E0E7ED
:101850002068006800F001000028EED120680568CB
:1018600021480540D4E901010843E16808432169A2
:10187000084361690843A1690843E1690843216A93
:1018800008430543606A042803D1D4E90B010843E7
:101890000543206805602068456925F00705606AF2
:1018A0000543606A04280DD1A06A0543E06A48B187
:1018B0002046FFF761FA28B140206065012084F8D6
:1018C0003500A6E7206845612046FFF73BFA06464B
:1018D00094F85C103F208840B060002060650120D3
:1018E00084F83500002094E73F8010F02DE9F047A0
:1018F00004460D4616461F464FF00008D4F858908F
:1019000000BF94F83400012802D10220BDE8F0871E
:10191000012084F8340000BF94F83500012825D157
:10192000022084F83500002060653B463246294697
:101930002046FFF776FA94F85C103F208840C9F8FB
:1019400008002068006840F0160021680860206CDC
:1019500028B12068006840F008002168086020680D
:10196000006840F001002168086006E000BF002028
:1019700084F8340000BF4FF002084046C6E700007C
:10198000F8B502460B460025002400200021C7E0E0
:10199000012606FA01F51E6806EA0504AC4274D178
:1019A0001E7906F00306012E04D01E7906F0030608
:1019B000022E13D190684F000326BE40B0434F0063
:1019C000DE68BE4030439060506801268E40B043D0
:1019D0001E79C6F300168E40304350601E7906F023
:1019E0000306032E09D0D0684F000326BE40B04343
:1019F0004F009E68BE403043D0601E7906F003065B
:101A0000022E13D1CF0802F1200656F827004E0708
:101A1000F70E0F26BE40B0434F07FF0E1E69BE40B3
:101A20003043CF0802F1200646F8270010684F0027
:101A30000326BE40B0431E7906F003064F00BE40A9
:101A4000304310605E6806F44036002E67D000BF59
:101A500000260096344E366846F48046324F3E608B
:101A60003E46366806F48046009600BF00BF2F4E03
:101A70008F0856F827008E07370F0F26BE40B04359
:101A80002B4EB24202D1002615E048E0294EB24268
:101A900001D101260FE0284EB24201D102260AE010
:101AA000264EB24201D1032605E0254EB24201D1B5
:101AB000042600E007268F073F0FBE4030431B4E31
:101AC0008F0846F827001F4E3068A0435E6806F472
:101AD000801606B120431B4E3060361D3068A0438F
:101AE0005E6806F4001606B12043164E361D3060BF
:101AF000144E361F3068A0435E6806F4003606B107
:101B00002043104E361F3060361F3068A0435E6899
:101B100006F4803606B120430A4E083E3060491C68
:101B20001029FFF435AFF8BD4438024008380140B1
:101B3000000002400004024000080240000C024085
:101B400000100240083C0140014800687047000056
:101B5000200000200348006803490978084401492F
:101B600008607047200000202800002010B50D48B4
:101B7000006840F400700B4908600846006840F4B3
:101B8000806008600846006840F4807008600320A8
:101B900000F0DCF80F2000F007F800F05FF80020FC
:101BA00010BD0000003C02402DE9F04188B0044621
:101BB0000027B84600BF002001902348006840F08D
:101BC0000200214908600846006800F00200019008
:101BD00000BF00BF02A903A800F08EF9069F1FB93D
:101BE00000F0B2F9054602E000F0AEF945001748F2
:101BF000B5FBF0F0A0F1010815481649086040F265
:101C0000E7311448C160C0F804800021016181609F
:101C1000816100F0AFFC064696B90E4800F0F8FC72
:101C200006466EB91D2000F043F8102C07D20022A2
:101C300021461D2000F04CF80748046000E0012612
:101C4000304608B0BDE8F0814038024040420F0005
:101C500000040040180200202400002008B500BF46
:101C6000002000901148006840F480400F4908604F
:101C70000846006800F48040009000BF00BF00BF2D
:101C800000200090081F006840F08050091F086085
:101C90000846006800F08050009000BF00BF00229E
:101CA0000F21901E00F014F808BD000044380240D7
:101CB00001460846002809DB00F01F0301229A4074
:101CC00043099B0003F1E023C3F8002100BF7047E4
:101CD0002DE9F05F80460D461646002701F06EFBA9
:101CE000074639462A46334601F00700C0F1070A85
:101CF000BAF1040F02D94FF0040A01E0C0F1070A5B
:101D0000D14600F1040ABAF1070F02D24FF0000ADF
:101D100001E0A0F1030AD4464FF0010A0AFA09FAD9
:101D2000AAF1010A0AEA020A0AFA0CFA4FF0010BB8
:101D30000BFA0CFBABF1010B0BEA030B4AEA0B04A9
:101D40002146404601F042FBBDE8F09F00BF00F095
:101D50000702064B19684FF6FF031940044B0B436B
:101D600043EA0221014B196000BF70470CED00E00F
:101D70000000FA0570B504460D460CB9012070BD8F
:101D80005848006800F00700A84209D255490D7074
:101D90000846006800F00700A84201D00120EEE7E5
:101DA000207800F0020002281DD1207800F0040005
:101DB000042805D14C48006840F4E0504A490860C6
:101DC000207800F00800082805D14748006840F452
:101DD0006040454908604448006820F0F000A16870
:101DE000084341490860207800F00100A8B360680A
:101DF000012807D13C4808380068C0F34040B8B912
:101E00000120BCE76068022802D06068032807D17F
:101E1000354808380068C0F3406048B90120AEE793
:101E2000314808380068C0F3400008B90120A6E72F
:101E30002D48006820F00300616808432A490860C3
:101E4000FFF782FE064609E0FFF77EFE801B41F2A7
:101E50008831884202D9032091E707E022480068D0
:101E600000F00C006168B0EB810FEDD11D480068F7
:101E700000F00700A84209D91A490D700846006809
:101E800000F00700A84201D0012078E7207800F098
:101E90000400042807D11448006820F4E050E168E9
:101EA000084311490860207800F00800082808D18C
:101EB0000D48006820F46040216940EAC1000A49E9
:101EC000086000F061F808490968C1F30311074A86
:101ED000515CC8400649086006480068FFF764FE88
:101EE00000204CE7003C024008380240DF6B00084D
:101EF0002C000020240000200F2202600D4A1268EE
:101F000002F0030242600B4A126802F0F0028260A3
:101F1000084A126802F4E052C260064A126802F4EB
:101F20006042D2080261044A126802F007020A60A5
:101F30007047000008380240003C02400148006839
:101F4000704700002C00002000B5FFF7F7FF0449A0
:101F50000968C1F38221034A515CC84000BD0000FA
:101F600008380240EF6B000800B5FFF7E7FF0449AF
:101F70000968C1F34231034A515CC84000BD00000A
:101F800008380240EF6B00082DE9F04700240025D7
:101F90000026A1462548006800F00C0020B1042866
:101FA00005D008283AD105E0DFF8849039E0DFF861
:101FB000849036E01D48001F006800F03F041B4875
:101FC000001F006800F4800078B11A481749091F03
:101FD0000968C1F38811A0FB017001462246002365
:101FE0003846FEF757F905460EE011480F49091F1C
:101FF0000968C1F38811A0FB017001462246002345
:102000003846FEF747F905460848001F0068C0F348
:102010000140401C4600B5FBF6F902E0DFF81090E5
:1020200000BF00BF4846BDE8F08700000838024006
:102030000024F40040787D01F8B504460CB9012075
:10204000F8BD207800F00100002874D0F94800683D
:1020500000F00C0004280DD0F648006800F00C00D9
:10206000082813D1F348001F006800F48000B0F581
:10207000800F0BD1EF4808380068C0F340400028BB
:1020800059D06068002856D10120D9E700BF6068A8
:10209000B0F5803F08D1E7480838006840F4803048
:1020A000E449083908601EE06068B0F5A02F0DD142
:1020B000E0480838006840F48020DE4908390860AC
:1020C0000846006840F4803008600CE0D9480838C1
:1020D000006820F48030D749083908600846006855
:1020E00020F48020086000BF606890B1FFF72CFDED
:1020F000054606E0FFF728FD401B642801D90320B0
:102100009EE7CC4808380068C0F340400028F1D072
:1021100011E0FFF719FD054606E0FFF715FD401B2E
:10212000642801D903208BE7C24808380068C0F34F
:1021300040400028F1D1207800F0020002285FD151
:10214000BC48006800F00C0058B1BA48006800F0C4
:102150000C0008281CD1B748001F006800F480005C
:10216000B0B9B44808380068C0F3400020B1E06856
:10217000012801D0012063E7AE480838006820F04C
:10218000F800216940EAC100AA490839086037E02F
:10219000E06800B30120A8490860FFF7D5FC0546B8
:1021A00006E0FFF7D1FC401B022801D9032047E7D6
:1021B000A04808380068C0F340000028F1D09D48CE
:1021C0000838006820F0F800216940EAC100994908
:1021D0000839086014E0002097490860FFF7B4FC54
:1021E000054606E0FFF7B0FC401B022801D903209A
:1021F00026E7904808380068C0F340000028F1D175
:10220000207800F0080008282CD16069A8B10120CE
:102210008A490860FFF798FC054606E0FFF794FC42
:10222000401B022801D903200AE782486C3000686D
:10223000C0F340000028F1D014E000207F4908607E
:10224000FFF782FC054606E0FFF77EFC401B0228F4
:1022500001D90320F4E677486C300068C0F34000F1
:102260000028F1D1207800F00400042870D1002764
:1022700070483830006800F0805090B900BF0020EE
:1022800000906C483830006840F08050694938311F
:1022900008600846006800F08050009000BF00BF52
:1022A00001276748006800F48070B0B9644800688E
:1022B00040F4807062490860FFF746FC054606E07E
:1022C000FFF742FC401B022801D90320B8E65C4816
:1022D000006800F480700028F2D000BFA0680128D8
:1022E00008D154486830006840F001005149683115
:1022F00008601DE0A06805280DD14E4868300068D0
:1023000040F004004B49683108600846006840F01E
:10231000010008600CE047486830006820F00100C8
:102320004449683108600846006820F004000860ED
:1023300000BFA068A8B1FFF707FC054609E0FFF75A
:1023400003FC401B41F28831884202D9032077E622
:1023500026E0384868300068C0F340000028EED01E
:1023600013E0FFF7F1FB054608E0FFF7EDFB401B2C
:1023700041F28831884201D9032061E62D48683056
:102380000068C0F340000028EFD1012F07D1294891
:102390003830006820F0805026493831086000BF8E
:1023A000A069002845D02348006800F00C000828E8
:1023B0005DD0A069022845D100201F490866FFF7BB
:1023C000C3FB054606E0FFF7BFFB401B022801D90F
:1023D000032035E6174808380068C0F3406000283D
:1023E000F1D1D4E907010843616A40EA8111012271
:1023F000A06AC2EB500041EA00412C20005D41EA96
:1024000000600C49091F086001200B490866FFF7AE
:102410009BFB054606E0FFF797FB401B022801D90E
:1024200003200DE6034808380068C0F34060002828
:10243000F1D049E00838024000004742800E474290
:1024400000700040002021490866FFF77DFB05462B
:1024500006E0FFF779FB401B022801D90320EFE5D6
:102460001B480068C0F340600028F2D12CE0A0694E
:10247000012800D1E4E51648001D0668A06901287E
:1024800020D006F48001E06981421BD106F03F01B3
:10249000206A814216D147F6C0703040616AB0EBC5
:1024A000811F0FD106F440310122A06AC2EB500017
:1024B000B1EB004F06D106F070612C20005DB1EB4E
:1024C000006F01D00120BBE50020B9E500004742C4
:1024D000003802407047704730B502460B4600BFD7
:1024E00092F83C00012801D1022030BD012082F881
:1024F0003C0000BF022082F83D001068446810686C
:10250000816824F070041868044310684460144D16
:102510001068A84213D01068B0F1804F0FD0114D51
:102520001068A8420BD0104D1068A84207D00F4D7C
:102530001068A84203D00E4D1068A84205D121F0C2
:1025400080015868014310688160012082F83D00D5
:1025500000BF002082F83C0000BF00BFC5E70000BC
:10256000000001400004004000080040000C004052
:102570000040014010B504460CB9012010BD94F88C
:102580003D0028B9002084F83C00204600F026F8E1
:10259000022084F83D00211D206800F037FC012056
:1025A00084F8460000BF84F83E0001213F20015519
:1025B000402001554120015500BF00BF012084F893
:1025C000420043200155442001554520015500BFDC
:1025D000012084F83D000020D0E7000008B50A4A39
:1025E000016891420FD100BF00210091074909689D
:1025F00041F00101054A11601146096801F001012D
:10260000009100BF00BF08BD0000014044380240F7
:10261000014691F83D00012801D0012070470220B9
:1026200081F83D000868C06840F001000B68D86080
:10263000164B0868984213D00868B0F1804F0FD04D
:10264000134B086898420BD0124B0868984207D089
:10265000114B0868984203D0104B086898420CD17F
:102660000868806800F00702062A0CD00868006835
:1026700040F001000B68186005E00868006840F051
:1026800001000B6818600020C8E70000000001404E
:102690000004004000080040000C004000400140E1
:1026A000704710B5044620680069C0F34000D8B1F7
:1026B0002068C068C0F34000B0B16FF0020021682C
:1026C0000861012020772068806900F0030018B1BC
:1026D0002046FFF7E5FF05E0204600F0ADF8204674
:1026E00000F0ABF80020207720680069C0F380007C
:1026F000D8B12068C068C0F38000B0B16FF00400AA
:1027000021680861022020772068806900F4407009
:1027100018B12046FFF7C4FF05E0204600F08CF812
:10272000204600F08AF80020207720680069C0F376
:10273000C000D8B12068C068C0F3C000B0B16FF06D
:10274000080021680861042020772068C06900F033
:10275000030018B12046FFF7A3FF05E0204600F074
:102760006BF8204600F069F80020207720680069A7
:10277000C0F30010D8B12068C068C0F30010B0B139
:102780006FF0100021680861082020772068C06978
:1027900000F4407018B12046FFF782FF05E02046A4
:1027A00000F04AF8204600F048F800202077206822
:1027B000006900F0010058B12068C06800F0010015
:1027C00030B16FF0010021680861204600F036F852
:1027D00020680069C0F3C01058B12068C068C0F319
:1027E000C01030B16FF08000216808612046FFF70B
:1027F00071FE20680069C0F3801058B12068C0687D
:10280000C0F3801030B16FF04000216808612046AD
:1028100000F056F820680069C0F3401058B12068F5
:10282000C068C0F3401030B16FF02000216808612B
:102830002046FFF750FE10BD7047704710B50446A4
:1028400003492068884201D1FFF784F910BD0000D8
:102850000004004070B504460D4600BF94F83C00EB
:10286000012801D1022070BD012084F83C0000BF86
:10287000022084F83D002946204600F024FB48B1A0
:10288000012084F83D0000BF002084F83C0000BF18
:102890000120E8E72068C06820F040002168C86097
:1028A0002068C06820F480402168C860012084F856
:1028B0003D0000BF002084F83C0000BF00BFD2E70D
:1028C000704710B504460CB9012010BDA06900B1D5
:1028D00000E000BF94F83D0028B9002084F83C00D7
:1028E000204600F027F8242084F83D002068C068C6
:1028F00020F400502168C860204600F065FB206885
:10290000006920F49040216808612068406920F047
:102910002A00216848612068C06840F4005021689E
:10292000C86000202064202084F83D0084F83E0028
:102930000020CAE710B586B00446142101A8FDF7AF
:10294000F3FC1B492068884230D100BF0020009072
:102950001848006840F010001649086008460068F2
:1029600000F01000009000BF00BF00BF00200090EA
:1029700010481438006840F001000E49143908600E
:102980000846006800F00100009000BF00BF4FF44F
:10299000C060019002200290002003900320049068
:1029A0000720059001A90448FEF7EAFF06B010BD14
:1029B00000100140443802400000024000BFFEE722
:1029C0001FB5002000900190029003901548164911
:1029D00008604FF480304860002113488160016135
:1029E000017680F82010C162104981620021C16027
:1029F0000121C161002180F8301001214161FEF701
:102A000059FC08B1FEF7AFFA0120009001900020B8
:102A1000029069460448FEF7ABFA08B1FEF7A3FA44
:102A20001FBD000000200140E40000200100000F55
:102A300010B50548054908600846FEF797FD08B13E
:102A4000FEF791FA10BD00000030024004000020A3
:102A500008B500BF002000900A48006840F48000DC
:102A6000084908600846006800F48000009000BF34
:102A700000BF002205213820FFF72AF93820FFF790
:102A800017F908BD3038024010B5044A0021044847
:102A900001F0F8FF0349086010BD0000906B0008CA
:102AA000152D00080000002008B500BF0020009090
:102AB0001548006840F004001349086008460068A3
:102AC00000F00400009000BF00BF00BF0020009095
:102AD0000846006840F0800008600846006800F082
:102AE0008000009000BF00BF00BF0020009008469B
:102AF000006840F0010008600846006800F001002E
:102B0000009000BF00BF08BD3038024000B587B05C
:102B1000142102A8FDF708FC002000900190154840
:102B200015490860002048600021134881604FF675
:102B3000FF71C1600021016141618161FFF71AFDF0
:102B400008B1FEF710FA062002900020039002A9B7
:102B50000948FFF77FFE08B1FEF705FA0020009054
:102B6000019069460448FFF7B7FC08B1FEF7FBF98E
:102B700007B000BD000001408C01002010B50B48DB
:102B80000B4908604FF4E13048600021084881603B
:102B9000C16001610C21416100218161C161FFF7C8
:102BA00090FE08B1FEF7DFF910BD000000100140F3
:102BB000D401002000BFFEE700BFFEE710B500F023
:102BC0001BFB10BD2DE9F04104460D4616460E4F85
:102BD00000BF387808B900F00FFB00BFEFF3118099
:102BE0000746202080F3118800BF00BF32462946E7
:102BF000204600F00BF88046F8B280F3118800BF41
:102C000000BF4046BDE8F081580700202DE9F0479D
:102C1000074688461646C24607EB47011B4800EBAD
:102C2000C109D9F8140020B1012811D0022826D1F9
:102C30001EE0484600F018FB0546B54201D20024CC
:102C400005E0344632465146484600F056FB18E04F
:102C5000484600F009FB0546B54201D2284600E08F
:102C60003046044622465146484600F046FB08E0FE
:102C700032465146484600F005FB044601E0002478
:102C800000BF00BF2046BDE8F087000070070020AD
:102C90001CB500BF002001900090002201A9174838
:102CA000006803F0D3FA0198012826D1144800786F
:102CB000012811D103200090022300226946114807
:102CC000006803F071F901220F491048FEF792FBEA
:102CD00000200B49087010E004200090022300221D
:102CE00069460848006803F05FF90122084907486F
:102CF000FEF780FB012002490870CBE71800002096
:102D0000140000201C00002010000020E40000201F
:102D10000C00002000BF012001F05EFEFBE710B5B3
:102D20004FF0E020006903F0D3FC012801D003F04C
:102D300037F810BD00B593B0302107A8FDF7F4FABD
:102D4000142102A8FDF7F0FA00BF002001902448EA
:102D5000006840F08050224908600846006800F092
:102D60008050019000BF00BF00BF002001901D48AF
:102D7000006840F440401B4908600846006800F4C1
:102D80004040019000BF00BF0220079001200A9040
:102D900010200B9002200D9000210E9108210F9120
:102DA00064211091022111910421129107A8FFF7CB
:102DB00043F908B1FEF7D7F80F20029002200390E4
:102DC000002004904FF480500590002006900321CD
:102DD00002A8FEF7CFFF08B1FEF7C5F813B000BD9B
:102DE00040380240007000400348006840F4700022
:102DF000014908607047000088ED00E010B5024806
:102E0000FFF74FFC10BD00001802002010B502684B
:102E1000204B98420BD0B0F1804F08D01E4B984207
:102E200005D01E4B984202D01D4B984203D122F090
:102E300070024B681A43174B984214D0B0F1804F80
:102E400011D0154B98420ED0144B98420BD0144B16
:102E5000984208D0134B984205D0134B984202D0A9
:102E6000124B984203D122F44072CB681A4322F0ED
:102E700080034C6943EA040202608B68C3620B68FA
:102E80008362044B984201D10B69036301234361C0
:102E900010BD000000000140000400400008004098
:102EA000000C004000400140004401400048014047
:102EB00030B50C46816821F47F4142EA0325254361
:102EC0002943816030BD2DE9F04705460C464FF09F
:102ED00000092868866826F070066068064326F0B8
:102EE00007062068064328688660606800F00F01C6
:102EF00000293BD10011082838D2DFE800F0333434
:102F000035360B272D04D4E90313A2682868FFF790
:102F1000CFFF2EE02068052802D10120BDE8F08710
:102F20002868D0F820802868006A20F0010029680D
:102F300008622868876927F0F007206947EA0017C8
:102F4000286887612868C0F8208012E02269A1689B
:102F5000286800F011F80CE02269A168286800F0E8
:102F60001EF806E000BF00BF00BF02E04FF00109FD
:102F700000BF00BF4846D1E730B50B461446026A91
:102F8000056A25F001050562816921F0F00141EA39
:102F9000041122F00A021A438161026230BD30B589
:102FA0000B461446056A25F0100505628169026A20
:102FB00021F4704141EA043122F0A00242EA0312F6
:102FC0008161026230BD00002DE9F84F044620689F
:102FD000006920F44050E1680843216808612169D4
:102FE000A068084361690843E169084300902068CC
:102FF000C06849F20C618843009908432168C860A1
:103000002068406920F44070A16908432168486144
:1030100076492068884203D075492068884203D1E8
:10302000FEF7A2FF814602E0FEF78EFF8146E069CF
:10303000B0F5004F6CD102206168A0FB015003463F
:103040001920A9FB007001462A463846FDF722F9EF
:103050006421B0FBF1F04FEA001A02206168A0FB86
:1030600001510B461920A9FB00712A463846FDF78D
:1030700011F9834602206168A0FB01500346192024
:10308000A9FB00712A463846FDF704F96421B0FB1C
:10309000F1F000EBC00101EB0010ABEB800032213E
:1030A00001EBC0006421B0FBF1F000F0F8000AEB86
:1030B000400A02206168A0FB015003461920A9FBC9
:1030C000007001462A463846FDF7E4F883460220A0
:1030D0006168A0FB015003461920A9FB00712A4634
:1030E0003846FDF7D7F86421B0FBF1F000EBC001E2
:1030F00001EB0010ABEB8000322101EBC00064213A
:10310000B0FBF1F000F007005044216888606AE0ED
:1031100004206168A0FB015003461920A9FB007040
:1031200001462A463846FDF7B5F882460420616814
:10313000A0FB015003461920A9FB007001462A4656
:103140003846FDF7A7F86421B0FBF1F000EBC001B1
:1031500001EB0010AAEB8000322101EB001064218A
:10316000B0FBF1F000F0F00A04206168A0FB0170F0
:1031700003461920A9FB00513A462846FDF78AF874
:103180006421B0FBF1F00AEB001A04206168A0FB97
:1031900001510B461920A9FB00712A463846FDF75C
:1031A00079F8834604206168A0FB0150034619208A
:1031B000A9FB007001462A463846FDF76BF86421EA
:1031C000B0FBF1F000EBC00101EB0010ABEB8000B5
:1031D000322101EB00106421B0FBF1F000F00F0090
:1031E000504421688860BDE8F88F0000001001405D
:1031F0000014014000BFFEE710B5124C032020610F
:10320000606111A0A0611349E1614FF48061216206
:103210000021A1626162E1620BA020660E49616635
:103220001021A16600212167E16661670BA1E01D05
:10323000FDF79EF80AA12046FDF79AF82020A0711C
:1032400010BD0000580700205465726D696E616CF6
:103250000000000000080020000C00205254540020
:10326000534547474552000010B501460A69CB68EF
:103270009A4204D88C68641EE41AA01801E0D41A9B
:10328000601E10BD2DE9F05F0446894617464FF0D9
:10329000000AE56800BFD4F81080A84503D9A8EB60
:1032A0000500461E04E0A5EB0800401CA1680E1AAC
:1032B000A068401BB04201D9304601E0A068401B25
:1032C0000646BE4201D2304600E0384606466068F7
:1032D00000EB050B324649465846FDF70CF8B24460
:1032E000B144BF1B3544A068A84200D10025E56069
:1032F000002FD0D15046BDE8F09F2DE9F04704469D
:1033000089461546E668A068871BAF420AD96068FF
:1033100000EB060A2A4649465046FCF7ECFF7019B6
:10332000E06014E0B846606800EB060A4246494691
:103330005046FCF7E0FFA5EB0708D4F804A009EB22
:10334000070142465046FCF7D6FFC4F80C80BDE8A2
:10335000F08700000FB47CB50C0009AD01D0611EF0
:1033600000E00021CDE90001064B6A462946089895
:1033700000F014F9002C02D0009A002111707CBCDE
:103380005DF814FBA33C00087CB50C001D461646F6
:10339000014601D0601E00E00020CDE90010064B80
:1033A0006A462946304600F0F9F8002C02D0009A0F
:1033B000002111707CBD0000A33C00080248006899
:1033C000C0F30220704700000CED00E010B50028AB
:1033D00004DB0A07130E054A135406E00A07140E0D
:1033E000034A00F00F031B1FD45410BD00E400E09B
:1033F00018ED00E0EFF30580704702E008C8121FE7
:1034000008C1002AFAD170477047002001E001C1CD
:10341000121F002AFBD170472DE9FF5F82B0002107
:10342000DDE90430020DDDF840B0034318D044F666
:103430001050A2F2FF3242431514119801281FD0F8
:10344000A5EB0B00401C5FEA000A4FF000064E4F50
:10345000DFF83891B046504615D5CAF1000413E0A4
:10346000119801244AA3012801D16FEA0B010298A7
:10347000119AC0E90031C0E9024206B0BDE8F09FF0
:10348000CBF10000DFE704460021404A491842EB37
:103490000450CDE9001012E0E00707D032463B4669
:1034A00040464946FDF76BF88046894632463B4622
:1034B00010461946FDF763F806460F466410002CC7
:1034C000EAD1DDE90401DDE90023BAF1000F06DAF3
:1034D000FDF755F842464B46FDF751F805E0FDF77C
:1034E000C0F842464B46FDF7BCF804460E460022A3
:1034F000284BFDF73DF903D84FF0FF30014607E0B8
:103500000022254B20463146FCF792FFFDF718F9C3
:10351000102409E0002C0ADB0A220023FCF7BAFE83
:10352000039B30321A55641E50EA0102F2D1641C2A
:10353000039AC4F111031444119A012A03D0012201
:1035400008430DD10AE0084304D000204FF0110BCE
:10355000119072E7A3EB0B056D1E0DE05B4504DDDA
:103560004FF0000205F1010504E003DA4FF000021C
:10357000A5F10105002AECD002981199C0E90231A9
:10358000C0E9004579E70000000014400000F03F6A
:10359000300000000000F0430000E03F2DE9FF4F45
:1035A00095B09A46884606460025EEE1252877D153
:1035B00000242746F94A0121039400E0044316F849
:1035C000013F203B01FA03F01042F7D130782A285E
:1035D00011D06FF02F033078A0F13002092A16D8ED
:1035E000039A44F0020402EB820203EB420210440D
:1035F000761C0390EFE758F8042B0392002A03DAB5
:10360000504244F40054039044F00204761C307895
:103610002E2816D116F8010F44F004042A280DD0E4
:103620006FF02F023078A0F13003092B09D807EB97
:10363000870302EB4303C718761CF3E758F8047BB3
:10364000761C30786C280FD006DC4C2817D0682800
:103650000DD06A2814D104E0742810D07A280FD134
:103660000DE044F400140AE044F4801401E044F452
:1036700040147278824202D104F58014761C761CC4
:10368000307866280BD013DC582877D009DC002866
:1036900075D04528F6D04628F4D047281AD193E1B2
:1036A00018E0632835D0642879D0652812D18BE1E1
:1036B000702873D008DC6728F1D069286FD06E2895
:1036C0000DD06F2806D1ACE073282CD0752874D0AB
:1036D000782853D05246179990476D1C54E1C4F393
:1036E0000250022809D003280DD0D8F80010042871
:1036F0000DD00D6008F1040846E1D8F80010EA1773
:10370000C1E90052F6E7D8F800100D80F2E70D701D
:10371000F0E718F8041B8DF8001000208DF8010068
:10372000EB46012003E058F804BB4FF0FF3061077F
:103730004FF0000102D40DE009F101018946B942C0
:103740000FDA8145F8DB1BF809100029F4D108E0F5
:1037500009F1010189468142FADB1BF809100029B1
:10376000F6D103985346A0EB090721463846179A2D
:1037700000F080FA284400EB090507E044E008E186
:103780000DE01BF8010B524617999047B9F101095A
:10379000F7D2534621463846179AF2E039E00A211B
:1037A000C4F302524FF0000B0091022A06D058F8E1
:1037B000040BC117032A09D00AE023E008F107002F
:1037C00020F00702F2E80201904605E000B2C117BE
:1037D000042A01D140B2C117002906DA0A460021A5
:1037E000404261EB02012D2202E0220504D52B228A
:1037F0008DF80420012203E0E20701D02022F7E740
:10380000914657E00A2100E010214FF0000B009193
:103810000BE010214FF0000B44F004040827009146
:1038200003E008204FF0000B0090C4F30252022A7C
:1038300005D058F8040B0021032A08D008E008F14D
:10384000070020F00702F2E80201904603E080B290
:10385000042A00D1C0B24FF0000922072AD53278DD
:10386000702A07D0DDF800C08CF0100C5CEA0B0C5D
:1038700005D00EE040228DF80420012208E050EA35
:10388000010306D030238DF804308DF80520022284
:103890009146009B83F0080353EA0B030AD150EAD8
:1038A000010201D1620705D530228DF804204FF0C6
:1038B00001097F1E3278582A04D039A20C920CAA32
:1038C00002920BE03BA2F9E75B46009AFCF7E2FCB0
:1038D0000C9B9B5C029A521E0292137050EA0102EA
:1038E000F2D1029804A9081A00F1200B600702D552
:1038F00024F4803400E001275F4502DDA7EB0B00D4
:1039000000E0002000EB0B01009003984944401AAE
:103910000390E00306D453462146179A039800F01B
:10392000A9F90544002706E001A85246C05D179991
:1039300090476D1C7F1C4F45F6DBE0030CD55346CA
:103940002146179A039800F095F9054404E03020C9
:103950005246179990476D1C0099481E0090002907
:10396000F5DC08E00298029952460078491C029161
:10397000179990476D1CBBF10001ABF1010BF1DC15
:103980005BE100F065F90544761C307800287FF48F
:103990000DAE19B02846BDE8F08F000009280100DF
:1039A00030313233343536373839616263646566B5
:1039B0000000000030313233343536373839414277
:1039C0004344454600000000600700D4062708F184
:1039D000070020F00700F0E80223804603F0004CC7
:1039E0005FEA0C0001D097A009E0200501D596A060
:1039F00005E0E00701D095A001E0AFF24C00139084
:103A0000307823F0004365280CD006DC452809D027
:103A100046281DD047287FD13BE0662818D067286C
:103A20007AD136E00021112F01DB112000E0781C53
:103A3000CDE9000104A90CA8FFF7EEFCDDE90D01BA
:103A40000C9A4FF0000B07F10109109200914EE023
:103A50004FF000400097CDE9011004A90CA8FFF732
:103A6000DBFCDDE90D020C9B0F994FF0000B91463A
:103A70001093009211B9791C00EB0109B7EB090012
:103A800003D4C0F1FF3B07F10109A9EB0700019046
:103A900042E0012F00DA01270021112F01DD112062
:103AA00000E03846CDE9000104A90CA8FFF7B4FCFA
:103AB000DDE90D010C9A00914FF0000BB946109210
:103AC00021070FD4009A4A4503DA914601E0A9F193
:103AD0000109B9F1010F05DD109AA9F10101515C4D
:103AE0003029F4D0B84202DA10F1040F03DA0121D0
:103AF000CDE9011010E0002803DC8344A9EB0001AC
:103B000002E0411C494500DD8946A0EB0B00401C4A
:103B100001904FF000400290200705D401984845DD
:103B200002DB4FF0FF30019000208DF84B0002982F
:103B30000DF14B07B0F1004F25D002200C902B2047
:103B40000D90029800280CDA404202902D200D9032
:103B500007E00A210298FCF736FC3031029007F8A2
:103B6000011D0C99481E0C900029F2DC02980028D7
:103B7000EFD1791E0D980870307800F0200040F0E9
:103B8000450007F8020D11A8C01BC01D0290139834
:103B9000007800B1012000EB0901019801EBE07110
:103BA000029801440398401A401E0390E00306D493
:103BB00053462146179A039800F05CF80544139881
:103BC000007818B15246179990476D1CE00323D531
:103BD00053462146179A039800F04CF805441BE021
:103BE000BBF1000F07DB0098584504DD10981799CA
:103BF00010F80B0001E017993020524690470198C9
:103C00000BF1010B401E05F10105019004D12E209E
:103C10005246179990476D1CB9F10001A9F10109AD
:103C2000DEDC05E017F8010B5246179990476D1C32
:103C30000299481E02900029F4DC53462146179A47
:103C400003989EE62D0000002B00000020000000DD
:103C50002DE9F041044600251E461746880404D489
:103C600005E039462020B0476D1C641EF9D5284672
:103C7000BDE8F0812DE9F041044600251E4690463E
:103C8000C80301D5302700E02027880404D505E0CB
:103C900041463846B0476D1C641EF9D52846BDE83C
:103CA000F0814A68002A06D00A68531C0B60107025
:103CB0004868401E4860704770B586B00546002DC4
:103CC0001CD126480068002811D14FF4F070244917
:103CD00024A229A3CDE90310CDE9013200900B46BF
:103CE0002EA238A1002000F09BF800BFFEE74FF4A1
:103CF000F0721B491BA0194B1B689847002405262E
:103D0000324890F8F00010B9304606B070BD00F0AF
:103D100093FA00241BE004EB44112C483130084492
:103D200090F82000012810D104EB441227483130CC
:103D30001044411C1E222846FCF723FB28B904EB43
:103D4000441122483130465C03E0601CC4B2052CAB
:103D5000E1DB00BF00F0A4FA3046D6E760000020A7
:103D6000896C000874616720213D202828766F69DE
:103D700064202A29302900002825732920686173CE
:103D800020617373657274206661696C656420617B
:103D9000742025733A256C642E0000002E2E5C4D95
:103DA0004964646C6577617265735C656173796C95
:103DB0006F676765725C7372635C656C6F672E63B7
:103DC00000000000656C6F670000000060020020CA
:103DD00010B50024114890F8F000012801D12046C8
:103DE00010BD00F083FA04460CB12046F8E701202C
:103DF00000F036FA0020094981F8F30081F8F40058
:103E0000012000F0DDFB052000F084FA00F0E6FA66
:103E10000120024981F8F0002046E1E7600200201D
:103E20000FB42DE9F04F8DB005460F469846DDF8EA
:103E300068903846FCF795FA824600244FF0020B52
:103E400000200B900C900790089009900A90052D87
:103E50001CDDCC480068002811D140F23E20CA4940
:103E6000CAA2D1A3CDE90310CDE9013200900B46DF
:103E7000D6A2E0A10020FFF7D3FF00BFFEE740F28B
:103E80003E22C149C1A0BF4B1B689847DB4890F850
:103E9000F10020B90DB0BDE8F00F5DF814FBD74874
:103EA0000078A84204DB3846FFF706FFA84200DA94
:103EB000F0E7D249491C3846FCF741FA00B9E9E776
:103EC0001CA8069000F0B8F9CC4890F8F50078B13D
:103ED000CB480119CBA2204600F02CFC0444CA4870
:103EE00050F82520C6480119204600F023FC044460
:103EF0000121284600F0A4FC40B1C44850F8252018
:103F0000BF480119204600F015FC04440221284650
:103F100000F096FCE8B1BA4801193A46204600F094
:103F200009FC0444BAF10F0F0CD8CAF10F0120228A
:103F300007A8FCF7F2F9B248011907AA204600F0D9
:103F4000F9FB0444AE480119B1A2204600F0F2FB8F
:103F500004441C21284600F073FC002852D0A848D5
:103F60000119ACA2204600F0E5FB044404212846D8
:103F700000F066FCA8B100F0B5F90590A048011961
:103F80002046059A00F0D6FB04441821284600F08C
:103F900057FC30B19A4801199DA2204600F0CAFB97
:103FA00004440821284600F04BFCA8B100F08CF92D
:103FB0000590934801192046059A00F0BBFB044484
:103FC0001021284600F03CFC30B18D48011990A228
:103FD000204600F0AFFB04441021284600F030FCDE
:103FE00048B100F079F90590854801192046059AF5
:103FF00000F0A0FB04448248011987A2204600F08B
:1040000099FB044420212846189A00F085FC60B9E9
:1040100042464021284600F07FFC30B94A468021C4
:10402000284600F087FC002862D0754801197BA261
:10403000204600F07FFB044420212846189A00F017
:104040006BFC08B36E4801192046189A00F072FB09
:10405000044442464021284600F05EFC38B16848DE
:1040600001196FA2204600F065FB04440CE04A46AB
:104070008021284600F05EFC30B16148011964A23D
:10408000204600F057FB04444A468021284600F0B1
:1040900051FCC8B14B4663A205210BA8FFF75AF9A2
:1040A000574801190BAA204600F044FB044442463D
:1040B0004021284600F030FC30B15148011954A28B
:1040C000204600F037FB044442464021284600F0D9
:1040D00023FC30B14A4801194246204600F02AFB31
:1040E00004444748011950A2204600F023FB044431
:1040F000C4F58061424A1019069B1B9AFFF744F9E8
:10410000064600200690A019B0F5806F03D8002E57
:1041100001DB344401E04FF48064201D5844B0F5C5
:10412000806F04D94FF48064241FA4EB0B04334840
:1041300090F8200058B10020314908552F4920310E
:104140002F48FCF7FCF810B900F0AAF8A2E62B48BB
:1041500090F8F50030B12A48011934A2204600F049
:10416000E9FA04442648011932A2204600F0E2FA96
:1041700004442146224800F0BFF800F091F800BF47
:1041800088E6000060000020A16C00086C65766580
:104190006C203C3D20454C4F475F4C564C5F56458C
:1041A00052424F534500000028257329206861734F
:1041B00020617373657274206661696C6564206147
:1041C000742025733A256C642E0000002E2E5C4D61
:1041D0004964646C6577617265735C656173796C61
:1041E0006F676765725C7372635C656C6F672E6383
:1041F00000000000656C6F67000000006002002096
:10420000580300201B5B0000480000203000002005
:10421000200000005B0000005D200000280000007E
:104220003A000000256C6400290000001B5B306D23
:10423000000000000D0A000010B5084890F8F200D8
:1042400030B100F062F80120044981F8F40003E085
:104250000120024981F8F30010BD00006002002037
:1042600010B504460D4880F8F24090F8F200A0B175
:104270000A4890F8F40030B9084890F8F30010B1FB
:1042800000F043F809E0054890F8F40028B103482D
:1042900090F8F30008B900F03AF810BD6002002071
:1042A00010B5084890F8F20030B100F030F8002066
:1042B000044981F8F40003E00020024981F8F3008A
:1042C00010BD00006002002000A0704762617265AE
:1042D0006D6574616C00000000A070476D61696ECF
:1042E0000000000000A070470000000010B500248E
:1042F000FEF764FC204610BD70B504460D462A4604
:1043000021460020FEF75EFC70BD72B6704762B6B3
:104310007047000010B586B00446052C1CDD10481F
:104320000068002811D14FF4AD700E490EA215A3FC
:10433000CDE90310CDE9013200900B461AA224A169
:104340000020FFF76DFD00BFFEE74FF4AD72054999
:1043500005A0034B1B6898471F48047006B010BDAA
:10436000600000205D6C00086C6576656C203C3D4B
:1043700020454C4F475F4C564C5F564552424F5379
:10438000450000002825732920686173206173733C
:10439000657274206661696C6564206174202573A0
:1043A0003A256C642E0000002E2E5C4D4964646C2E
:1043B0006577617265735C656173796C6F6767655A
:1043C000725C7372635C656C6F672E630000000043
:1043D000656C6F67000000006002002010B50024CB
:1043E00000BF13E004EB44120A491144481C1F218A
:1043F000FBF79AFF002104EB44120648815404EBBA
:104400004412104480F82010601CC4B2052CE9DB73
:1044100010BD00009102002030B585B004460D4665
:10442000052C1CDD10480068002811D14FF4A07045
:104430000E490FA215A3CDE90310CDE9013200907A
:104440000B461BA224A10020FFF7EAFC00BFFEE7F9
:104450004FF4A072054906A0034B1B6898472048FB
:1044600040F8245005B030BD60000020406C0008CA
:104470006C6576656C203C3D20454C4F475F4C5643
:104480004C5F564552424F53450000002825732982
:104490002068617320617373657274206661696C52
:1044A00065642061742025733A256C642E00000039
:1044B0002E2E5C4D4964646C6577617265735C6532
:1044C0006173796C6F676765725C7372635C656C4E
:1044D0006F672E6300000000656C6F6700000000CE
:1044E0003803002010B586B00446002C1ED0012CE5
:1044F0001CD011480068002811D140F215100F4956
:104500000FA219A3CDE90310CDE9013200900B46AB
:104510001EA228A10020FFF783FC00BFFEE740F2A7
:104520001512064906A0044B1B689847234880F8DB
:10453000F14006B010BD0000600000200C6C0008C7
:1045400028656E61626C6564203D3D2066616C7318
:104550006529207C7C2028656E61626C6564203D45
:104560003D207472756529002825732920686173C0
:1045700020617373657274206661696C6564206183
:10458000742025733A256C642E0000002E2E5C4D9D
:104590004964646C6577617265735C656173796C9D
:1045A0006F676765725C7372635C656C6F672E63BF
:1045B00000000000656C6F670000000060020020D2
:1045C00010B586B00446002C1ED0012C1CD011481A
:1045D0000068002811D140F221100F490FA219A341
:1045E000CDE90310CDE9013200900B461EA228A1AF
:1045F0000020FFF715FC00BFFEE740F2211206493C
:1046000006A0044B1B689847234880F8F54006B085
:1046100010BD000060000020246C000828656E6159
:10462000626C6564203D3D2066616C736529207C69
:104630007C2028656E61626C6564203D3D2074724B
:1046400075652900282573292068617320617373BB
:10465000657274206661696C6564206174202573DD
:104660003A256C642E0000002E2E5C4D4964646C6B
:104670006577617265735C656173796C6F67676597
:10468000725C7372635C656C6F672E630000000080
:10469000656C6F6700000000600200200EB50B48DB
:1046A00090F8F00000B90EBD0120FFF71BFF08A035
:1046B00009A1F622124BCDE90021029011A21BA103
:1046C0000320FFF7ADFB00BFEDE700006002002014
:1046D000322E322E39390000456173794C6F67678D
:1046E00065722056257320697320696E697469614B
:1046F0006C697A6520737563636573732E000000BF
:10470000F76B00082E2E5C4D4964646C657761720E
:1047100065735C656173796C6F676765725C7372F2
:10472000635C656C6F672E6300000000656C6F67EB
:1047300000000000F0B585B006460D461446274639
:10474000002D1AD124480068002810D12C202349BC
:1047500023A224A3CDE90310CDE9013200900B463A
:1047600029A234A10020FFF75BFB00BFFEE72C224B
:104770001A491BA0184B1B689847002C19D11648E2
:10478000006880B92D2015492CA216A3CDE903108D
:10479000CDE9013200900B461BA226A10020FFF7B5
:1047A0003FFB00BFFEE72D220C4924A00A4B1B68EB
:1047B00098470AE03046761CB0F5806F04D214F8B2
:1047C000010B05F8010B00E002E020780028F1D190
:1047D00000BFE01B05B0F0BD60000020D96C0008F0
:1047E00064737400282573292068617320617373D2
:1047F000657274206661696C65642061742025733C
:104800003A256C642E0000002E2E5C4D4964646CC9
:104810006577617265735C656173796C6F676765F5
:10482000725C7372635C656C6F675F7574696C73DF
:104830002E630000656C6F670000000073726300F8
:1048400030B585B004460D46052C1CDD13480068C4
:10485000002811D140F2DF20114912A218A3CDE99E
:104860000310CDE9013200900B461EA227A10020C3
:10487000FFF7D6FA00BFFEE740F2DF22084909A0A1
:10488000064B1B689847234850F82400284010B175
:10489000012005B030BD0020FBE7000060000020D3
:1048A000AD6C00086C6576656C203C3D20454C4F36
:1048B000475F4C564C5F564552424F5345000000EF
:1048C00028257329206861732061737365727420D1
:1048D0006661696C65642061742025733A256C6497
:1048E0002E0000002E2E5C4D4964646C6577617269
:1048F00065735C656173796C6F676765725C737211
:10490000635C656C6F672E6300000000656C6F6709
:10491000000000003803002070B505460E4614461E
:1049200034B131462846FFF78BFF08B1012070BD36
:104930000020FCE770B505460E46144634B13146FA
:104940002846FFF77DFF08B1012070BD0020FCE77D
:104950001CB5FDF70BF9FCF7C9F9FEF7EBF9FEF70B
:10496000A3F8FEF775F8FEF72BF8FEF761F8FEF7EF
:10497000CDF8FEF703F90AA07A210F4B0FA2CDE97B
:10498000001013A10320FFF74BFAFCF795F800F095
:1049900033F8FEF779F800F045F800BFFEE70000B5
:1049A0002031365F4144435F444D4120737461724E
:1049B0007420210D0A0000007C6B00082E2E2F436E
:1049C0006F72652F5372632F6D61696E2E630000E5
:1049D0004D41494E0000000070B50546FEF70AFD46
:1049E00010B16FF0050404E0002415B1284600F072
:1049F000FBFF204670BD000010B5FEF7FBFC10B1B8
:104A00006FF0050409E00648006820B90120044958
:104A10000860002401E04FF0FF34204610BD000084
:104A2000B400002070B5FEF7E5FC10B16FF005048E
:104A30001FE011480068012819D100BF801F002124
:104A4000002804DB0A07130E0C4A135406E00A0779
:104A5000150E0B4A00F00F031B1FD55400BF00BFFB
:104A600002200549086001F03BF8002401E04FF006
:104A7000FF34204670BD0000B400002000E400E0D8
:104A800018ED00E02DE9FF478046894614460020D6
:104A90000390FEF7AFFC00284ED1B8F1000F4BD0C9
:104AA000802618258246471E44B3206808B1D4F8F2
:104AB00000A0A06900B1A5692DB1382D03D82079D7
:104AC00000F0010018B1002004B0BDE8F087606973
:104AD00008B160698608A06840B1E0685C2805D329
:104AE000206918B1606908B1012708E0A06830B9F1
:104AF000E06820B9206910B9002700E00027012FE5
:104B00000CD12169A0684B463246CDE90051029094
:104B10005146404601F07EFD03900DE067B903A8C1
:104B2000B2B24B465146CDE90050404601F040FD3F
:104B3000012801D0002003900398C5E72DE9F0413A
:104B400005460E461648076816480068001D00F026
:104B5000C3FD681C38B936B112480168091D1248F6
:104B600000F010FE1AE07C190E4800684460BC4258
:104B700007D20C480168091D0C48006800F0E8FDE8
:104B80000CE008480168091D0948006800F0E0FDD4
:104B900008480068844201D206480460BDE8F081FC
:104BA0007800002064000020001100206C0000202C
:104BB000680000209400002010B5044600F0EEFDCF
:104BC00024480068401C234908602348006840B915
:104BD000214804600846006801280DD100F0FCF966
:104BE0000AE01E48006838B91B480068C06AE16ADC
:104BF000884201D81848046019480068401C1849C8
:104C000008600846006860641649E06A09688842DE
:104C100002D91449E06A0860E16A01EB8101124A95
:104C200002EB8100211D00F0ADFD00F0E1FD0B481D
:104C3000006868B108480068C06AE16A884207D223
:104C40004FF0805009490860BFF34F8FBFF36F8F5B
:104C500010BD0000740000206400002080000020CF
:104C6000900000207C000020500C002004ED00E0AB
:104C700008B500F093FD12480068E8B9114800F04B
:104C800057FD114800F054FD0E48104908600E48C9
:104C90000F49086000200F4B0F4A102100900A2096
:104CA00001F0C5F8064908600846006820B10BA16C
:104CB0000348006800F05CFE00F09AFD08BD0000AB
:104CC000A80000201411002028110020A0000020BE
:104CD000A40000203C1100208C110020546D725162
:104CE0000000000010B516E000F058FD0C48C06848
:104CF000C468201D00F0F0FC0A480068401E094905
:104D0000086009480068401E0749086000F070FD0F
:104D1000204600F05FF8044800680028E4D110BD88
:104D2000EC100020740000207000002070B50446D4
:104D30000D46206C70B1216CE0680144E160D4E95B
:104D40000210884201D32168E1602846226CE168A4
:104D5000FBF7D1FA70BD2DE9F04104460F46154628
:104D60004FF00008A66B206C48B9206800282CD1B1
:104D7000A06801F065FD80460020A06025E07DB9B7
:104D80003946226C6068FBF7B6FA216C606808440B
:104D90006060D4E90101884217D32068606014E0A4
:104DA0003946226CE068FBF7A6FA216CE068411AEC
:104DB000E1602168E068884203D2216CA068411A52
:104DC000E160022D01D106B1761E701CA063404641
:104DD000BDE8F08110B5044694F8590030B9206B55
:104DE00000F024FD204600F021FD1AE094F859005F
:104DF000012803D1204600F019FD12E094F8590073
:104E0000022801D1012000E0002050B900BF50204D
:104E100080F31188BFF34F8FBFF36F8F00BF00BFC8
:104E2000FEE710BD0146084A126812680AB901225D
:104E300000E000220A600A6822B9034A1268D268B8
:104E4000106800E000207047A000002030B54FF44B
:104E50007053174800F007042CB1C01D20F0070064
:104E6000134C041B1B1B0246124C22600024114DE4
:104E70006C60D018083820F007000F4C2060002428
:104E80000D4D2D686C600C4D2D682C601146441A38
:104E90004C60094C24680C60084D4C682C60084D2F
:104EA0004C682C604FF00044064D2C6030BD000073
:104EB000E4180020B8000020C0000020C800002036
:104EC000C4000020D400002000BFFFF70BFF0648FD
:104ED00000680128F9D94FF0805004490860BFF3F9
:104EE0004F8FBFF36F8FF0E7500C002004ED00E010
:104EF0002DE9F04106460D4617469846069C0DB929
:104F0000246000E02760E66325640121204600F06C
:104F1000FFFF84F84C80BDE8F0812DE9F05F824608
:104F20000E4690469B460A9F0C9C4FEA8801A5229C
:104F3000206BFBF7F2F9A8F10100216B01EB80096E
:104F400029F0070909F0070008B9012000E0002056
:104F500050B900BF502080F31188BFF34F8FBFF3CB
:104F60006F8F00BF00BFFEE786B1002507E0715DCF
:104F700004F134004155705D00B902E06D1C102D44
:104F8000F5D300BF00214320015502E0002084F842
:104F90003400382F00D33727E762E764002020650C
:104FA000201D00F0D2FB04F1180000F0CEFB2461BC
:104FB000C7F13800A06164620020606584F8580081
:104FC0005A465146484600F071FB20600B9808B1E4
:104FD0000B980460BDE8F09F10B5002407E004EBD7
:104FE00084010F4A02EB810000F0A2FB641C382C04
:104FF000F5D30C4800F09CFB0B4800F099FB0B48E4
:1050000000F096FB0A4800F093FB0A4800F090FB82
:1050100004480949086004480849086010BD0000B8
:10502000500C0020B0100020C4100020D810002028
:10503000EC10002000110020680000206C0000200F
:1050400010B50146164800E0006803688B42FBD3A8
:105050000246436813448B4204D143684C6823449E
:10506000436001460A464B6813440468A34211D1C9
:105070000C4C03682468A34208D04B680468646839
:1050800023444B6003681B680B6005E0054B1B68FD
:105090000B6001E003680B60884200D0016010BD26
:1050A000B8000020C00000202DE9F04104460D4664
:1050B00016461F464FF0000865602461B5420CD8C3
:1050C000F01BA169884202D34FF0010811E0211DB5
:1050D0000948006800F03CFB0BE0BE4204D2BD4230
:1050E00002D34FF0010804E0211D0448006800F0DD
:1050F0002FFB4046BDE8F081A4000020A000002066
:1051000070B5054600F04AFBA86B08B9012400E021
:10511000002400F06DFB204670BD70B5054600F020
:105120003DFBA86BE96B884201D1012400E000241B
:1051300000F05EFB204670BDF8B505460F461A48E4
:105140000068C068C468201D00F0C6FA94F8280002
:1051500000F00400E8B1A06941192B463A46204608
:10516000FFF7A2FFD8B1002003462A46014600906F
:10517000204601F0C1FC064656B900BF502080F31E
:105180001188BFF34F8FBFF36F8F00BF00BFFEE7E3
:1051900005E094F8280020F0010084F8280020465B
:1051A000216A8847F8BD0000A0000020F0B587B054
:1051B000A0E00398002811DA04AE56B900BF5020D1
:1051C00080F31188BFF34F8FBFF36F8F00BF00BF15
:1051D000FEE7D6E90020B168904700BF0398002899
:1051E000E6DB059C606908B9012000E0002010B9E9
:1051F000201D00F071FA02A800F0DEF805460398C1
:105200000A2875D2DFE800F009050739416306086E
:105210003A4200BF00BF00BF00BF94F8280040F032
:10522000010084F828000498A269811803462A46E0
:105230002046FFF739FFF8B12046216A884794F8E5
:10524000280000F00400B8B1002000900498A16983
:10525000421800231946204601F04EFC074657B974
:1052600000BF502080F31188BFF34F8FBFF36F8FC3
:1052700000BF00BFFEE700BF3BE000BF94F828007E
:1052800020F0010084F8280033E000BF94F82800E3
:1052900040F0010084F828000498A061A06908B1DA
:1052A000012000E0002050B900BF502080F3118899
:1052B000BFF34F8FBFF36F8F00BF00BFFEE7A06942
:1052C00041192B462A462046FFF7EEFE11E094F8DE
:1052D000280000F0020018B9204600F0A7FA05E007
:1052E00094F8280020F0010084F8280001E0FFE78E
:1052F00000BF00BF002203A90448006801F05EF867
:1053000000287FF456AF07B0F0BD0000A8000020D1
:10531000F8B505460C4600F03FFC684600F04CF836
:105320000646009820BB44B9B54206D801F026FBDA
:1053300031462846FFF700FF1CE03CB10E480068EC
:10534000006808B9012000E000200446A91B22469D
:105350000A48006800F022FB01F010FB50B94FF042
:10536000805007490860BFF34F8FBFF36F8F01E094
:1053700001F004FBF8BD0000A4000020A8000020FC
:1053800004ED00E00A490968096809B9012100E053
:10539000002121B14FF0FF31064A116006E00449B7
:1053A0000968C968C868034A41681160704700000D
:1053B000680000209400002070B5044601F098F9C0
:1053C000054607480068854204D200F00BF801202A
:1053D000206001E00020206001480560284670BD83
:1053E000B00000202DE9F84334E025480068C0688B
:1053F000056823480068C068C468201D00F06CF987
:105400002046216A884794F8280000F0040008B379
:10541000A0694619AE4207D966602461211D18486B
:10542000006800F095F915E0002003462A46014681
:105430000090204601F060FB074657B900BF50209E
:1054400080F31188BFF34F8FBFF36F8F00BF00BF92
:10545000FEE700BF0A480068006808B9012000E0C4
:1054600000200028C1D00648D0F800800548006818
:10547000034908600348C0F80080BDE8F8830000D5
:10548000A0000020A40000200E480068401C08B9BD
:10549000012000E0002050B900BF502080F31188A7
:1054A000BFF34F8FBFF36F8F00BF00BFFEE700BF9A
:1054B000502080F31188BFF34F8FBFF36F8F00BF71
:1054C00000BFFEE7D800002008B500BF6846FFF720
:1054D000A9FC044620460099FFF71AFFFFF766FE75
:1054E000F4E770B5044600F059F994F9455010E01E
:1054F000606A08B9012000E0002038B904F12400F6
:1055000001F0F0F918B100F0A9FA00E003E0681E1C
:1055100045B2002DECDC00BFFF2084F8450000F010
:1055200067F900F03BF994F9445010E0206908B99C
:10553000012000E0002048B904F1100001F0D2F988
:1055400008B100F08BFA681E45B200E001E0002DC2
:10555000ECDC00BFFF2084F8440000F049F970BD86
:105560002DE9F04104464FF0000800F015FB4948D2
:10557000006808B9FFF76AFC474800682040002827
:1055800070D1D4B1083404F00700B0B104F00700C2
:10559000C0F10800044404F0070008B9012000E04D
:1055A000002050B900BF502080F31188BFF34F8F07
:1055B000BFF36F8F00BF00BFFEE7002C52D037480B
:1055C000006884424ED8364E3046056801E02E46CB
:1055D0002D686868A04202D228680028F7D12D48BB
:1055E000006885423ED0306800F1080828683060C5
:1055F0006868001B102819D92F1907F0070008B98F
:10560000012000E0002050B900BF502080F3118835
:10561000BFF34F8FBFF36F8F00BF00BFFEE7686817
:10562000001B78606C603846FFF70AFD1B4968680C
:105630000968081A19490860084600681949096884
:10564000884203D215480068164908601249686804
:105650000968084368600020286013480068401CFF
:105660001149086001F08AF908F0070008B9012023
:1056700000E0002050B900BF502080F31188BFF334
:105680004F8FBFF36F8F00BF00BFFEE74046BDE8FE
:10569000F0810000C0000020D4000020C4000020E1
:1056A000B8000020C8000020CC000020001F4FF0F0
:1056B00080730360001F21F001030360001F054B8E
:1056C000036014380260001F6FF00203036020388B
:1056D000704700008954000801460A69D1E9013089
:1056E0009860D1E9010358605068884201D1886808
:1056F0005060002008611068401E106010687047FC
:10570000034B0360034B0B60802313607047000062
:105710002C12002088120020034B0360034B0B6007
:105720004FF480731360704788140020E414002045
:1057300000F1080141604FF0FF31816000F1080184
:10574000C160016100210160704700210161704763
:1057500010B502460B685C1C0CB9106907E002F139
:10576000080000E04068446824689C42FAD9446814
:105770004C604C68A160886041600A611468641CD8
:10578000146010BD42684A6093688B6093685960EA
:105790009160086103685B1C0360704700BF502084
:1057A00080F31188BFF34F8FBFF36F8F00BF0E4898
:1057B0000068401C0C49086008460068012812D1A6
:1057C0000A480068C0B208B9012000E0002050B9C2
:1057D00000BF502080F31188BFF34F8FBFF36F8F4E
:1057E00000BF00BFFEE77047D800002004ED00E0D6
:1057F0000D48006850B900BF502080F31188BFF3F6
:105800004F8FBFF36F8F00BF00BFFEE706480068F1
:10581000401E054908600846006820B9002080F352
:10582000118800BF00BF7047D800002070B5064641
:105830003546002E44D0083D2C4622496068096850
:10584000084008B1012000E0002050B900BF5020FE
:1058500080F31188BFF34F8FBFF36F8F00BF00BF7E
:10586000FEE7206808B9012000E0002050B900BF21
:10587000502080F31188BFF34F8FBFF36F8F00BFAD
:1058800000BFFEE70F49606809680840C0B12068A2
:10589000B0B90C49606809688843606000F07CF921
:1058A0000949606809680844074908602046FFF70D
:1058B000C7FB06480068401C0449086001F05EF818
:1058C00070BD0000D4000020C4000020D0000020E3
:1058D00000204FF0E02108618861064800684FF41D
:1058E0007A71B0FBF1F0401E4FF0E02148610720D3
:1058F000086170472C00002070B5FAF7B5FC04462B
:10590000102C16D304F1E02090F8F05315480078DD
:10591000854201DB012000E0002050B900BF50208B
:1059200080F31188BFF34F8FBFF36F8F00BF00BFAD
:10593000FEE70D48006800F4E0600C490968884201
:1059400001D8012000E0002050B900BF502080F3B2
:105950001188BFF34F8FBFF36F8F00BF00BFFEE70B
:1059600070BD0000DC0000200CED00E0E000002035
:10597000024600200BE0084B53F8303033B9064B99
:1059800043F8301003EBC0035A6002E0401C0828C3
:10599000F1D300BF70470000100C00202DE9F0414A
:1059A00005460E4617462C46FFF7F8FE94F94400CC
:1059B000401C10B9002084F8440094F94500401CB4
:1059C00010B9002084F84500FFF712FFA06B28B93A
:1059D0003A46314604F1240000F062F82046FFF711
:1059E00080FDBDE8F081000070B504460025D4B10B
:1059F0001248006808B9012000E0002050B900BF3B
:105A0000502080F31188BFF34F8FBFF36F8F00BF1B
:105A100000BFFEE700F0C0F800212046FFF78EF837
:105A200000F0ACFF05463DB94FF0805004490860D6
:105A3000BFF34F8FBFF36F8F70BD00009C0000203D
:105A400004ED00E003490968016003490968416009
:105A5000704700008C0000207800002001200149E0
:105A6000086070478800002070B504460D4654B9A0
:105A700000BF502080F31188BFF34F8FBFF36F8FAB
:105A800000BF00BFFEE70548016818312046FFF758
:105A90005FFE01212846FFF751F870BD6400002029
:105AA00070B505460E46144655B900BF502080F328
:105AB0001188BFF34F8FBFF36F8F00BF00BFFEE7AA
:105AC0000648016818312846FFF75CFE0CB14FF01C
:105AD000FF3621463046FFF731F870BD64000020E4
