:020000040800F2
:10000000D85A002071020008D12A0008912900085E
:10001000CD2A0008D5080008A53900080000000016
:10002000000000000000000000000000B101000816
:100030002B0E0008000000000D020008B32B000882
:100040008B0200088B0200088B0200088B0200085C
:100050008B0200088B0200088B0200088B0200084C
:100060008B0200088B0200088B0200088B0200083C
:100070008B0200088B0200088B0200088B0200082C
:100080008B0200088B0200088B02000800000000B1
:100090000000000000000000000000008B020008CB
:1000A0008B020008912C00088B0200088B020008CC
:1000B0008B0200088B0200088B0200088B020008EC
:1000C0008B0200088B0200088B0200088B020008DC
:1000D0008B020008813300088B020008000000003A
:1000E0008B0200088B0200088B0200080000000051
:1000F0000000000000000000000000008B0200086B
:10010000000000008B0200088B0200088B02000830
:1001100000000000000000000000000000000000DF
:100120008B0200088B020008A50C00088B02000857
:100130008B0200080000000000000000000000002A
:100140000000000000000000000000008B0200081A
:100150008B0200088B020008110D00088B020008BA
:100160008B0200088B020008000000000000000065
:10017000000000000000000000000000000000007F
:10018000000000008B0200080000000000000000DA
:100190008B0200088B020008DFF810D000F0EEFAA6
:1001A0000048004705510008AFF30080D85A0020EE
:1001B0002C4B19680868B0E8F04F80F30988BFF34A
:1001C0006F8F4FF0000080F311887047000000002F
:1001D00008480068006880F308884FF0000080F34A
:1001E000148862B661B6BFF34F8FBFF36F8F00DF25
:1001F00000BF00BF08ED00E0DFF80C00016841F42B
:1002000070010160704700BF88ED00E0EFF30980E6
:10021000BFF36F8F134B1A681EF0100F08BF20ED4D
:10022000108A20E9F04F106009B44FF0500080F3BD
:100230001188BFF34F8FBFF36F8F06F0C5F84FF0F3
:10024000000080F3118809BC19680868B0E8F04F15
:100250001EF0100F08BFB0EC108A80F30988BFF3BE
:100260006F8F70471C000020EFF30580704700007F
:100270000648804706480047FEE7FEE7FEE7FEE740
:10028000FEE7FEE7FEE7FEE7FEE7FEE77D2C00085F
:10029000990100082DE9F05F0546002092469B4633
:1002A00088460646814640241BE02846414647468C
:1002B000224600F09AF853465A46C01A914110D38C
:1002C00011461846224600F081F82D1A67EB010806
:1002D0004F4622460120002100F078F817EB000974
:1002E0004E41201EA4F10104DFDC484631462A4677
:1002F0004346BDE8F09F40EA01039B0703D009E0B5
:1003000008C9121F08C0042AFAD203E011F8013B01
:1003100000F8013B521EF9D27047D2B201E000F85A
:10032000012B491EFBD270470022F6E710B5134699
:100330000A4604461946FFF7F0FF204610BD30B5C7
:1003400005462A460B4612F8010B13F8014B08B17B
:10035000A042F8D01CB1002802D06D1CF1E728465D
:1003600030BD421C10F8011B0029FBD1801A7047D8
:10037000034611F8012B00F8012B002AF9D1184689
:10038000704730B505460020034600E05B1C9342F1
:1003900005D2EC5CC85C201A01D1002CF6D130BD2E
:1003A00030B50B46014600202022012409E021FA45
:1003B00002F59D4205D303FA02F5491B04FA02F542
:1003C0002844151EA2F10102F1DC30BD202A04DB15
:1003D000203A00FA02F1002070479140C2F1200358
:1003E00020FA03F3194390407047202A04DB203A97
:1003F00021FA02F00021704721FA02F3D040C2F145
:10040000200291400843194670472DE9FE4F80466F
:1004100081EA0300C00F0C46009021F0004123F058
:100420000045B8EB0200A94105D24046214690465E
:100430001C460B46024623F00040104347D0270DD0
:10044000C7F30A00C3F30A510290401A01904028F2
:100450006BDAC3F3130040F4801B0098924620B17E
:100460000023D2EB030A63EB0B0B01985946C0F152
:1004700040025046FFF7AAFF06460D465046594631
:10048000019A00F08DF910EB08006141002487EA21
:10049000115284EAE7731A4340D0009A62B3019A7A
:1004A000012A4FEA075215DC001B61EB02014FF0F5
:1004B000004202EA0752CDE90042001C41F58011DA
:1004C00032462B4600F08DF903B0BDE8F08F404670
:1004D0002146F9E7001B61EB0201001C41F5801386
:1004E00000185B412018A2F5001747EB030140EA12
:1004F000D570B6196D4111E06D084FEA360645EA30
:10050000C0754FEA0752001B61EB0201001C41F568
:10051000801149084FEA30000019514132462B46FC
:1005200003B0BDE8F04F00F04DB900980122400043
:100530000023D0EB020263EBE073009821464FEA00
:10054000E074B8EB000061EB0401E9E783F00043DD
:100550005BE781F0004158E72DE9FE4F81EA030493
:1005600004F0004421F0004100944FF0000B23F010
:10057000004350EA01045ED052EA03045BD0C3F3A7
:100580000A54C1F30A552C44A4F2F3340194A0FB9D
:100590000254C1F3130141F48011C3F3130343F474
:1005A000801301FB024400FB034E840A970A44EACD
:1005B000815447EA8357A4FB076802958D0A05FB1F
:1005C00007854FEA932C04FB0C542705029D4FEA44
:1005D000065847EA1637B5EB08056EEB070C870E91
:1005E000920E47EA811742EA8312A7FB0201B6EB9B
:1005F0000B0164EB00042B0D43EA0C335E1844EB53
:100600001C50DA465146E7FB0201C5F313044FEADA
:100610000B3343EA14534FEA0432019C43EA0603C6
:10062000A4F10C040294009CCDE900B400F0D9F8C8
:1006300003B0BDE8F08F00200146F9E72DE9F04D49
:1006400081EA030404F0004B21F0004514464FF00A
:10065000000A23F0004150EA050220D054EA0102CA
:100660001DD0C5F30A570246C5F31303C1F31300A7
:10067000C1F30A5640F4801543F48013A7EB060833
:10068000101BD64608F2FD3873EB050002D308F1C3
:10069000010801E092185B41B8F1000F03DA002075
:1006A0000146BDE8F08D00204FF4801106468446D7
:1006B0000EE0171B73EB050705D3121B63EB050355
:1006C00006434CEA010C49084FEA300092185B419E
:1006D00050EA0107EDD152EA030012D082EA040089
:1006E00083EA0501084305D0101BAB4106D2012265
:1006F000002306E000224FF0004302E06FF0010209
:1007000053101AEB06004CEB085110EB0A0041EBBA
:100710000B01BDE8F04D00F055B8C1F30A52C1F32A
:10072000130140F2FF3341F480119A4202DA0020B3
:100730000146704740F233439A42A2F2334202DC50
:100740005242FFF752BEFFF741BE000030B5041E13
:1007500071F1000404DB4FF00044404264EB0101FE
:10076000141E73F1000405DB1C464FF00043524297
:1007700063EB0403994208BF904230BD064C074D1D
:1007800006E0E06840F0010394E807009847103461
:10079000AC42F6D3FFF704FD207500084075000851
:1007A000202A06DBCB17203A41FA02F043EAE07335
:1007B00006E041FA02F3D040C2F120029140084322
:1007C0001946704710B5141E73F1000408DA401C76
:1007D00041F1000192185B411A4301D120F0010060
:1007E00010BD2DE9F04D92469B4611B1B1FA81F250
:1007F00002E0B0FA80F220329046FFF7E7FD0446AF
:100800000F4640EA0A0041EA0B0153465A460843A4
:1008100013D0114653EA010019D0C8F140025046E6
:10082000FFF7E3FD05460E46504659464246FFF7A0
:10083000CDFD084305D0012004E020463946BDE83F
:10084000F08D0020054346EAE0762C4337430A98B2
:100850006305E40AA0EB08000022FD0A44EA4754BD
:100860000A3002D500200146E9E701051019694167
:10087000DDE9084500196941BDE8F04DA2E710B572
:1008800003F080FE012004F075FAFF21002004F03F
:100890009DF90721012004F099F90721022004F0B5
:1008A00095F90721032004F091F9BF21042004F0F9
:1008B0008DF9BF21052004F089F904F0C9FA10BDB3
:1008C0000348006808B90020704701480068FBE74A
:1008D000E400002000BFFEE71CB500246C2004F0FB
:1008E00055FC0446002C0BD108A03921134B14A24F
:1008F000CDE9001020A1012003F06CFE00201CBDFA
:100900006C212046FFF710FD2046F8E720455252A3
:100910004F523A20705F63697263756C61725F62F7
:1009200075665F74656D204D616C6C6F6320466108
:10093000696C65642021200A200000004A740008C8
:100940002E2E5C4D6964646C6577617265735C4DD5
:1009500049445F43697263756C617242756666658E
:10096000725C4D69645F43697263756C6172427554
:10097000666665722E6300004E4F5F54414700006B
:100980007CB504460D46002C0BD114A0B9211E4B9A
:100990001EA2CDE900102BA1042003F01BFEFF20B6
:1009A0007CBD204600F0D2F858B928A0BE21164BD5
:1009B00016A2CDE9001023A1032003F00BFEFE20B8
:1009C000EEE76421A06EB0FBF1F201FB1200205CA7
:1009D0002870A06E401CA0660020E1E74552524FEF
:1009E000523A204369726275665F47657444617468
:1009F0006120705F636972627566206973204E556D
:100A00004C4C20210A0000009A7400082E2E5C4DE8
:100A10006964646C6577617265735C4D49445F43DA
:100A2000697263756C61724275666665725C4D6968
:100A3000645F43697263756C617242756666657264
:100A40002E6300004E4F5F544147000020705F63EB
:100A5000697262756620697320656D7074792020F3
:100A60000A0000007CB504460D46002C0BD114A0F2
:100A700096211F4B1FA2CDE900102CA1012003F0ED
:100A8000A9FDFF207CBD204600F0B0F858B929A090
:100A90009B21174B17A2CDE9001024A1032003F0DE
:100AA00099FDFE20EEE76421606EB0FBF1F201FBE0
:100AB00012002554606E401C60660020E2E70000D2
:100AC0004552524F523A204369726275665F496ED1
:100AD000736572744461746120705F6369726275DA
:100AE00066206973204E554C4C20210A00000000FE
:100AF000887400082E2E5C4D6964646C65776172A1
:100B000065735C4D49445F43697263756C61724201
:100B100075666665725C4D69645F43697263756C86
:100B200061724275666665722E6300004E4F5F54B7
:100B30004147000020705F636972627566206973C7
:100B40002066756C6C20200A000000001CB504466D
:100B5000002C0BD109A05521134B14A2CDE9001094
:100B600020A1042003F036FDFF201CBDD4E91901AB
:100B7000884201D10020F8E70120F6E74552524FA4
:100B8000523A204369726275665F4973456D7074AD
:100B90007920705F636972627566206973204E55B3
:100BA0004C4C20210A0000006B7400082E2E5C4D76
:100BB0006964646C6577617265735C4D49445F4339
:100BC000697263756C61724275666665725C4D69C7
:100BD000645F43697263756C6172427566666572C3
:100BE0002E6300004E4F5F54414700001CB5044681
:100BF000002C0BD10FA07521194B1AA2CDE90010C2
:100C000026A1012003F0E6FCFF201CBD606E401C05
:100C10006421B0FBF1F201FB12006422A16EB1FB72
:100C2000F2F302FB1311884201D10020EDE701200D
:100C3000EBE700004552524F523A20436972627509
:100C4000665F497346756C6C20705F63697262758C
:100C500066206973204E554C4C20210A000000008C
:100C60007A7400082E2E5C4D6964646C657761723D
:100C700065735C4D49445F43697263756C61724290
:100C800075666665725C4D69645F43697263756C15
:100C900061724275666665722E6300004E4F5F5446
:100CA000414700001CB507A0C9210E4B0EA2CDE99B
:100CB000001014A1032003F08DFC144800F020FA6A
:100CC0001CBD00002048414C20444D41325F53740C
:100CD0007265616D325F49525148616E646C657234
:100CE000200D0A00BE7200082E2E2F436F72652F52
:100CF0005372632F73746D3332663478785F69741E
:100D00002E6300004E4F5F54414700003801002021
:100D100010B5024800F0F4F910BD00009801002061
:100D20000146087810381823B0FBF3F20848805CBD
:100D3000C865032A05D908686FF30900001D886596
:100D400003E008686FF309008865886D704700004C
:100D5000D6720008014600208A6A8B69CBB932B18D
:100D6000012A0DD0022A03D0032A10D10EE000BFC1
:100D7000CB6A03F08073B3F1807F00D1012007E0DC
:100D8000CB6AB3F1C07F00D1012001E000E000BFD9
:100D900034E08B69B3F5005F1AD132B1012A07D074
:100DA000022A03D0032A11D10AE000BF01200EE07D
:100DB000CB6A03F08073B3F1807F00D1012006E09D
:100DC000CB6AB3F1C07F00D1012000E000BF15E085
:100DD00032B1012A05D0022A04D0032A0CD103E043
:100DE00000BF00BF012008E0CB6A03F08073B3F1BD
:100DF000807F00D1012000E000BF00BF704730B508
:100E00000468246824F4802405682C600468636006
:100E10008468402C04D10468A2600468E16003E0A7
:100E20000468A1600468E26030BD70473EB50024EC
:100E300000F02AFC044645A0F9214B4B4BA2CDE91A
:100E4000010400914EA1002003F0C4FB4EA0FA2142
:100E5000454B46A2CDE90104009149A1012003F0D0
:100E6000B9FB50A0FB21404B40A2CDE90104009109
:100E700043A1022003F0AEFB52A0FC213A4B3BA25F
:100E8000CDE9010400913EA1032003F0A3FB54A08F
:100E9000FD21354B35A2CDE90104009138A1042094
:100EA00003F098FB55A0FE212F4B30A2CDE90104A1
:100EB000009133A1052003F08DFB24A04FF4807135
:100EC000294B2AA2CDE90104009154A1002003F08E
:100ED00081FB2DA040F20111234B24A2CDE9010496
:100EE00000914EA1012003F075FB2EA04FF48171FB
:100EF0001D4B1EA2CDE90104009148A1022003F080
:100F000069FB30A040F20311174B18A2CDE9010490
:100F1000009142A1032003F05DFB31A04FF48271E8
:100F2000114B12A2CDE9010400913CA1042003F071
:100F300051FB32A040F205110B4B0CA2CDE901048C
:100F4000009136A1052003F045FB3EBD746869732E
:100F500020617373657274202C207469636B3A5B33
:100F600025645D2000000000317200082E2E2F4302
:100F70006F72652F5372632F6D61696E2E6300006F
:100F80004E4F5F54414700007468697320697320B5
:100F90006572726F72202C207469636B3A5B2564F2
:100FA0005D20000074686973206973207761726E38
:100FB000696E67202C207469636B3A5B25645D2041
:100FC000000000007468697320697320696E666FA1
:100FD000202C207469636B3A5B25645D200000005F
:100FE00074686973206973206465627567202C20BA
:100FF0007469636B3A5B25645D20000074686973F3
:1010000020697320766572626F7365202C20746985
:10101000636B3A5B25645D20000000005445535427
:101020000000000072B600BFFEE770B50446A56D73
:1010300000F02AFB064694F83500022808D08020EC
:10104000606500BF002084F8340000BF012070BD3F
:101050002068006820F01600216808602068406958
:1010600020F0800021684861206C08B9A06C28B18C
:101070002068006820F00800216808602068006887
:1010800020F001002168086010E000F0FDFA801BEC
:1010900005280BD920206065032084F8350000BFA7
:1010A000002084F8340000BF0320D0E720680068E7
:1010B00000F001000028E8D194F85C103F2088403F
:1010C000A860012084F8350000BF002084F83400B7
:1010D00000BF00BFBBE7014691F83500022803D0EE
:1010E0008020486501207047052081F83500086898
:1010F000006820F001000A6810600020F3E700009B
:10110000F8B50446002000908C4800684FF4165152
:10111000B0FBF1F7A56D2E6894F85C1008208840AC
:10112000304098B12068006800F0040070B1206879
:10113000006820F004002168086094F85C10082022
:101140008840A860606D40F00100606594F85C1014
:1011500001208840304068B12068406900F080007C
:1011600040B194F85C1001208840A860606D40F0A8
:101170000200606594F85C1004208840304068B13B
:101180002068006800F0020040B194F85C10042070
:101190008840A860606D40F00400606594F85C10C1
:1011A00010208840304078B32068006800F00800C4
:1011B00050B394F85C1010208840A8602068006844
:1011C00000F4802080B12068006800F4002028B975
:1011D000206CC8B12046216C884715E0A06C98B1FE
:1011E0002046A16C88470FE02068006800F48070FA
:1011F00028B92068006820F0080021680860206C89
:1012000010B12046216C884794F85C10202088405B
:101210003040002865D02068006800F010000028E9
:101220005FD094F85C1020208840A86094F83500C6
:10123000052828D12068006820F016002168086081
:101240002068406920F0800021684861206C08B95E
:10125000A06C28B12068006820F0080021680860B0
:1012600094F85C103F208840A860012084F8350085
:1012700000BF002084F8340000BF206D10B120466C
:10128000216D8847F8BD2068006800F4802080B197
:101290002068006800F4002028B9606C10B1204676
:1012A000616C88471DE0E06BD8B12046E16B884750
:1012B00017E02068006800F4807068B92068006852
:1012C00020F0100021680860012084F8350000BF7C
:1012D000002084F8340000BFE06B10B12046E16BC1
:1012E0008847606D38B3606D00F00100F0B10520F3
:1012F00084F835002068006820F00100216808604B
:1013000000BF0098401C0090B84200D905E020685A
:10131000006800F001000028F3D100BF012084F82C
:10132000350000BF002084F8340000BFE06C10B12D
:101330002046E16C884700BFA4E7000018000020A9
:101340002DE9F0410446002500F09EF9074614B946
:101350000120BDE8F081606A00B100BF022084F87E
:10136000350000BF002084F8340000BF206800680A
:1013700020F00100216808600AE000F085F9C01B38
:10138000052805D920206065032084F83500E0E7B2
:101390002068006800F001000028EED12068056890
:1013A00021480540D4E901010843E1680843216967
:1013B000084361690843A1690843E1690843216A58
:1013C00008430543606A042803D1D4E90B010843AC
:1013D0000543206805602068456925F00705606AB7
:1013E0000543606A04280DD1A06A0543E06A48B14C
:1013F0002046FFF7AFFC28B140206065012084F84B
:101400003500A6E7206845612046FFF789FC0646BF
:1014100094F85C103F208840B06000206065012097
:1014200084F83500002094E73F8010F02DE9F04764
:1014300004460D4616461F464FF00008D4F8589053
:1014400000BF94F83400012802D10220BDE8F087E3
:10145000012084F8340000BF94F83500012825D11C
:10146000022084F83500002060653B46324629465C
:101470002046FFF7C4FC94F85C103F208840C9F870
:1014800008002068006840F0160021680860206CA1
:1014900028B12068006840F00800216808602068D2
:1014A000006840F001002168086006E000BF0020ED
:1014B00084F8340000BF4FF002084046C6E7000041
:1014C000F8B502460B460025002400200021C7E0A5
:1014D000012606FA01F51E6806EA0504AC4274D13D
:1014E0001E7906F00306012E04D01E7906F00306CD
:1014F000022E13D190684F000326BE40B0434F0028
:10150000DE68BE4030439060506801268E40B04394
:101510001E79C6F300168E40304350601E7906F0E7
:101520000306032E09D0D0684F000326BE40B04307
:101530004F009E68BE403043D0601E7906F003061F
:10154000022E13D1CF0802F1200656F827004E07CD
:10155000F70E0F26BE40B0434F07FF0E1E69BE4078
:101560003043CF0802F1200646F8270010684F00EC
:101570000326BE40B0431E7906F003064F00BE406E
:10158000304310605E6806F44036002E67D000BF1E
:1015900000260096344E366846F48046324F3E6050
:1015A0003E46366806F48046009600BF00BF2F4EC8
:1015B0008F0856F827008E07370F0F26BE40B0431E
:1015C0002B4EB24202D1002615E048E0294EB2422D
:1015D00001D101260FE0284EB24201D102260AE0D5
:1015E000264EB24201D1032605E0254EB24201D17A
:1015F000042600E007268F073F0FBE4030431B4EF6
:101600008F0846F827001F4E3068A0435E6806F436
:10161000801606B120431B4E3060361D3068A04353
:101620005E6806F4001606B12043164E361D306083
:10163000144E361F3068A0435E6806F4003606B1CB
:101640002043104E361F3060361F3068A0435E685E
:1016500006F4803606B120430A4E083E3060491C2D
:101660001029FFF435AFF8BD443802400838014076
:10167000000002400004024000080240000C02404A
:1016800000100240083C014001480068704700001B
:101690000C00002003480068034909780844014908
:1016A000086070470C0000201400002010B50D48A1
:1016B000006840F400700B4908600846006840F478
:1016C000806008600846006840F48070086003206D
:1016D00000F0D2F80F2000F007F800F055F80020D5
:1016E00010BD0000003C0240F0B587B00446002663
:1016F000002700BF002000901E48006840F0010055
:101700001C4908600846006800F00100009000BF16
:1017100000BF01A902A800F085F900F0BBF9064658
:101720001548B6FBF0F0471E14481549086040F212
:10173000E7311348C1604760002101618160816128
:1017400000F060FC054695B90D4800F08FFC054699
:101750006DB9192000F042F8102C07D20022214662
:10176000192000F04BF80748046000E001252846E6
:1017700007B0F0BD4438024040420F000000014075
:10178000F80100201000002008B500BF00200090E4
:101790001148006840F480400F490860084600681E
:1017A00000F48040009000BF00BF00BF0020009008
:1017B000081F006840F08050091F08600846006854
:1017C00000F08050009000BF00BF00220F21901E4B
:1017D00000F014F808BD00004438024001460846F5
:1017E000002809DB00F01F0301229A4043099B00F7
:1017F00003F1E023C3F8002100BF70472DE9F05F3B
:1018000080460D461646002702F0B2F907463946D3
:101810002A46334601F00700C0F1070ABAF1040F67
:1018200002D94FF0040A01E0C0F1070AD14600F1E5
:10183000040ABAF1070F02D24FF0000A01E0A0F14A
:10184000030AD4464FF0010A0AFA09FAAAF1010A7A
:101850000AEA020A0AFA0CFA4FF0010B0BFA0CFB27
:10186000ABF1010B0BEA030B4AEA0B04214640469D
:1018700002F086F9BDE8F09F00BF00F00702064BBA
:1018800019684FF6FF031940044B0B4343EA02214A
:10189000014B196000BF70470CED00E00000FA0535
:1018A00070B504460D460CB9012070BD584800685B
:1018B00000F00700A84209D255490D70084600689B
:1018C00000F00700A84201D00120EEE7207800F0E8
:1018D000020002281DD1207800F00400042805D160
:1018E0004C48006840F4E0504A490860207800F015
:1018F0000800082805D14748006840F46040454981
:1019000008604448006820F0F000A168084341499D
:101910000860207800F00100A8B36068012807D1B2
:101920003C4808380068C0F34040B8B90120BCE723
:101930006068022802D06068032807D1354808385B
:101940000068C0F3406048B90120AEE7314808386C
:101950000068C0F3400008B90120A6E72D480068E0
:1019600020F00300616808432A490860FFF78CFEF5
:10197000064609E0FFF788FE801B41F28831884265
:1019800002D9032091E707E02248006800F00C002C
:101990006168B0EB810FEDD11D48006800F00700D1
:1019A000A84209D91A490D700846006800F00700DE
:1019B000A84201D0012078E7207800F00400042834
:1019C00007D11448006820F4E050E1680843114949
:1019D0000860207800F00800082808D10D48006849
:1019E00020F46040216940EAC1000A49086000F023
:1019F00061F808490968C1F30311074A515CC840FE
:101A00000649086006480068FFF76EFE00204CE7B4
:101A1000003C024008380240DE7200081800002036
:101A2000100000200F2202600D4A126802F003022B
:101A300042600B4A126802F0F0028260084A1268A3
:101A400002F4E052C260064A126802F46042D20810
:101A50000261044A126802F007020A60704700003F
:101A600008380240003C024001480068704700000E
:101A70001800002000B5FFF7F7FF04490968C1F31B
:101A80008221034A515CC84000BD00000838024072
:101A9000EE72000800B5FFF7E7FF04490968C1F3DB
:101AA0004231034A515CC84000BD00000838024082
:101AB000EE7200082DE9F047002400250026A1461B
:101AC0002548006800F00C0020B1042805D0082843
:101AD0003AD105E0DFF8849039E0DFF8849036E011
:101AE0001D48001F006800F03F041B48001F0068ED
:101AF00000F4800078B11A481749091F0968C1F33A
:101B00008811A0FB01700146224600233846FEF7EB
:101B1000C1FB05460EE011480F49091F0968C1F3D2
:101B20008811A0FB01700146224600233846FEF7CB
:101B3000B1FB05460848001F0068C0F30140401C87
:101B40004600B5FBF6F902E0DFF8109000BF00BFD9
:101B50004846BDE8F0870000083802400024F40041
:101B600040787D01F8B504460CB90120F8BD207815
:101B700000F00100002874D0F948006800F00C0063
:101B800004280DD0F648006800F00C00082813D196
:101B9000F348001F006800F48000B0F5800F0BD1FF
:101BA000EF4808380068C0F34040002859D060680A
:101BB000002856D10120D9E700BF6068B0F5803F0A
:101BC00008D1E7480838006840F48030E449083913
:101BD00008601EE06068B0F5A02F0DD1E04808381D
:101BE000006840F48020DE49083908600846006833
:101BF00040F4803008600CE0D9480838006820F4D0
:101C00008030D749083908600846006820F48020F1
:101C1000086000BF606890B1FFF736FD054606E03A
:101C2000FFF732FD401B642801D903209EE7CC4812
:101C300008380068C0F340400028F1D011E0FFF7F9
:101C400023FD054606E0FFF71FFD401B642801D970
:101C500003208BE7C24808380068C0F340400028E2
:101C6000F1D1207800F0020002285FD1BC48006862
:101C700000F00C0058B1BA48006800F00C000828C9
:101C80001CD1B748001F006800F48000B0B9B44808
:101C900008380068C0F3400020B1E068012801D096
:101CA000012063E7AE480838006820F0F800216999
:101CB00040EAC100AA490839086037E0E06800B38B
:101CC0000120A8490860FFF7DFFC054606E0FFF7A2
:101CD000DBFC401B022801D9032047E7A048083855
:101CE0000068C0F340000028F1D09D480838006823
:101CF00020F0F800216940EAC100994908390860DC
:101D000014E0002097490860FFF7BEFC054606E096
:101D1000FFF7BAFC401B022801D9032026E79048B0
:101D200008380068C0F340000028F1D1207800F0A6
:101D3000080008282CD16069A8B101208A490860F0
:101D4000FFF7A2FC054606E0FFF79EFC401B0228B9
:101D500001D903200AE782486C300068C0F34000D4
:101D60000028F1D014E000207F490860FFF78CFCC8
:101D7000054606E0FFF788FC401B022801D9032036
:101D8000F4E677486C300068C0F340000028F1D1D9
:101D9000207800F00400042870D100277048383003
:101DA000006800F0805090B900BF002000906C489F
:101DB0003830006840F08050694938310860084682
:101DC000006800F08050009000BF00BF0127674806
:101DD000006800F48070B0B96448006840F4807016
:101DE00062490860FFF750FC054606E0FFF74CFC2F
:101DF000401B022801D90320B8E65C48006800F4C3
:101E000080700028F2D000BFA068012808D1544893
:101E10006830006840F001005149683108601DE0F9
:101E2000A06805280DD14E486830006840F00400D5
:101E30004B49683108600846006840F001000860BE
:101E40000CE047486830006820F0010044496831E0
:101E500008600846006820F00400086000BFA06821
:101E6000A8B1FFF711FC054609E0FFF70DFC401B88
:101E700041F28831884202D9032077E626E03848CB
:101E800068300068C0F340000028EED013E0FFF790
:101E9000FBFB054608E0FFF7F7FB401B41F28831EA
:101EA000884201D9032061E62D4868300068C0F3FC
:101EB00040000028EFD1012F07D1294838300068B1
:101EC00020F0805026493831086000BFA069002802
:101ED00045D02348006800F00C0008285DD0A069B8
:101EE000022845D100201F490866FFF7CDFB0546B3
:101EF00006E0FFF7C9FB401B022801D9032035E6A5
:101F0000174808380068C0F340600028F1D1D4E9D0
:101F100007010843616A40EA81110122A06AC2EB0D
:101F2000500041EA00412C20005D41EA00600C496C
:101F3000091F086001200B490866FFF7A5FB05464D
:101F400006E0FFF7A1FB401B022801D903200DE6A4
:101F5000034808380068C0F340600028F1D049E029
:101F60000838024000004742800E4742007000409F
:101F7000002021490866FFF787FB054606E0FFF7CA
:101F800083FB401B022801D90320EFE51B480068B2
:101F9000C0F340600028F2D12CE0A069012800D1F4
:101FA000E4E51648001D0668A069012820D006F463
:101FB0008001E06981421BD106F03F01206A814225
:101FC00016D147F6C0703040616AB0EB811F0FD167
:101FD00006F440310122A06AC2EB5000B1EB004F81
:101FE00006D106F070612C20005DB1EB006F01D0CE
:101FF0000120BBE50020B9E500004742003802405F
:102000007047704710B504460CB9012010BD94F814
:102010003D0028B9002084F83C00204600F025F857
:10202000022084F83D00211D206800F039FE0120C7
:1020300084F8460000BF84F83E0001213F2001558E
:10204000402001554120015500BF00BF012084F808
:10205000420043200155442001554520015500BF51
:10206000012084F83D000020D0E77047014691F838
:102070003D00012801D001207047022081F83D0079
:102080000868C06840F001000B68D860164B08680B
:10209000984213D00868B0F1804F0FD0134B0868F6
:1020A00098420BD0124B0868984207D0114B086831
:1020B000984203D0104B086898420CD10868806899
:1020C00000F00702062A0CD00868006840F0010002
:1020D0000B68186005E00868006840F001000B68B4
:1020E00018600020C8E70000000001400004004024
:1020F00000080040000C004000400140704710B54F
:10210000044620680069C0F34000D8B12068C06868
:10211000C0F34000B0B16FF00200216808610120F7
:1021200020772068806900F0030018B12046FFF78F
:10213000E5FF05E0204600F0ADF8204600F0ABF8E2
:102140000020207720680069C0F38000D8B12068A3
:10215000C068C0F38000B0B16FF00400216808616E
:10216000022020772068806900F4407018B1204672
:10217000FFF7C4FF05E0204600F08CF8204600F091
:102180008AF80020207720680069C0F3C000D8B129
:102190002068C068C0F3C000B0B16FF008002168CB
:1021A0000861042020772068C06900F0030018B19E
:1021B0002046FFF7A3FF05E0204600F06BF820461D
:1021C00000F069F80020207720680069C0F3001053
:1021D000D8B12068C068C0F30010B0B16FF0100033
:1021E00021680861082020772068C06900F44070E9
:1021F00018B12046FFF782FF05E0204600F04AF8BC
:10220000204600F048F8002020772068006900F0A0
:10221000010058B12068C06800F0010030B16FF0D3
:10222000010021680861204600F036F82068006946
:10223000C0F3C01058B12068C068C0F3C01030B1FE
:102240006FF08000216808612046FFF7D9FE206802
:102250000069C0F3801058B12068C068C0F38010D6
:1022600030B16FF0400021680861204600F020F88E
:1022700020680069C0F3401058B12068C068C0F3FE
:10228000401030B16FF02000216808612046FFF750
:10229000B8FE10BD7047704710B50446034920686A
:1022A000884201D1FFF7F6F910BD0000000001409F
:1022B0007047F8B504460E46174694F83E002028AD
:1022C00036D106B10FB90120F8BD00BF94F83C002B
:1022D000012801D10220F7E7012084F83C0000BF6B
:1022E00020633A463146204600F0B2FF0546EDB97C
:1022F000206B012819D100BF0020009020680068E1
:10230000009020684068009000BF00BF00BF00BF81
:1023100021680C3151E8001F41F0100021680C3198
:1023200041E80002002AF3D100E001252846CBE76E
:102330000220C9E77CB504460D4606A040F24D11C7
:102340000C4B0DA2CDE9001013A1042002F042F9BC
:102350007CBD00002048414C5F5541525445785F98
:1023600052784576656E7443616C6C6261636B2074
:10237000000000002F7400082E2E5C4253505C5564
:10238000534152545C4253505F756172745F647282
:10239000697665722E6300004E4F5F54414700001E
:1023A000704700002DE9F84F044620680568206852
:1023B000C668206847694FF00009CA4605F00F0952
:1023C000B9F1000F0AD105F0200038B106F0200065
:1023D00020B1204600F0A9FDBDE8F88FB9F1000F4B
:1023E0007CD007F0010018B906F49070002875D071
:1023F00005F0010030B106F4807018B1206C40F097
:102400000100206405F0040030B107F0010018B1AC
:10241000206C40F00200206405F0020030B107F0AB
:10242000010018B1206C40F00400206405F00800A1
:1024300048B106F0200010B907F0010018B1206C77
:1024400040F008002064206C002846D005F02000F1
:1024500028B106F0200010B1204600F066FD20688B
:102460004069C0F3801A206C00F0080010B9BAF17E
:10247000000F2DD0204600F0FFFC2068406900F0DE
:102480004000402820D100BF00BF2168143151E82E
:10249000001F21F040002168143141E80002002AA9
:1024A000F3D100BFA06B50B17548A16B0865A06B5C
:1024B000FEF711FE88B1A06B016D88470DE0204644
:1024C000FFF76EFF09E009E02046FFF769FF04E02F
:1024D0002046FFF765FF002020647DE7206B012880
:1024E00076D105F01000002872D006F01000002808
:1024F000FAD000BF0020009020680068009020689B
:102500004068009000BF00BF2068406900F04000B4
:1025100040285ED1A06B006840681FFA80F8B8F1CF
:10252000000F54D0A08D404551DDA4F82E80A06B43
:10253000C069B0F5807F43D000BF00BF21680C3177
:1025400051E8001F21F4807021680C3141E800023D
:10255000002AF3D100BF00BF00BF2168143151E849
:10256000001F21F001002168143141E80002002A17
:10257000F3D100BF00BF00BF2168143151E8001F34
:1025800021F040002168143141E80002002AF3D113
:1025900000BF202084F83E000020206300BF00BF61
:1025A00021680C3151E8001F21F0100021680C3126
:1025B00041E80002002AF3D100BFA06BFEF735FD11
:1025C000A08DE28D801A81B22046FFF7B3FE03E7AB
:1025D00040E0A08DE18D401A1FFA80F8E08DC0B375
:1025E000B8F1000F35D000BF00BF21680C3151E8B1
:1025F000001F21F4907021680C3141E80002002A8C
:10260000F3D100BF00BF00BF2168143151E8001FA3
:1026100021F001002168143141E80002002AF3D1C1
:1026200000BF202084F83E000020206300BF00BFD0
:1026300021680C3151E8001F21F0100021680C3195
:1026400041E80002002AF3D100BF41462046FFF7CF
:1026500071FEC1E605F0800030B106F0800018B1CF
:10266000204600F05DFEB7E605F0400030B106F010
:10267000400018B1204600F035FCADE600BFABE6E7
:10268000452D000810B504460CB9012010BDA06905
:1026900000B100E000BF94F83D0028B9002084F8A4
:1026A0003C00204600F028F8242084F83D002068F3
:1026B000C06820F400502168C860204600F0B2FCD9
:1026C0002068006920F49040216808612068406912
:1026D00020F02A00216848612068C06840F400505A
:1026E0002168C86000202064202084F83D0084F820
:1026F0003E000020CAE7000010B586B00446142151
:1027000001A8FDF711FE3D492068884274D100BF41
:10271000002000903A48006840F0100038490860F6
:102720000846006800F01000009000BF00BF00BF26
:102730000020009032481438006840F00100304911
:10274000143908600846006800F00100009000BFDE
:1027500000BF4FF4C060019002200290002003905F
:10276000032004900720059001A92648FEF7A8FE43
:102770002548264908604FF0006048600021234842
:102780008160C1604FF4806101610021416181611C
:10279000C16101624162FEF7D3FD08B1FEF742FC60
:1027A00000BF1A48A063846300BF174878301849F7
:1027B00008604FF0006048604021154881600021AA
:1027C000C1604FF480610161002141618161C1619B
:1027D00001624162FEF7B4FD08B1FEF723FC00BFC1
:1027E0000B486063846300BF002205212520FFF7AA
:1027F00005F82520FEF7F2FF06B010BD00100140DD
:102800004438024000000240406402403801002089
:1028100098010020FEB507462148006858B921A05C
:1028200040F219112D4B2EA2CDE9001034A1012048
:1028300001F0D0FEFEBD002533480178184800683D
:10284000FEF710F9054655B130A040F22111234B97
:1028500023A2CDE900102AA1012001F0BBFE3948D6
:1028600002900223002202A93748006804F080F891
:102870000446012C0AD035A04FF49571174B18A2CD
:10288000CDE900101EA1012001F0A4FE01260A22BC
:102890001D493D48FFF70DFD064600BFCAE7000091
:1028A000E4000020204552524F523A20675F63698E
:1028B0007263756C61725F6275665F6972715F7475
:1028C0006872656164206973204E554C4C20706FAE
:1028D000696E7465722021200A00000017740008D8
:1028E0002E2E5C4253505C55534152545C4253501F
:1028F0005F756172745F6472697665722E63000041
:102900004E4F5F5441470000E000002020455252E6
:102910004F523A20675F63697263756C61725F62E0
:1029200075665F6972715F74687265616420496E73
:10293000736572742064617461204641494C2020A3
:102940000A000000A4A3A2A1E800002020455252E2
:102950004F523A2078517565756553656E64546FB2
:102960004261636B46726F6D495352206973205305
:10297000656E6420746F2066726F6E7420464149E4
:102980004C2021200A000000F4000020704770470E
:1029900000BFFEE708B500BF002000900E480068A9
:1029A00040F480000C4908600846006800F480008C
:1029B000009000BF00BF002205213A20FEF71EFF55
:1029C0003A20FEF70BFF002205214620FEF716FFF6
:1029D0004620FEF703FF08BD3038024010B50B4A11
:1029E00000210B4802F05EFC0A4908600A4A0021F7
:1029F0000A4802F057FC0A4908600A4A00210A48BE
:102A000002F050FC0949086010BD00004072000847
:102A1000A92B000800000020647200084D36000851
:102A20000400002088720008E93300080800002034
:102A300008B500BF002000901548006840F0040071
:102A4000134908600846006800F00400009000BFC9
:102A500000BF00BF002000900846006840F08000E2
:102A600008600846006800F08000009000BF00BFCA
:102A700000BF002000900846006840F00100086098
:102A80000846006800F00100009000BF00BF08BDCC
:102A90003038024010B50B480B4908604FF4E13064
:102AA0004860002108488160C16001610C214161DA
:102AB00000218161C161FFF7E5FD08B1FEF7B2FABF
:102AC00010BD000000100140F400002000BFFEE730
:102AD00000BFFEE710B500F067FF10BD2DE9F04123
:102AE00004460D4616460E4F00BF387808B900F070
:102AF0005BFF00BFEFF311800746202080F31188B1
:102B000000BF00BF32462946204600F00BF8804641
:102B1000F8B280F3118800BF00BF4046BDE8F081E5
:102B2000144B00202DE9F047074688461646C2465A
:102B300007EB47011B4800EBC109D9F8140020B18D
:102B4000012811D0022826D11EE0484600F066FF79
:102B50000546B54201D2002405E0344632465146CE
:102B6000484600F0A4FF18E0484600F057FF05462D
:102B7000B54201D2284600E030460446224651467E
:102B8000484600F094FF08E032465146484600F0BF
:102B900053FF044601E0002400BF00BF2046BDE80B
:102BA000F08700002C4B002000BF012002F024FB26
:102BB000FBE710B54FF0E020006904F0E1F80128D0
:102BC00001D003F0FDFC10BD00B593B0302107A883
:102BD000FDF7AAFB142102A8FDF7A6FB00BF002009
:102BE00001902448006840F080502249086008465F
:102BF000006800F08050019000BF00BF00BF0020BF
:102C000001901D48006840F440401B490860084698
:102C1000006800F44040019000BF00BF0220079010
:102C200001200A9010200B9002200D9000210E919F
:102C300008210F9164211091022111910421129118
:102C400007A8FEF78FFF08B1FEF7ECF90F200290FE
:102C500002200390002004904FF480500590002043
:102C60000690032102A8FEF71BFE08B1FEF7DAF971
:102C700013B000BD403802400070004003480068B7
:102C800040F47000014908607047000088ED00E0E2
:102C900010B50248FFF733FA10BD0000F80100201C
:102CA00010B50268204B98420BD0B0F1804F08D08D
:102CB0001E4B984205D01E4B984202D01D4B9842A5
:102CC00003D122F070024B681A43174B984214D07C
:102CD000B0F1804F11D0154B98420ED0144B984252
:102CE0000BD0144B984208D0134B984205D0134B8D
:102CF000984202D0124B984203D122F44072CB6822
:102D00001A4322F080034C6943EA040202608B6894
:102D1000C3620B688362044B984201D10B69036361
:102D20000123436110BD0000000001400004004089
:102D300000080040000C00400040014000440140F9
:102D40000048014070B50546AC6B0020E085E0848A
:102D50002046FFF725FB70BD70B506460025B46B15
:102D600020684069C0F3C01594F83D00212805D1C2
:102D700025B10020E084204600F0C4F820684069B6
:102D8000C0F3801594F83E00222805D125B100201B
:102D9000E085204600F070F8206C40F010002064C0
:102DA0002046FFF7FDFA70BD70B50546AC6B28688C
:102DB000006800F48070002842D1E08500BF00BFA9
:102DC00021680C3151E8001F21F4807021680C311A
:102DD00041E80002002AF3D100BF00BF00BF216814
:102DE000143151E8001F21F001002168143141E83D
:102DF0000002002AF3D100BF00BF00BF21681431D8
:102E000051E8001F21F040002168143141E8000220
:102E1000002AF3D100BF202084F83E00206B012857
:102E20000ED100BF00BF21680C3151E8001F21F016
:102E3000100021680C3141E80002002AF3D100BFE4
:102E4000206B012804D1A18D2046FFF773FA02E020
:102E50002046FFF7DFFC70BD70B50546AC6B206BFC
:102E6000012805D1A08D41082046FFF763FA02E052
:102E70002046FFF78BFD70BD00BF00BF02680C321B
:102E800052E8002F22F4907102680C3242E80013DD
:102E9000002BF3D100BF00BF00BF0268143252E81C
:102EA000002F22F001010268143242E80013002BC7
:102EB000F3D100BF016B01290ED100BF00BF026832
:102EC0000C3252E8002F22F0100102680C3242E866
:102ED0000013002BF3D100BF202180F83E10002109
:102EE0000163704710B504462068C06820F04000B8
:102EF0002168C860202084F83D002046FFF747FD88
:102F0000002010BD00BF00BF02680C3252E8002F45
:102F100022F0C00102680C3242E80013002BF3D10A
:102F200000BF202180F83D107047F8B5044694F8A2
:102F30003E00222873D1A068B0F5805F0CD12069D3
:102F400050B90025A66A20684068C0F308003080A8
:102F5000A06A801CA06215E0A56A0026A068B0F5F2
:102F6000805F03D0A06828B9206918B9206840683C
:102F7000287004E02068406800F07F002870A06A94
:102F8000401CA062E08D401E80B2E085002844D144
:102F90002068C06820F020002168C8602068C068F0
:102FA00020F480702168C8602068406920F001002A
:102FB00021684861202084F83E00206B012826D13A
:102FC0000020206300BF00BF21680C3151E8001FC2
:102FD00021F0100021680C3141E80002002AF3D1F1
:102FE00000BF2068006800F0100010280AD100BF60
:102FF00000200090206800680090206840680090E1
:1030000000BF00BFA18D2046FFF794F902E02046E3
:10301000FFF700FC0020F8BD01E00020FBE70220E4
:10302000F9E700002DE9F84F04462068006920F414
:103030004050E1680843216808612169A06808439D
:1030400061690843E169084300902068C06849F25B
:103050000C618843009908432168C8602068406972
:1030600020F44070A16908432168486176492068CE
:10307000884203D075492068884203D1FEF70AFDD3
:10308000814602E0FEF7F6FC8146E069B0F5004FAC
:103090006CD102206168A0FB015003461920A9FBF6
:1030A000007001462A463846FDF7F4F86421B0FB6B
:1030B000F1F04FEA001A02206168A0FB01510B46B3
:1030C0001920A9FB00712A463846FDF7E3F883462C
:1030D00002206168A0FB015003461920A9FB007182
:1030E0002A463846FDF7D6F86421B0FBF1F000EB34
:1030F000C00101EB0010ABEB8000322101EBC000FE
:103100006421B0FBF1F000F0F8000AEB400A022065
:103110006168A0FB015003461920A9FB007001461D
:103120002A463846FDF7B6F8834602206168A0FBC0
:10313000015003461920A9FB00712A463846FDF7C5
:10314000A9F86421B0FBF1F000EBC00101EB001025
:10315000ABEB8000322101EBC0006421B0FBF1F049
:1031600000F007005044216888606AE0042061682C
:10317000A0FB015003461920A9FB007001462A4616
:103180003846FDF787F8824604206168A0FB0150AD
:1031900003461920A9FB007001462A463846FDF770
:1031A00079F86421B0FBF1F000EBC00101EB0010F5
:1031B000AAEB8000322101EB00106421B0FBF1F09A
:1031C00000F0F00A04206168A0FB0170034619209A
:1031D000A9FB00513A462846FDF75CF86421B0FB94
:1031E000F1F00AEB001A04206168A0FB01510B46C4
:1031F0001920A9FB00712A463846FDF74BF8834693
:1032000004206168A0FB015003461920A9FB00704F
:1032100001462A463846FDF73DF86421B0FBF1F03F
:1032200000EBC00101EB0010ABEB8000322101EBA1
:1032300000106421B0FBF1F000F00F005044216851
:103240008860BDE8F88F00000010014000140140C4
:1032500077B581B0044615460298A062A585002086
:103260002064222084F83E002A48A16BC8632A48C3
:10327000A16B08642948A16BC8640020A16B086594
:1032800002AE32682368191D2B46A06BFEF7CEF8FC
:1032900000BF00200090206800680090206840680F
:1032A000009000BF00BF00BF002084F83C0000BFBA
:1032B000206970B100BF00BF21680C3151E8001FC8
:1032C00041F4807021680C3141E80002002AF3D1FA
:1032D00000BF00BF00BF2168143151E8001F41F05A
:1032E00001002168143141E80002002AF3D100BF37
:1032F00000BF00BF2168143151E8001F41F04000B9
:103300002168143141E80002002AF3D100BF0020F7
:1033100004B070BDA92D0008592E0008592D0008D1
:10332000014691F83D00212828D18868B0F5805FDA
:103330000BD1086948B90A6A1088C0F308000B6805
:103340005860086A801C086205E00B6A581C086215
:1033500018780B685860C88C401E80B2C88458B971
:103360000868C06820F080000B68D8600868C068F2
:1033700040F040000B68D860002070470220FCE756
:103380001CB507A0BB210D4B0DA2CDE9001013A168
:10339000032001F01FF91348FFF704F81CBD0000DB
:1033A0002048414C205553415254315F49525148B5
:1033B000616E646C6572200D0A000000AC7200083A
:1033C0002E2E2F436F72652F5372632F73746D33DC
:1033D00032663478785F69742E6300004E4F5F5414
:1033E00041470000F40000201FB500200390002298
:1033F0000421012003F0FEF83B49086008460068FC
:1034000048B93AA08121464B46A2CDE900104DA112
:10341000012001F0DFF8FDF75FFA4C49086008462B
:10342000006848B94AA089213D4B3EA2CDE9001071
:1034300044A1012001F0CEF84FA08B21384B39A2D6
:10344000CDE900103FA1032001F0C4F800240A22B6
:103450003E4801685448FEF72CFF044654B953A077
:1034600095212F4B2FA2CDE9001036A1032001F0AA
:10347000B1F809E054A09821294B2AA2CDE9001007
:1034800030A1032001F0A6F800BF4FF6FF7203A998
:103490001548006803F0EAFA51A1A1220398204BD5
:1034A000CDE9002102901FA226A1032001F092F88D
:1034B000564903988842E8D15548029002230022D9
:1034C00002A95448006803F07FF90546012D09D090
:1034D00051A0AC21124B13A2CDE9001019A101207B
:1034E00001F078F8D1E70000E800002020455252B2
:1034F0004F523A20675F71756575655F75617274CB
:103500005F6972715F74687265616420637265617E
:103510007465204641496C202021200A20000000CB
:10352000087400082E2E5C4253505C55534152548F
:103530005C4253505F756172745F64726976657244
:103540002E6300004E4F5F5441470000E40000200E
:10355000204552524F523A20675F63697263756C1F
:1035600061725F6275665F6972715F7468726561CE
:10357000642021200A20000020675F636972637560
:103580006C61725F6275665F6972715F74687265A3
:10359000616420637265617465207375636365732C
:1035A000732021200A200000F40000202048414C14
:1035B000205561727420496E697420537563636588
:1035C0007373200D0A0000002048414C20556172A1
:1035D0007420496E6974204661696C200D0A0000F0
:1035E0002066726F6E74207265636569766520640B
:1035F0006174612066726F6D20697271205F646111
:1036000074613A5B25785D200A200000A4A3A2A182
:10361000A1A2A3A4D0000020204552524F523A202C
:1036200078517565756553656E64546F4261636B5F
:103630002069732053656E6420746F20656E64206A
:103640004641494C2021200A0000000086B000209D
:1036500005907CA04421834B83A2CDE900108BA16F
:10366000032000F0B7FF00208A49086000220421EF
:10367000012002F0BFFF874908600846006850B982
:1036800085A04B21774B78A2CDE900107FA10320C4
:1036900000F0A0FF09E089A04E21724B72A2CDE993
:1036A00000107AA1032000F095FFFDF709F98D497C
:1036B00008600846006848B98BA05521694B6AA28A
:1036C000CDE9001071A1012000F084FF00BF4FF68A
:1036D000FF7205A96F48006803F0C8F98FA15C224A
:1036E0000598604BCDE9002102905FA267A10320FD
:1036F00000F070FF7B48006848B97BA06121594BFE
:1037000059A2CDE9001061A1012000F063FF8EE015
:103710000020049004A973480068FDF731F984483B
:103720000068012802D002287ED111E09DF8100027
:10373000FE280CD17FA076214A4B4BA2CDE9001088
:1037400052A1032000F046FF0220794908606CE096
:103750009DF81000FF284DD17BA07E21414B42A255
:10376000CDE9001049A1032000F034FF0120704989
:1037700008607A480078401E79490E5C00240020D9
:1037800003E07749095C0C44401C74490978491EE0
:103790008142F6DC73A08721324B33A2CDE90104CC
:1037A00000913AA1032000F015FFA64214D1002594
:1037B0000DE06B48405D71A18F222A4BCDE90021BD
:1037C000029029A231A1032000F004FF6D1C634880
:1037D0000078401EA842ECDC002003E00021604A93
:1037E0001154401C5D4909788842F7DB00205B4991
:1037F000087017E09DF810005949584A127888540B
:1038000056480078401C55490870084600785FA16A
:103810009D22144BCDE90021029013A21BA103208D
:1038200000F0D8FE01E0FFE700BF00BF00BF2D4859
:103830000068FDF78BF900287FF46AAF012001F0E2
:10384000DBFC44E7205561727452656346756E6314
:103850004120496E69742053756363657373202139
:103860000D0A0000FB7300082E2E5C4150505C5581
:103870004152545F50617273655C756172745F7020
:10388000617273655F7461736B2E63004E4F5F549A
:1038900041470000D000002020675F556172745FCF
:1038A0006972715F7265635F41204372656174651F
:1038B000204661696C20210D0A00000020675F55D9
:1038C0006172745F6972715F7265635F41204372F8
:1038D00065617465205375636365737320210D0AF8
:1038E00000000000D4000020204552524F523A20E0
:1038F000675F63697263756C61725F6275665F664C
:10390000726F6D5F647276206973204E554C4C2047
:10391000706F696E746572200A0000002072656322
:103920005F64617461203D205B25785D200D0A0095
:10393000DC00002044617461207061636B65742059
:10394000737461727420000044617461207061635B
:103950006B657420656E642000000000D8000020B4
:10396000C4540020646174615F73756D5F74656D2C
:1039700070203A5B25645D200000000020446174E3
:1039800061203A205B25645D200000006461746161
:103990005F636F756E746572203A5B25645D200A03
:1039A0000000000000BFFEE710B5134C03202061AB
:1039B000606112A0A0611449E1614FF4806121624D
:1039C0000021A16261620221E1620CA020660F4920
:1039D00061661021A16600212167E166022161670D
:1039E0000BA1E01DFCF7C4FC0AA12046FCF7C0FCBB
:1039F0002020A07110BD0000144B00205465726D92
:103A0000696E616C00000000BC4B0020BC4F0020C0
:103A100052545400534547474552000010B50146E3
:103A20000A69CB689A4204D88C68641EE41AA0180C
:103A300001E0D41A601E10BD2DE9F05F04468946EE
:103A400017464FF0000AE56800BFD4F81080A8457B
:103A500003D9A8EB0500461E04E0A5EB0800401CB6
:103A6000A1680E1AA068401BB04201D9304601E09F
:103A7000A068401B0646BE4201D2304600E03846F0
:103A80000646606800EB050B324649465846FCF78F
:103A900032FCB244B144BF1B3544A068A84200D1F7
:103AA0000025E560002FD0D15046BDE8F09F2DE9FC
:103AB000F047044689461546E668A068871BAF4272
:103AC0000AD9606800EB060A2A4649465046FCF7C8
:103AD00012FC7019E06014E0B846606800EB060A5A
:103AE000424649465046FCF706FCA5EB0708D4F8C9
:103AF00004A009EB070142465046FCF7FCFBC4F862
:103B00000C80BDE8F08700000FB47CB50C0009AD57
:103B100001D0611E00E00021CDE90001064B6A469C
:103B20002946089800F014F9002C02D0009A0021D0
:103B300011707CBC5DF814FB574400087CB50C0088
:103B40001D461646014601D0601E00E00020CDE96A
:103B50000010064B6A462946304600F0F9F8002C62
:103B600002D0009A002111707CBD0000574400086B
:103B700002480068C0F30220704700000CED00E02E
:103B800010B5002804DB0A07130E054A135406E09B
:103B90000A07140E034A00F00F031B1FD45410BD74
:103BA00000E400E018ED00E0EFF30580704702E06C
:103BB00008C8121F08C1002AFAD1704770470020B8
:103BC00001E001C1121F002AFBD170472DE9FF5F00
:103BD00082B00021DDE90430020DDDF840B003437E
:103BE00018D044F61050A2F2FF3242431514119837
:103BF00001281FD0A5EB0B00401C5FEA000A4FF024
:103C000000064E4FDFF83891B046504615D5CAF140
:103C1000000413E0119801244AA3012801D16FEA9E
:103C20000B010298119AC0E90031C0E9024206B0C6
:103C3000BDE8F09FCBF10000DFE704460021404AD9
:103C4000491842EB0450CDE9001012E0E00707D01C
:103C500032463B4640464946FCF77EFC8046894654
:103C600032463B4610461946FCF776FC06460F46A0
:103C70006410002CEAD1DDE90401DDE90023BAF18A
:103C8000000F06DAFCF768FC42464B46FCF764FC82
:103C900005E0FCF7D3FC42464B46FCF7CFFC04465C
:103CA0000E460022284BFCF751FD03D84FF0FF30A1
:103CB000014607E00022254B20463146FCF7A5FBD4
:103CC000FCF72BFD102409E0002C0ADB0A2200235C
:103CD000FCF7E0FA039B30321A55641E50EA0102E9
:103CE000F2D1641C039AC4F111031444119A012AFD
:103CF00003D0012208430DD10AE0084304D000207C
:103D00004FF0110B119072E7A3EB0B056D1E0DE048
:103D10005B4504DD4FF0000205F1010504E003DA24
:103D20004FF00002A5F10105002AECD0029811998C
:103D3000C0E90231C0E9004579E700000000144005
:103D40000000F03F300000000000F0430000E03FC2
:103D50002DE9FF4F95B09A46884606460025EEE1CC
:103D6000252877D100242746F94A0121039400E051
:103D7000044316F8013F203B01FA03F01042F7D14B
:103D800030782A2811D06FF02F033078A0F130025C
:103D9000092A16D8039A44F0020402EB820203EBCC
:103DA00042021044761C0390EFE758F8042B03926C
:103DB000002A03DA504244F40054039044F0020411
:103DC000761C30782E2816D116F8010F44F0040422
:103DD0002A280DD06FF02F023078A0F13003092B84
:103DE00009D807EB870302EB4303C718761CF3E7F8
:103DF00058F8047B761C30786C280FD006DC4C28F1
:103E000017D068280DD06A2814D104E0742810D087
:103E10007A280FD10DE044F400140AE044F4801431
:103E200001E044F440147278824202D104F5801417
:103E3000761C761C307866280BD013DC582877D097
:103E400009DC002875D04528F6D04628F4D047284C
:103E50001AD193E118E0632835D0642879D0652819
:103E600012D18BE1702873D008DC6728F1D0692863
:103E70006FD06E280DD06F2806D1ACE073282CD0FF
:103E8000752874D0782853D05246179990476D1CE6
:103E900054E1C4F30250022809D003280DD0D8F809
:103EA000001004280DD00D6008F1040846E1D8F890
:103EB0000010EA17C1E90052F6E7D8F800100D80AB
:103EC000F2E70D70F0E718F8041B8DF800100020E1
:103ED0008DF80100EB46012003E058F804BB4FF0D9
:103EE000FF3061074FF0000102D40DE009F101013C
:103EF0008946B9420FDA8145F8DB1BF80910002921
:103F0000F4D108E009F1010189468142FADB1BF88E
:103F100009100029F6D103985346A0EB0907214662
:103F20003846179A00F080FA284400EB090507E0AC
:103F300044E008E10DE01BF8010B52461799904749
:103F4000B9F10109F7D2534621463846179AF2E0F3
:103F500039E00A21C4F302524FF0000B0091022A0B
:103F600006D058F8040BC117032A09D00AE023E051
:103F700008F1070020F00702F2E80201904605E090
:103F800000B2C117042A01D140B2C117002906DAD4
:103F90000A460021404261EB02012D2202E0220587
:103FA00004D52B228DF80420012203E0E20701D082
:103FB0002022F7E7914657E00A2100E010214FF058
:103FC000000B00910BE010214FF0000B44F00404B3
:103FD0000827009103E008204FF0000B0090C4F385
:103FE0000252022A05D058F8040B0021032A08D0F7
:103FF00008E008F1070020F00702F2E8020190460D
:1040000003E080B2042A00D1C0B24FF000092207B9
:104010002AD53278702A07D0DDF800C08CF0100C59
:104020005CEA0B0C05D00EE040228DF80420012242
:1040300008E050EA010306D030238DF804308DF8F3
:10404000052002229146009B83F0080353EA0B03EC
:104050000AD150EA010201D1620705D530228DF85C
:1040600004204FF001097F1E3278582A04D039A26B
:104070000C920CAA02920BE03BA2F9E75B46009A75
:10408000FCF708F90C9B9B5C029A521E029213707B
:1040900050EA0102F2D1029804A9081A00F1200B9B
:1040A000600702D524F4803400E001275F4502DD7B
:1040B000A7EB0B0000E0002000EB0B010090039841
:1040C0004944401A0390E00306D453462146179A08
:1040D000039800F0A9F90544002706E001A852461C
:1040E000C05D179990476D1C7F1C4F45F6DBE003C0
:1040F0000CD553462146179A039800F095F90544CC
:1041000004E030205246179990476D1C0099481ED4
:1041100000900029F5DC08E00298029952460078E8
:10412000491C0291179990476D1CBBF10001ABF13E
:10413000010BF1DC5BE100F065F90544761C307899
:1041400000287FF40DAE19B02846BDE8F08F0000BE
:10415000092801003031323334353637383961625D
:104160006364656600000000303132333435363721
:10417000383941424344454600000000600700D4FE
:10418000062708F1070020F00700F0E80223804628
:1041900003F0004C5FEA0C0001D097A009E0200575
:1041A00001D596A005E0E00701D095A001E0AFF2AF
:1041B0004C001390307823F0004365280CD006DCC7
:1041C000452809D046281DD047287FD13BE06628E6
:1041D00018D067287AD136E00021112F01DB112099
:1041E00000E0781CCDE9000104A90CA8FFF7EEFC63
:1041F000DDE90D010C9A4FF0000B07F10109109257
:1042000000914EE04FF000400097CDE9011004A965
:104210000CA8FFF7DBFCDDE90D020C9B0F994FF0BA
:10422000000B91461093009211B9791C00EB010923
:10423000B7EB090003D4C0F1FF3B07F10109A9EB7B
:104240000700019042E0012F00DA01270021112F21
:1042500001DD112000E03846CDE9000104A90CA8D9
:10426000FFF7B4FCDDE90D010C9A00914FF0000B53
:10427000B946109221070FD4009A4A4503DA9146B5
:1042800001E0A9F10109B9F1010F05DD109AA9F1C9
:104290000101515C3029F4D0B84202DA10F1040F68
:1042A00003DA0121CDE9011010E0002803DC83448A
:1042B000A9EB000102E0411C494500DD8946A0EB65
:1042C0000B00401C01904FF000400290200705D4E5
:1042D0000198484502DB4FF0FF30019000208DF837
:1042E0004B0002980DF14B07B0F1004F25D0022092
:1042F0000C902B200D90029800280CDA404202907E
:104300002D200D9007E00A210298FCF749F8303182
:10431000029007F8011D0C99481E0C900029F2DC50
:1043200002980028EFD1791E0D980870307800F0BF
:10433000200040F0450007F8020D11A8C01BC01D69
:1043400002901398007800B1012000EB0901019858
:1043500001EBE071029801440398401A401E03905B
:10436000E00306D453462146179A039800F05CF800
:1043700005441398007818B15246179990476D1C60
:10438000E00323D553462146179A039800F04CF8D2
:1043900005441BE0BBF1000F07DB0098584504DD26
:1043A0001098179910F80B0001E017993020524629
:1043B000904701980BF1010B401E05F1010501909A
:1043C00004D12E205246179990476D1CB9F1000177
:1043D000A9F10109DEDC05E017F8010B5246179937
:1043E00090476D1C0299481E02900029F4DC534648
:1043F0002146179A03989EE62D0000002B0000002E
:10440000200000002DE9F041044600251E46174615
:10441000880404D405E039462020B0476D1C641E92
:10442000F9D52846BDE8F0812DE9F0410446002584
:104430001E469046C80301D5302700E02027880497
:1044400004D505E041463846B0476D1C641EF9D5D9
:104450002846BDE8F0814A68002A06D00A68531C45
:104460000B6010704868401E4860704770B586B099
:104470000546002D1CD126480068002811D14FF4B4
:10448000F070244924A229A3CDE90310CDE901321B
:1044900000900B462EA238A1002000F09BF800BF30
:1044A000FEE74FF4F0721B491BA0194B1B6898479D
:1044B00000240526324890F8F00010B9304606B0C6
:1044C00070BD00F093FA00241BE004EB44112C486B
:1044D0003130084490F82000012810D104EB441238
:1044E000274831301044411C1E222846FBF749FF63
:1044F00028B904EB441122483130465C03E0601CCB
:10450000C4B2052CE1DB00BF00F0A4FA3046D6E7C8
:10451000CC0000208873000874616720213D2028AA
:1045200028766F6964202A293029000028257329FC
:104530002068617320617373657274206661696CB1
:1045400065642061742025733A256C642E00000098
:104550002E2E5C4D6964646C6577617265735C6571
:104560006173796C6F676765725C7372635C656CAD
:104570006F672E6300000000656C6F67000000002D
:10458000CC4F002010B50024114890F8F00001280D
:1045900001D1204610BD00F083FA04460CB120463C
:1045A000F8E7012000F036FA0020094981F8F3000D
:1045B00081F8F400012000F0DDFB052000F084FA12
:1045C00000F0E6FA0120024981F8F0002046E1E718
:1045D000CC4F00200FB42DE9F04F8DB005460F46AB
:1045E0009846DDF868903846FBF7BBFE824600240B
:1045F0004FF0020B00200B900C9007900890099050
:104600000A90052D1CDDCC480068002811D140F22D
:104610003E20CA49CAA2D1A3CDE90310CDE9013297
:1046200000900B46D6A2E0A10020FFF7D3FF00BF09
:10463000FEE740F23E22C149C1A0BF4B1B6898472C
:10464000DB4890F8F10020B90DB0BDE8F00F5DF83F
:1046500014FBD7480078A84204DB3846FFF706FF72
:10466000A84200DAF0E7D249491C3846FBF767FE5A
:1046700000B9E9E71CA8069000F0B8F9CC4890F81A
:10468000F50078B1CB480119CBA2204600F02CFCF4
:104690000444CA4850F82520C6480119204600F0B5
:1046A00023FC04440121284600F0A4FC40B1C44886
:1046B00050F82520BF480119204600F015FC04449D
:1046C0000221284600F096FCE8B1BA4801193A46A2
:1046D000204600F009FC0444BAF10F0F0CD8CAF1CF
:1046E0000F01202207A8FBF718FEB248011907AAFC
:1046F000204600F0F9FB0444AE480119B1A220465F
:1047000000F0F2FB04441C21284600F073FC002852
:1047100052D0A8480119ACA2204600F0E5FB0444A1
:104720000421284600F066FCA8B100F0B5F9059018
:10473000A04801192046059A00F0D6FB0444182130
:10474000284600F057FC30B19A4801199DA2204636
:1047500000F0CAFB04440821284600F04BFCA8B135
:1047600000F08CF90590934801192046059A00F055
:10477000BBFB04441021284600F03CFC30B18D48BE
:10478000011990A2204600F0AFFB044410212846F6
:1047900000F030FC48B100F079F905908548011926
:1047A0002046059A00F0A0FB04448248011987A224
:1047B000204600F099FB044420212846189A00F076
:1047C00085FC60B942464021284600F07FFC30B9A4
:1047D0004A468021284600F087FC002862D07548B0
:1047E00001197BA2204600F07FFB044420212846CB
:1047F000189A00F06BFC08B36E4801192046189A0D
:1048000000F072FB044442464021284600F05EFC62
:1048100038B1684801196FA2204600F065FB0444D6
:104820000CE04A468021284600F05EFC30B1614829
:10483000011964A2204600F057FB04444A46802137
:10484000284600F051FCC8B14B4663A205210BA8D5
:10485000FFF75AF9574801190BAA204600F044FB0C
:10486000044442464021284600F030FC30B1514813
:10487000011954A2204600F037FB0444424640216F
:10488000284600F023FC30B14A4801194246204630
:1048900000F02AFB04444748011950A2204600F0CA
:1048A00023FB0444C4F58061424A1019069B1B9AFD
:1048B000FFF744F9064600200690A019B0F5806F76
:1048C00003D8002E01DB344401E04FF48064201D46
:1048D0005844B0F5806F04D94FF48064241FA4EBD2
:1048E0000B04334890F8200058B100203149085596
:1048F0002F4920312F48FBF722FD10B900F0AAF80C
:10490000A2E62B4890F8F50030B12A48011934A2EC
:10491000204600F0E9FA04442648011932A2204654
:1049200000F0E2FA04442146224800F0BFF800F00B
:1049300091F800BF88E60000CC000020A0730008BA
:104940006C6576656C203C3D20454C4F475F4C566E
:104950004C5F564552424F534500000028257329AD
:104960002068617320617373657274206661696C7D
:1049700065642061742025733A256C642E00000064
:104980002E2E5C4D6964646C6577617265735C653D
:104990006173796C6F676765725C7372635C656C79
:1049A0006F672E6300000000656C6F6700000000F9
:1049B000CC4F0020C45000201B5B0000B40000203E
:1049C0009C000020200000005B0000005D20000033
:1049D000280000003A000000256C64002900000057
:1049E0001B5B306D000000000D0A000010B5084888
:1049F00090F8F20030B100F062F80120044981F82B
:104A0000F40003E00120024981F8F30010BD00002A
:104A1000CC4F002010B504460D4880F8F24090F8C5
:104A2000F200A0B10A4890F8F40030B9084890F8B4
:104A3000F30010B100F043F809E0054890F8F400E5
:104A400028B1034890F8F30008B900F03AF810BD17
:104A5000CC4F002010B5084890F8F20030B100F0BB
:104A600030F80020044981F8F40003E000200249F6
:104A700081F8F30010BD0000CC4F002000A070476B
:104A8000626172656D6574616C00000000A0704722
:104A90006D61696E0000000000A07047000000001A
:104AA00010B50024FEF716F8204610BD70B5044678
:104AB0000D462A4621460020FEF710F870BD72B65A
:104AC000704762B67047000010B586B00446052CEA
:104AD0001CDD10480068002811D14FF4AD700E495C
:104AE0000EA215A3CDE90310CDE9013200900B46CB
:104AF0001AA224A10020FFF76DFD00BFFEE74FF4CE
:104B0000AD72054905A0034B1B6898471F48047008
:104B100006B010BDCC0000205C7300086C657665A3
:104B20006C203C3D20454C4F475F4C564C5F5645F2
:104B300052424F53450000002825732920686173B5
:104B400020617373657274206661696C65642061AD
:104B5000742025733A256C642E0000002E2E5C4DC7
:104B60006964646C6577617265735C656173796CA7
:104B70006F676765725C7372635C656C6F672E63E9
:104B800000000000656C6F6700000000CC4F002043
:104B900010B5002400BF13E004EB44120A4911448D
:104BA000481C1F21FBF7C0FB002104EB4412064800
:104BB000815404EB4412104480F82010601CC4B2ED
:104BC000052CE9DB10BD0000FD4F002030B585B09D
:104BD00004460D46052C1CDD10480068002811D144
:104BE0004FF4A0700E490FA215A3CDE90310CDE933
:104BF000013200900B461BA224A10020FFF7EAFC23
:104C000000BFFEE74FF4A072054906A0034B1B68E6
:104C10009847204840F8245005B030BDCC00002013
:104C20003F7300086C6576656C203C3D20454C4F19
:104C3000475F4C564C5F564552424F53450000006B
:104C4000282573292068617320617373657274204D
:104C50006661696C65642061742025733A256C6413
:104C60002E0000002E2E5C4D6964646C65776172C5
:104C700065735C656173796C6F676765725C73728D
:104C8000635C656C6F672E6300000000656C6F6786
:104C900000000000A450002010B586B00446002C8F
:104CA0001ED0012C1CD011480068002811D140F200
:104CB00015100F490FA219A3CDE90310CDE9013258
:104CC00000900B461EA228A10020FFF783FC00BF26
:104CD000FEE740F21512064906A0044B1B689847F0
:104CE000234880F8F14006B010BD0000CC00002041
:104CF0000B73000828656E61626C6564203D3D2081
:104D000066616C736529207C7C2028656E61626C0D
:104D10006564203D3D20747275652900282573293E
:104D20002068617320617373657274206661696CB9
:104D300065642061742025733A256C642E000000A0
:104D40002E2E5C4D6964646C6577617265735C6579
:104D50006173796C6F676765725C7372635C656CB5
:104D60006F672E6300000000656C6F670000000035
:104D7000CC4F002010B586B00446002C1ED0012C6C
:104D80001CD011480068002811D140F221100F49B1
:104D90000FA219A3CDE90310CDE9013200900B4613
:104DA0001EA228A10020FFF715FC00BFFEE740F27D
:104DB0002112064906A0044B1B689847234880F837
:104DC000F54006B010BD0000CC00002023730008A1
:104DD00028656E61626C6564203D3D2066616C7380
:104DE0006529207C7C2028656E61626C6564203DAD
:104DF0003D20747275652900282573292068617328
:104E000020617373657274206661696C65642061EA
:104E1000742025733A256C642E0000002E2E5C4D04
:104E20006964646C6577617265735C656173796CE4
:104E30006F676765725C7372635C656C6F672E6326
:104E400000000000656C6F6700000000CC4F002080
:104E50000EB50B4890F8F00000B90EBD0120FFF729
:104E60001BFF08A009A1F622124BCDE900210290F8
:104E700011A21BA10320FFF7ADFB00BFEDE700006F
:104E8000CC4F0020322E322E393900004561737923
:104E90004C6F676765722056257320697320696EB1
:104EA000697469616C697A6520737563636573738E
:104EB0002E000000F67200082E2E5C4D6964646CB2
:104EC0006577617265735C656173796C6F6767653F
:104ED000725C7372635C656C6F672E630000000028
:104EE000656C6F6700000000F0B585B006460D46A2
:104EF00014462746002D1AD124480068002810D1F6
:104F00002C20234923A224A3CDE90310CDE90132AB
:104F100000900B4629A234A10020FFF75BFB00BFE5
:104F2000FEE72C221A491BA0184B1B689847002C3F
:104F300019D11648006880B92D2015492CA216A356
:104F4000CDE90310CDE9013200900B461BA226A14A
:104F50000020FFF73FFB00BFFEE72D220C4924A0F5
:104F60000A4B1B6898470AE03046761CB0F5806F04
:104F700004D214F8010B05F8010B00E002E02078E0
:104F80000028F1D100BFE01B05B0F0BDCC0000202F
:104F9000D87300086473740028257329206861732E
:104FA00020617373657274206661696C6564206149
:104FB000742025733A256C642E0000002E2E5C4D63
:104FC0006964646C6577617265735C656173796C43
:104FD0006F676765725C7372635C656C6F675F7542
:104FE00074696C732E630000656C6F6700000000CD
:104FF0007372630030B585B004460D46052C1CDD88
:1050000013480068002811D140F2DF20114912A294
:1050100018A3CDE90310CDE9013200900B461EA282
:1050200027A10020FFF7D6FA00BFFEE740F2DF22FB
:10503000084909A0064B1B689847234850F82400EC
:10504000284010B1012005B030BD0020FBE7000072
:10505000CC000020AC7300086C6576656C203C3D8C
:1050600020454C4F475F4C564C5F564552424F537C
:10507000450000002825732920686173206173733F
:10508000657274206661696C6564206174202573A3
:105090003A256C642E0000002E2E5C4D6964646C11
:1050A0006577617265735C656173796C6F6767655D
:1050B000725C7372635C656C6F672E630000000046
:1050C000656C6F6700000000A450002070B50546B5
:1050D0000E46144634B131462846FFF78BFF08B11F
:1050E000012070BD0020FCE770B505460E46144651
:1050F00034B131462846FFF77DFF08B1012070BD6D
:105100000020FCE71CB5FCF7D1FAFBF7B8FBFDF774
:105110005BFDFDF78DFCFDF73DFCFDF7BBFC0DA035
:105120006C21124B12A2CDE9001016A10320FFF74B
:1051300051FA00F071F8FDF751FC00F083F800F02F
:105140006BF8FDF74BFC00F07DF801E0FBF76EFE1D
:10515000FCE700002031375F55736172745F444D86
:105160004120737461727420210D0A002C720008B2
:105170002E2E2F436F72652F5372632F6D61696EF0
:105180002E6300004E4F5F5441470000F0B50B30D6
:10519000154D20F007010024144A0FE003688B42EC
:1051A0000BD38B4205D95E1A43184768C3E90067E1
:1051B00000E04368136002C004E0021D106800288C
:1051C000ECD12046002802D1286808B10020F0BDAB
:1051D000064A07481060074A121A22F00702C0E97F
:1051E000002401202860D7E7F0000020EC00002018
:1051F000DC540020D856002070B50546FEF7D4FCDC
:1052000010B16FF0050404E0002415B1284600F049
:10521000FBFF204670BD000010B5FEF7C5FC10B1C5
:105220006FF0050409E00648006820B90120044930
:105230000860002401E04FF0FF34204610BD00005C
:105240006C00002070B5FEF7AFFC10B16FF00504E4
:105250001FE011480068012819D100BF801F0021FC
:10526000002804DB0A07130E0C4A135406E00A0751
:10527000150E0B4A00F00F031B1FD55400BF00BFD3
:1052800002200549086001F03BF8002401E04FF0DE
:10529000FF34204670BD00006C00002000E400E0F8
:1052A00018ED00E02DE9FF478046894614460020AE
:1052B0000390FEF779FC00284ED1B8F1000F4BD0D7
:1052C000802618258246471E44B3206808B1D4F8CA
:1052D00000A0A06900B1A5692DB1382D03D82079AF
:1052E00000F0010018B1002004B0BDE8F08760694B
:1052F00008B160698608A06840B1E0685C2805D301
:10530000206918B1606908B1012708E0A06830B9C8
:10531000E06820B9206910B9002700E00027012FBC
:105320000CD12169A0684B463246CDE9005102906C
:105330005146404601F0C6FC03900DE067B903A852
:10534000B2B24B465146CDE90050404601F088FCD0
:10535000012801D0002003900398C5E72DE9F04112
:1053600005460E461648076816480068001D00F0FE
:10537000C3FD681C38B936B112480168091D1248CE
:1053800000F010FE1AE07C190E4800684460BC4230
:1053900007D20C480168091D0C48006800F0E8FDC0
:1053A0000CE008480168091D0948006800F0E0FDAC
:1053B00008480068844201D206480460BDE8F081D4
:1053C000300000201C0000203007002024000020B6
:1053D000200000204C00002010B5044600F0EEFD37
:1053E00024480068401C234908602348006840B9ED
:1053F000214804600846006801280DD100F0FCF93E
:105400000AE01E48006838B91B480068C06AE16AB3
:10541000884201D81848046019480068401C18499F
:1054200008600846006860641649E06A09688842B6
:1054300002D91449E06A0860E16A01EB8101124A6D
:1054400002EB8100211D00F0ADFD00F0E1FD0B48F5
:10545000006868B108480068C06AE16A884207D2FB
:105460004FF0805009490860BFF34F8FBFF36F8F33
:1054700010BD00002C0000201C000020380000207F
:1054800048000020340000208002002004ED00E0ED
:1054900008B500F093FD12480068E8B9114800F023
:1054A00057FD114800F054FD0E48104908600E48A1
:1054B0000F49086000200F4B0F4A102100900A206E
:1054C00001F0C5F8064908600846006820B10BA144
:1054D0000348006800F05CFE00F09AFD08BD000083
:1054E00060000020440700205807002058000020DA
:1054F0005C0000206C070020BC070020546D725136
:105500000000000010B516E000F058FD0C48C0681F
:10551000C468201D00F0F0FC0A480068401E0949DC
:10552000086009480068401E0749086000F070FDE7
:10553000204600F05FF8044800680028E4D110BD60
:105540001C0700202C0000202800002070B5044615
:105550000D46206C70B1216CE0680144E160D4E933
:105560000210884201D32168E1602846226CE1687C
:10557000FAF7C1FE70BD2DE9F04104460F4615460D
:105580004FF00008A66B206C48B9206800282CD189
:10559000A06801F0ADFC80460020A06025E07DB948
:1055A0003946226C6068FAF7A6FE216C60680844F0
:1055B0006060D4E90101884217D32068606014E07C
:1055C0003946226CE068FAF796FE216CE068411AD1
:1055D000E1602168E068884203D2216CA068411A2A
:1055E000E160022D01D106B1761E701CA063404619
:1055F000BDE8F08110B5044694F8590030B9206B2D
:1056000000F024FD204600F021FD1AE094F8590036
:10561000012803D1204600F019FD12E094F859004A
:10562000022801D1012000E0002050B900BF502025
:1056300080F31188BFF34F8FBFF36F8F00BF00BFA0
:10564000FEE710BD0146084A126812680AB9012235
:1056500000E000220A600A6822B9034A1268D26890
:10566000106800E0002070475800002030B54FF46B
:105670007053174800F007042CB1C01D20F007003C
:10568000134C041B1B1B0246124C22600024114DBC
:105690006C60D018083820F007000F4C2060002400
:1056A0000D4D2D686C600C4D2D682C601146441A10
:1056B0004C60094C24680C60084D4C682C60084D07
:1056C0004C682C604FF00044064D2C6030BD00004B
:1056D000140F0020700000207800002080000020BF
:1056E0007C0000208C00002000BFFFF70BFF064865
:1056F00000680128F9D94FF0805004490860BFF3D1
:105700004F8FBFF36F8FF0E78002002004ED00E0C1
:105710002DE9F04106460D4617469846069C0DB900
:10572000246000E02760E66325640121204600F044
:10573000FFFF84F84C80BDE8F0812DE9F05F8246E0
:105740000E4690469B460A9F0C9C4FEA8801A52274
:10575000206BFAF7E2FDA8F10100216B01EB800953
:1057600029F0070909F0070008B9012000E000202E
:1057700050B900BF502080F31188BFF34F8FBFF3A3
:105780006F8F00BF00BFFEE786B1002507E0715DA7
:1057900004F134004155705D00B902E06D1C102D1C
:1057A000F5D300BF00214320015502E0002084F81A
:1057B0003400382F00D33727E762E76400202065E4
:1057C000201D00F0D2FB04F1180000F0CEFB246194
:1057D000C7F13800A06164620020606584F8580059
:1057E0005A465146484600F071FB20600B9808B1BC
:1057F0000B980460BDE8F09F10B5002407E004EBAF
:1058000084010F4A02EB810000F0A2FB641C382CDB
:10581000F5D30C4800F09CFB0B4800F099FB0B48BB
:1058200000F096FB0A4800F093FB0A4800F090FB5A
:1058300004480949086004480849086010BD000090
:1058400080020020E0060020F40600200807002067
:105850001C0700203007002020000020240000202A
:1058600010B50146164800E0006803688B42FBD380
:105870000246436813448B4204D143684C68234476
:10588000436001460A464B6813440468A34211D1A1
:105890000C4C03682468A34208D04B680468646811
:1058A00023444B6003681B680B6005E0054B1B68D5
:1058B0000B6001E003680B60884200D0016010BDFE
:1058C00070000020780000202DE9F04104460D46CC
:1058D00016461F464FF0000865602461B5420CD89B
:1058E000F01BA169884202D34FF0010811E0211D8D
:1058F0000948006800F03CFB0BE0BE4204D2BD4208
:1059000002D34FF0010804E0211D0448006800F0B4
:105910002FFB4046BDE8F0815C00002058000020CD
:1059200070B5054600F04AFBA86B08B9012400E0F9
:10593000002400F06DFB204670BD70B5054600F0F8
:105940003DFBA86BE96B884201D1012400E00024F3
:1059500000F05EFB204670BDF8B505460F461A48BC
:105960000068C068C468201D00F0C6FA94F82800DA
:1059700000F00400E8B1A06941192B463A462046E0
:10598000FFF7A2FFD8B1002003462A460146009047
:10599000204601F009FC064656B900BF502080F3AE
:1059A0001188BFF34F8FBFF36F8F00BF00BFFEE7BB
:1059B00005E094F8280020F0010084F82800204633
:1059C000216A8847F8BD000058000020F0B587B074
:1059D000A0E00398002811DA04AE56B900BF5020A9
:1059E00080F31188BFF34F8FBFF36F8F00BF00BFED
:1059F000FEE7D6E90020B168904700BF0398002871
:105A0000E6DB059C606908B9012000E0002010B9C0
:105A1000201D00F071FA02A800F0DEF80546039898
:105A20000A2875D2DFE800F0090507394163060846
:105A30003A4200BF00BF00BF00BF94F8280040F00A
:105A4000010084F828000498A269811803462A46B8
:105A50002046FFF739FFF8B12046216A884794F8BD
:105A6000280000F00400B8B1002000900498A1695B
:105A7000421800231946204601F096FB074657B905
:105A800000BF502080F31188BFF34F8FBFF36F8F9B
:105A900000BF00BFFEE700BF3BE000BF94F8280056
:105AA00020F0010084F8280033E000BF94F82800BB
:105AB00040F0010084F828000498A061A06908B1B2
:105AC000012000E0002050B900BF502080F3118871
:105AD000BFF34F8FBFF36F8F00BF00BFFEE7A0691A
